:100000000C9462000C948A000C948A000C948A0070
:100010000C948A000C948A000C948A000C948A0038
:100020000C948A000C9423010C948A000C94C8014F
:100030000C948A000C948A000C948A000C948A0018
:100040000C9486020C948A000C94FE030C944C04CD
:100050000C948A000C948A000C948A000C948A00F8
:100060000C948A000C948A000000000024002700F1
:100070002A0000000000250028002B0000000000DE
:1000800023002600290004040404040404040202DA
:100090000202020203030303030301020408102007
:1000A0004080010204081020010204081020000012
:1000B0000007000201000003040600000000000029
:1000C0000000B80511241FBECFEFD8E0DEBFCDBFC2
:1000D00011E0A0E0B1E0E2EEFCE002C005900D927C
:1000E000A631B107D9F712E0A6E1B1E001C01D9237
:1000F000AA39B107E1F710E0C4ECD0E004C02297C0
:10010000FE010E946B06C23CD107C9F70E940E0691
:100110000C946F060C94000080910001882341F03C
:1001200081E090E090931C0180931B0110920001EC
:1001300080911601882331F010921C0110921B014E
:100140001092160180911B0190911C01892B09F4DA
:1001500050C08091190190911A01892BD9F00E9409
:10016000CE0220911F013091200140912101509138
:100170002201621B730B840B950B209119013091A6
:100180001A01442737FD4095542F26173707480793
:10019000590778F58091010162E00E941703809170
:1001A00001010E94AA0320911D0130911E01892B9B
:1001B000B1F4232BF1F481E08093170181E090E00A
:1001C00090931E0180931D010E94CE0260931F0137
:1001D0007093200180932101909322010AC0213065
:1001E000310519F481E08093180110921E011092DC
:1001F0001D0180911701882361F08091030161E066
:100200000E9417038091030161E00E94560310923F
:10021000170180911801882361F08091030161E04A
:100220000E9417038091030160E00E945603109220
:100230001801089588E792E040E052EC61E070E038
:100240000E94870408951F920F920FB60F921124F7
:100250002F933F934F935F936F937F938F939F93CE
:10026000AF93BF93EF93FF9381EA8093B2008091A5
:1002700023010E94AA03482F809126019091270113
:10028000019690932701809326018091C0018C34C0
:1002900018F085E080932401809124018330D1F00F
:1002A000843020F4823009F059C006C0843071F1E6
:1002B000853009F053C04CC0442309F04FC08091F1
:1002C0002601909127018436910508F443C01092CD
:1002D000C0011EC0413009F041C08091C001E82F2B
:1002E000F0E02091260130912701EE0FFF1FED5D18
:1002F000FE4F368325838F5F8093C00110922701C4
:100300001092260184E08093240128C04423B9F48C
:100310008091C001E82FF0E0209126013091270163
:10032000EE0FFF1FED5DFE4F368325838F5F8093B9
:10033000C001109227011092260183E0E4CF809142
:100340002601909127018536910540F085E0DBCFAD
:10035000442321F410922701109226018091250157
:10036000882329F0442311F42D9A01C02D98FF9180
:10037000EF91BF91AF919F918F917F916F915F911D
:100380004F913F912F910F900FBE0F901F90189596
:100390001F920F920FB60F9211242F933F934F93FA
:1003A0005F936F937F938F939F93AF93BF93EF93DD
:1003B000FF938091E60187FF05C01092850010929F
:1003C00084002BC02091E601332727FD30958091D2
:1003D000C10190E02817390704F58091E6019927BB
:1003E00087FD9095FC01EE0FFF1FE80FF91FEE53FC
:1003F000FE4F808186FF11C08091E601992787FD1D
:100400009095FC01EE0FFF1FE80FF91FEE53FE4F12
:1004100080818F7360E00E9456038091E6018F5FB8
:100420008093E6012091E601332727FD30958091E6
:10043000C10190E0281739070CF04EC08091E60109
:100440008C300CF049C0209184003091850080915F
:10045000E601992787FD9095FC01EE0FFF1FE80F3D
:10046000F91FEE53FE4F81819281280F391F30937F
:100470008900209388008091E601992787FD909557
:10048000FC01EE0FFF1FE80FF91FEE53FE4F8081B6
:1004900086FF2BC08091E601992787FD9095FC018E
:1004A000EE0FFF1FE80FF91FEE53FE4F80818F7391
:1004B00061E00E94560319C080E49CE905C0809168
:1004C0008400909185000496909389008093880021
:1004D0008FEF8093E60109C08091840090918500A0
:1004E000049680549C4940F3EACFFF91EF91BF916D
:1004F000AF919F918F917F916F915F914F913F91BC
:100500002F910F900FBE0F901F9018951F920F9272
:100510000FB60F9211242F933F938F939F93AF9316
:10052000BF938091EB019091EC01A091ED01B0910E
:10053000EE013091EF010196A11DB11D232F2D5F1A
:100540002D3720F02D570196A11DB11D2093EF01ED
:100550008093EB019093EC01A093ED01B093EE0139
:100560008091E7019091E801A091E901B091EA0141
:100570000196A11DB11D8093E7019093E801A0931E
:10058000E901B093EA01BF91AF919F918F913F91A3
:100590002F910F900FBE0F901F9018958FB7F89462
:1005A0002091EB013091EC014091ED015091EE0171
:1005B0008FBFB901CA010895789484B5826084BD63
:1005C00084B5816084BD85B5826085BD85B5816057
:1005D00085BDEEE6F0E0808181608083E1E8F0E0B7
:1005E0001082808182608083808181608083E0E8E6
:1005F000F0E0808181608083E1EBF0E080818460C5
:100600008083E0EBF0E0808181608083EAE7F0E0C6
:10061000808184608083808182608083808181602A
:1006200080838081806880831092C1000895CF9379
:10063000DF93482F50E0CA0186569F4FFC0134914A
:100640004A575F4FFA018491882369F190E0880F3F
:10065000991FFC01E859FF4FA591B491FC01EE5898
:10066000FF4FC591D491662351F42FB7F8948C9124
:10067000932F909589238C93888189230BC06230B6
:1006800061F42FB7F8948C91932F909589238C93D4
:100690008881832B88832FBF06C09FB7F8948C91E5
:1006A000832B8C939FBFDF91CF910895482F50E00B
:1006B000CA0182559F4FFC012491CA0186569F4F63
:1006C000FC0194914A575F4FFA013491332309F4A6
:1006D00040C0222351F1233071F0243028F421301E
:1006E000A1F0223011F514C02630B1F02730C1F04E
:1006F0002430D9F404C0809180008F7703C08091AA
:1007000080008F7D8093800010C084B58F7702C0F9
:1007100084B58F7D84BD09C08091B0008F7703C000
:100720008091B0008F7D8093B000E32FF0E0EE0F5A
:10073000FF1FEE58FF4FA591B4912FB7F894662391
:1007400021F48C919095892302C08C91892B8C93F4
:100750002FBF0895682F70E0CB0182559F4FFC0199
:100760002491CB0186569F4FFC0144916A577F4FDD
:10077000FB019491992319F420E030E03CC022233E
:1007800051F1233071F0243028F42130A1F02230CF
:1007900011F514C02630B1F02730C1F02430D9F45F
:1007A00004C0809180008F7703C0809180008F7D8E
:1007B0008093800010C084B58F7702C084B58F7D90
:1007C00084BD09C08091B0008F7703C08091B000D4
:1007D0008F7D8093B000892F90E0880F991F8458F7
:1007E0009F4FFC01A591B4918C9120E030E08423CF
:1007F00011F021E030E0C901089508951F920F9291
:100800000FB60F9211242F933F934F938F939F9383
:10081000EF93FF938091C00082FD1DC04091C60000
:1008200020913002309131022F5F3F4F2F73307093
:1008300080913202909133022817390771F0E091CC
:100840003002F0913102E051FE4F4083309331028B
:100850002093300202C08091C600FF91EF919F91DA
:100860008F914F913F912F910F900FBE0F901F903E
:100870001895E0918402F0918502E05CFF4F819130
:10088000919120813181821B930B8F739070892B02
:1008900011F00E94FD0308951F920F920FB60F9260
:1008A00011242F933F938F939F93EF93FF93209166
:1008B0007402309175028091760290917702281728
:1008C000390731F48091C1008F7D8093C10014C03D
:1008D000E0917602F0917702EC5CFD4F20818091EF
:1008E00076029091770201968F73907090937702C1
:1008F000809376022093C600FF91EF919F918F9194
:100900003F912F910F900FBE0F901F901895AF92AF
:10091000BF92DF92EF92FF920F931F93CF93DF93DB
:10092000EC017A018B01DD24403081EE580780E034
:10093000680780E0780711F0DD24D39491E0A92EB8
:10094000B12CEC89FD89DD2069F0C50108A002C049
:10095000880F991F0A94E2F7808360E079E08DE3C5
:1009600090E005C0108260E874E88EE190E0A80194
:1009700097010E9447062150304040405040569514
:1009800047953795279580E12030380720F0DD2006
:1009900011F0DD24D6CFE889F9893083EA89FB8913
:1009A000208319A2EE89FF89408121E030E0C9014E
:1009B0000C8C02C0880F991F0A94E2F7482B4083E1
:1009C000EE89FF894081C9010D8C02C0880F991FF3
:1009D0000A94E2F7482B4083EE89FF894081C901E0
:1009E0000E8C02C0880F991F0A94E2F7482B4083AF
:1009F000EE89FF8980810F8C02C0220F331F0A9479
:100A0000E2F7209528232083DF91CF911F910F914A
:100A1000FF90EF90DF90BF90AF900895DC011C969F
:100A2000ED91FC911D97E05CFF4F21913191808108
:100A30009181281B390B2F733070C9010895DC0197
:100A40001C96ED91FC911D97E05CFF4F2081318158
:100A5000E054F040DF01AE5BBF4F8D919C91119748
:100A60002817390719F42FEF3FEF07C08D919C919C
:100A7000E80FF91F8081282F30E0C9010895DC01BB
:100A80001C96ED91FC911D97E05CFF4F2081318118
:100A9000E054F040DF01AE5BBF4F8D919C91119708
:100AA0002817390719F42FEF3FEF10C08D919C9153
:100AB0001197E80FF91F20818D919C911197019654
:100AC0008F73907011969C938E9330E0C9010895B6
:100AD000DC0191968C919197882339F05496ED9191
:100AE000FC915597808186FFF9CF91961C920895CD
:100AF000CF93DF93EC01EE85FF85E05CFF4F208113
:100B00003181E054F0402F5F3F4F2F733070DF0191
:100B1000AE5BBF4F8D919C91119728173907D1F388
:100B2000E05CFF4F80819181E054F040E80FF91FB5
:100B30006083EE85FF85E05CFF4F31832083EE8983
:100B4000FF89208181E090E00F8C02C0880F991FFF
:100B50000A94E2F7282B208381E089A3EC89FD89A0
:100B600080818064808381E090E0DF91CF9108955F
:100B700010927B0210927A0288EE93E0A0E0B0E03F
:100B800080937C0290937D02A0937E02B0937F02BB
:100B900089E091E0909379028093780280EF91E070
:100BA000909385028093840284E392E0909387027D
:100BB0008093860285EC90E090938902809388026E
:100BC00084EC90E090938B0280938A0280EC90E01A
:100BD00090938D0280938C0281EC90E090938F0231
:100BE00080938E0282EC90E0909391028093900229
:100BF00086EC90E0909393028093920284E080933D
:100C0000940283E08093950287E08093960285E0CA
:100C10008093970281E0809398020895CF93DF93A9
:100C20000E94DC020E941A01C9E3D4E00E948C00F9
:100C30002097E1F30E943904F9CFCF92DF92EF922F
:100C4000FF920F931F93CF93DF937C016B018A0177
:100C5000C0E0D0E00FC0D6016D916D01D701ED91DC
:100C6000FC910190F081E02DC7010995C80FD91FB3
:100C7000015010400115110571F7CE01DF91CF91A0
:100C80001F910F91FF90EF90DF90CF900895A1E218
:100C90001A2EAA1BBB1BFD010DC0AA1FBB1FEE1FF6
:100CA000FF1FA217B307E407F50720F0A21BB30B41
:100CB000E40BF50B661F771F881F991F1A9469F7BD
:100CC00060957095809590959B01AC01BD01CF0119
:100CD0000895EE0FFF1F0590F491E02D0994F8940C
:020CE000FFCF44
:100CE20001030005000000000078051D060E053F07
:060CF200051F0568050066
:00000001FF
