:101E000011248FE594E09EBF8DBF84B714BE81FF7F
:101E1000E2D085E08EBD82E08BB988E18AB986E8A0
:101E200080BD80E189B98EE0C2D0BD9A96E020E302
:101E30003CEF54E040E23DBD2CBD58BF08B602FE69
:101E4000FDCF88B3842788BBA8959150A1F7CC24F7
:101E5000DD2488248394B5E0AB2EA1E19A2EF3E033
:101E6000BF2E9ED0813461F49BD0082FA4D00238BD
:101E700011F0013811F484E001C083E08DD089C0F5
:101E8000823411F484E103C0853419F485E09BD0D9
:101E900080C0853579F484D0E82EFF2481D0082FC6
:101EA00010E0102F00270E291F29000F111F83D0CB
:101EB00068016FC0863521F484E085D080E0DECFF4
:101EC000843609F040C06CD06BD0082F69D080E018
:101ED000C81688E1D80618F4F601B7BEE895C0E048
:101EE000D1E05ED089930C17E1F7F0E0CF16F8E16E
:101EF000DF0618F0F601B7BEE8955DD007B600FC26
:101F0000FDCFA601A0E0B1E02C9130E011968C91BC
:101F1000119790E0982F8827822B932B1296FA0125
:101F20000C0187BEE89511244E5F5F4FF1E0A034AD
:101F3000BF0751F7F601A7BEE89507B600FCFDCF35
:101F400097BEE89526C08437B1F42AD029D0F82E60
:101F500027D031D0F601EF2C8F010F5F1F4F8491F6
:101F60001BD0EA94F801C1F70894C11CD11CFA9463
:101F7000CF0CD11C0EC0853739F41DD08EE10CD0AA
:101F800083E90AD087E07ACF813511F488E00FD059
:101F900012D080E101D065CF5D9BFECF8CB9089552
:101FA0005F9BFECF5C9901C0A8958CB1089598E124
:101FB00091BD81BD0895F4DF803219F088E0F7DF2C
:101FC000FFCF84E1E9CF1F93182FEADF1150E9F723
:101FD000F2DF1F91089580E0EADFEE27FF270994E2
:021FFE000404D9
:0400000300001E00DB
:00000001FF
