:200000000C946E010C9496010C9496010C9496010C9496010C9496010C9496010C94960150
:200020000C9496010C9496010C94F8040C947F050C9496010C9496010C9496010C949601B6
:200040000C9496010C9496010C9496010C9496010C9496010C9496010C9496010C94B501C9
:200060000C9496010C9496010C9496010C9496010C9496010C9496010C9496010C949601C8
:200080000C9496010C9496010C9496010C9496010C9496010C9496010C9496010C949601A8
:2000A0000C9496010C9496010C94960100000000240027002A002D003000000000002500A4
:2000C00028002B002E003100000000002300260029002C002F00040404040403040502027D
:2000E0000202040302020202060606060606040402020204040802011040804010204080A8
:200100004080080204018040201002011080102040400000000200080E0000030401000BB2
:200120000000070605040100080A0B0C0D09040309042203410072006400750069006E00CD
:200140006F0020004D006900630072006F00200020002000180341007200640075006900A6
:200160006E006F0020004C004C00430012010002000000404123378000010102000112011F
:200180000002020000404123378000010102000100C18081C1080B00020202010009040051
:2001A000000102020000052400100105240101010424020605240600010705810310004094
:2001C00009040100020A000000070502024000000705830240000005010902A1010901A186
:2001E000008501050919012903150025019503750181029501750581030501093009310943
:20020000381581257F750895038106C0C005010906A1018502050719E029E715002501754D
:20022000019508810295017508810395067508150025650507190029658100C0090402004C
:2002400001030000000921010100012265000705840340000100000000000000002A2B2895
:200260000000000000000000000000000000000000000000002C9EB4A0A1A2A434A6A7A553
:20028000AE362D3738271E1F20212223242526B333B62EB7B89F8485868788898A8B8C8D58
:2002A0008E8F909192939495969798999A9B9C9D2F3130A3AD350405060708090A0B0C0D7C
:2002C0000E0F101112131415161718191A1B1C1DAFB1B0B5000032041207170811241FBE81
:2002E000CFEFDAE0DEBFCDBF11E0A0E0B1E0E4EAF2E102C005900D92AC32B107D9F711E06D
:20030000ACE2B1E001C01D92AD39B107E1F712E0CCEDD2E004C02297FE010E944C09C63D05
:20032000D107C9F70E946C030C9450090C9400008091000161E00E94390368EE73E080E041
:2003400090E00E94FD018091000160E00E94390368EE73E080E090E00E94FD010895809196
:20036000000161E00E94AC0208951F920F920FB60F9211242F933F938F939F93AF93BF93E5
:200380008091300190913101A0913201B0913301309134010196A11DB11D232F2D5F2D3794
:2003A00020F02D570196A11DB11D209334018093300190933101A0933201B0933301809117
:2003C0002C0190912D01A0912E01B0912F010196A11DB11D80932C0190932D01A0932E01BA
:2003E000B0932F01BF91AF919F918F913F912F910F900FBE0F901F9018959B01AC017FB734
:20040000F89480912C0190912D01A0912E01B0912F0166B5A89B05C06F3F19F00196A11DC3
:20042000B11D7FBFBA2FA92F982F8827860F911DA11DB11D62E0880F991FAA1FBB1F6A9577
:20044000D1F7BC012DC0FFB7F89480912C0190912D01A0912E01B0912F01E6B5A89B05C0E7
:20046000EF3F19F00196A11DB11DFFBFBA2FA92F982F88278E0F911DA11DB11DE2E0880FFD
:20048000991FAA1FBB1FEA95D1F7861B970B885E9340C8F2215030404040504068517C4F8F
:2004A000211531054105510571F60895789484B5826084BD84B5816084BD85B5826085BD0F
:2004C00085B5816085BDEEE6F0E0808181608083E1E8F0E010828081826080838081816043
:2004E0008083E0E8F0E0808181608083E1E9F0E0808182608083808181608083E0E9F0E07E
:20050000808181608083E1ECF0E0808184608083808182608083808181608083E3ECF0E007
:20052000808181608083E0ECF0E0808182608083E2ECF0E0808181608083EAE7F0E080812F
:20054000846080838081826080838081816080838081806880830895CF93DF93482F50E0E5
:20056000CA018C509F4FFC0134914A525F4FFA018491882369F190E0880F991FFC01E455D0
:20058000FF4FA591B491FC01E654FF4FC591D491662351F42FB7F8948C91932F9095892362
:2005A0008C93888189230BC0623061F42FB7F8948C91932F909589238C938881832B8883B2
:2005C0002FBF06C09FB7F8948C91832B8C939FBFDF91CF910895883071F1893068F48230EF
:2005E00031F1833020F4813009F042C01DC0833089F08430E9F512C08B3059F18C3028F41C
:200600008930E9F08A30A1F51EC08C3031F18E3079F529C0809180008F7703C0809180003C
:200620008F7D80938000089584B58F7702C084B58F7D84BD0895809190008F7707C08091DB
:2006400090008F7D03C080919000877F8093900008958091C0008F7703C08091C0008F7DDD
:200660008093C00008958091C200877F8093C2000895FF920F931F93F62E482F50E0CA0144
:200680008E5E9E4FFC012491CA018C509F4FFC0114914A525F4FFA0104910023C9F022239D
:2006A00019F0822F0E94EB02E02FF0E0EE0FFF1FE654FF4FA591B4919FB7F894FF2021F4DE
:2006C0008C911095812302C08C91812B8C939FBF1F910F91FF900895CF93DF930E94560262
:2006E0008DE391E00E9433040E94AF01C0E0D0E00E9498012097E1F30E940000F9CF282F17
:20070000809137018823C1F057FF1AC015C0289A909336018091F1008193E217F307B9F75A
:200720004115510539F08091F200882319F48BE68093E800AFBF02C04FEF5FEFCA01089599
:20074000AFB7F89427702093E9008091F200282F30E0241735070CF4A901FB019B01240F1E
:20076000311D94E6DACFDF93CF930F92CDB7DEB7BE016F5F7F4F41E050E00E947F03019712
:2007800019F02FEF3FEF03C08981282F30E0C9010F90CF91DF910895FF920F931F93F82EEF
:2007A000142F052F40913A0150913B01212F302FC901DC01FB016EEF29C0F7FE02C0949125
:2007C00001C09081209138013091390124173507ACF48091E8008570E1F38091E80082FF0F
:2007E00003C02FEF3FEF17C09093F100C90101968F739070892B11F46093E8002F5F3F4FEC
:200800003093390120933801119731961097A9F6812F902F9C01C9011F910F91FF900895E8
:200820009C018091E80082FFFCCFF901260F311D03C08091F1008193E217F307D1F7289A03
:2008400084E6809336018BEF8093E800CB0108958093E9008091F200882319F08AE38093D3
:20086000E800089508951092370181E08093D70080EA8093D80082E189BD09B400FEFDCFAC
:2008800061E070E080E090E00E94FD0180E98093D8008CE08093E2001092E000559A209A77
:2008A0005D98289808955F926F927F928F929F92AF92BF92CF92DF92EF92FF920F931F93C7
:2008C000CF93DF93E82E842E752E80913701882371F18B01242F352FC901EC017AEFF72EFB
:2008E00067E0962E9E2050E4552E8E2D90E040E2A42EB12CA822B9223AE3632E20E4C22E35
:20090000D12CC822D92258C09FB7F8949092E9008091E80085FD02C020E004C08091F200EC
:20092000252D281B9FBF222361F4FA9419F42FEF3FEF4DC061E070E080E090E00E94FD0135
:200940003BC0822F90E0C817D9070CF42C2FC21BD1094FB7F8949092E900A114B10421F48E
:2009600006C01092F10021502223D9F719C0E7FC03C0F801922F10C0C801322F06C0FC01A2
:200980000196E491E093F10031503323C1F706C081918093F10091509923D1F7020F111DD8
:2009A0008091E80085FF05C0209729F4C114D10411F06092E8004FBF209709F0A5CF5D9A73
:2009C00084E680933501282D372DC9019C01C901DF91CF911F910F91FF90EF90DF90CF907E
:2009E000BF90AF909F908F907F906F905F9008951F920F920FB60F9211242F933F934F931E
:200A00005F936F937F938F939F93AF93BF93EF93FF938091E1001092E100982F83FF0FC047
:200A20001092E90081E08093EB001092EC0082E38093ED001092370188E08093F00092FF03
:200A400034C083E08093E9008091F200882319F08AE38093E8008FB7F89492E09093E900D4
:200A60009091F2008FBF992321F082E891E00E94550780913501882351F080913501815024
:200A80008093350180913501882309F45D9880913601882351F08091360181508093360192
:200AA00080913601882309F42898FF91EF91BF91AF919F918F917F916F915F914F913F91E6
:200AC0002F910F900FBE0F901F9018950F931F93DF93CF930F92CDB7DEB719828E010F5F75
:200AE0001F4FC8010E947B07C8010E941409898190E00F90CF91DF911F910F9108951F928C
:200B00000F920FB60F921124EF92FF921F932F933F934F935F936F937F938F939F93AF93C3
:200B2000BF93EF93FF93DF93CF93CDB7DEB76197DEBFCDBF1092E9008091E80083FF0FC16B
:200B4000FE0131969E01275F3F4F03C08091F1008193E217F307D1F7289A84E68093360112
:200B600082EF8093E800998197FF05C08091E80080FFFCCF03C08EEF8093E800292F30E0AE
:200B8000C90180769070892B09F0C2C08A81882329F41092F1001092F100D6C0813009F429
:200BA000D3C0833009F4D0C0853049F48091E80080FFFCCF8B8180688093E300C5C0863008
:200BC00009F07CC01C81EF80F8841230C1F51092E900109239011092380110923B0110929E
:200BE0003A010E94660599E0FE013996DF01292F1D922A95E9F799871A8791E09E8790E811
:200C0000988B9AEF998B2091380130913901275F3F4F3C872B878D871092E900109239011B
:200C200010923801F0923B01E0923A0180E0BF0149E050E00E94CC030E94660585C0109290
:200C4000E9001092390110923801F0923B01E0923A01123241F482E290E00E940C09892BD1
:200C600009F476C071C0113079F488E0E816F10419F481E080933C0180913C01882309F057
:200C80006BC0ECE6F1E013C0133009F061C08B81882319F4EEE2F1E00AC0823019F4E2E3A3
:200CA000F1E005C0813009F053C0E4E5F1E0449180E8BF0150E00E94CC0346C0873009F4EF
:200CC00047C0883021F481E08093F1003DC08930D9F523703070232BD9F5E1E9F1E091E0FC
:200CE00031E026E39093E9003093EB0084918093EC002093ED009F5F3196953099F78EE7DD
:200D00008093EA001092EA008B81809337011CC08F8198851092E9001092390110923801A8
:200D200090933B0180933A018D81882329F4CE0101960E94870706C0823051F4CE01019677
:200D40000E94DD07882321F08EEF8093E80007C081E28093EB0003C0EEE7F1E0A8CF6196DA
:200D6000DEBFCDBFCF91DF91FF91EF91BF91AF919F918F917F916F915F914F913F912F911A
:200D80001F91FF90EF900F900FBE0F901F90189520917E0130917F01809180019091810188
:200DA000281B390B2F733070C901089520917E0130917F01809180019091810128173907DE
:200DC00019F42FEF3FEF09C0E0918001F0918101E25CFE4F8081282F30E0C90108952091F1
:200DE0007E0130917F0180918001909181012817390719F42FEF3FEF13C0E0918001F091E0
:200E00008101E25CFE4F2081809180019091810101968F739070909381018093800130E00D
:200E2000C9010895109285011092840188EE93E0A0E0B0E08093860190938701A093880102
:200E4000B093890180E191E0909383018093820108950F931F93DF93CF930F92CDB7DEB737
:200E60008C01698380910901882369F083E0BE016F5F7F4F41E050E00E9453041816190685
:200E800014F49C0107C081E090E0F8019383828320E030E0C9010F90CF91DF911F910F9168
:200EA000089583E00E9428040895CF93DF9312C082E00E94B3032FEF8F3F9207C9F0E091B8
:200EC0007E01F0917F01E25CFE4F8083D0937F01C0937E01C0917E01D0917F012196CF73A5
:200EE000D0708091800190918101C817D90701F7DF91CF910895FC0180818E5F808380E803
:200F000065E971E042E450E00E94CC030895FC0181819081913A59F4813209F04CC080E08E
:200F200062E071E047E050E00E94CC0342C0913209F041C0803239F482E091E067E070E04E
:200F40000E94100436C0823209F035C08281809309018091020190910301A0910401B09173
:200F60000501805B9440A040B04019F58091090180FD12C087E797E7909301088093000841
:200F80002BE088E190E00FB6F894A895809360000FBE209360000DC088E10FB6F8948093F2
:200FA0006000109260000FBEA895109201081092000881E0089580E00895FC019181808165
:200FC000813A31F4913089F080E0933089F40DC0813269F49B3021F4828180930A0105C0B4
:200FE0009A3029F4828180930B0181E0089580E00895EF92FF920F931F938C01E62EDC0109
:20100000ED91FC910480F581E02D0995F82ED801ED91FC910680F781E02DC8016E2D099509
:201020008F2D90E01F910F91FF90EF90089510929001109294011092930182E291E09093F1
:201040009201809391010895EF92FF920F931F93DF93CF930F92CDB7DEB789838B017A01B4
:2010600084E0BE016F5F7F4F41E050E00E94530484E4B801A7010E9453040F90CF91DF9136
:201080001F910F91FF90EF90089582E048E050E00E9424080895FC011682178210861186D5
:2010A0001286138614823496BF010E9445080895DC01683810F0685829C0E62FF0E067FFE2
:2010C00013C0E058F04081E090E002C0880F991FEA95E2F7809514962C911497282314967F
:2010E0002C93149760E012C0EB5AFD4F6491662319F420E030E01DC067FF08C014968C9176
:2011000014978D7F14968C9314976F77FD0190E0662321F08681861709F416829F5F3196B8
:201120009630B1F7CD011496BD010E94450821E030E0C9010895CF93DF93DC01683810F053
:20114000685825C0E62FF0E067FF12C0E058F04081E090E002C0880F991FEA95E2F7149681
:201160002C911497282B14962C93149760E00FC0EB5AFD4F64916623D9F167FF08C01496E0
:201180008C911497826014968C9314976F7716968C9116978617A9F117968C911797861789
:2011A00081F118968C911897861759F119968C911997861731F11A968C911A97861709F10C
:2011C0001B968C911B978617E1F0ED01E0E0F0E09E2F8E81882321F4EA0FFB1F668306C045
:2011E0009F5F31962196E630F10591F7963049F481E090E013969C938E93129720E030E059
:2012000007C0CD011496BD010E94450821E030E0C901DF91CF91089580E867ED71E045E662
:2012200050E00E94CC030895FC0180818F5F808380E86CE372E049E150E00E94CC03089510
:20124000CF92DF92EF92FF920F931F93CF93DF937C016B018A01C0E0D0E00FC0D6016D911A
:201260006D01D701ED91FC910190F081E02DC7010995C80FD91F015010400115110571F7A4
:20128000CE01DF91CF911F910F91FF90EF90DF90CF900895EE0FFF1F0590F491E02D099407
:2012A000F894FFCF0D0000E100000000000001010000000029072009C806EF06D606510794
:2012C000550700000000F90720099B0858084B08FFFFFFFFFFFFFFFFFFFFFFFFFFFFFFFF43
:2012E000FFFFFFFFFFFFFFFFFFFFFFFFFFFFFFFFFFFFFFFFFFFFFFFFFFFFFFFFFFFFFFFF0E
:20130000FFFFFFFFFFFFFFFFFFFFFFFFFFFFFFFFFFFFFFFFFFFFFFFFFFFFFFFFFFFFFFFFED
:20132000FFFFFFFFFFFFFFFFFFFFFFFFFFFFFFFFFFFFFFFFFFFFFFFFFFFFFFFFFFFFFFFFCD
:20134000FFFFFFFFFFFFFFFFFFFFFFFFFFFFFFFFFFFFFFFFFFFFFFFFFFFFFFFFFFFFFFFFAD
:2070000055C000006EC000006CC000006AC0000068C0000066C0000064C0000062C0000043
:2070200060C000005EC00000EEC400005AC0000058C0000056C0000054C0000052C00000F2
:2070400050C0000078C000004CC000004AC0000048C0000046C0000044C0000042C00000BE
:2070600040C000003EC000003CC000003AC0000038C0000036C0000034C0000032C0000048
:2070800030C000002EC000002CC000002AC0000028C0000026C0000024C0000022C00000A8
:2070A00020C000001EC000001CC0000011241FBECFEFDAE0DEBFCDBF11E0A0E0B1E0EAE2B5
:2070C000FFE702C005900D92A83AB107D9F711E0A8EAB1E001C01D92AE3BB107E1F78FD30B
:2070E00022C78ECFF89410926F0010928100109285001092840081E085BF15BE47985D98F1
:2071000028980C94000008952091B2013091B3012F5F3F4F3093B3012093B201932F37FFA8
:2071200003C08EEF831B982F990F921710F447980895479A08951F920F920FB60F9211246E
:207140002F938F939F93EF93FF9310928500109284008091A8019091A901009741F00197D3
:207160009093A9018093A801892B09F45D988091AA019091AB01009741F001979093AB0128
:207180008093AA01892B09F42898E0E0F0E0859194918F5F9F4F49F08091AC019091AD0153
:2071A00001969093AD018093AC01FF91EF919F918F912F910F900FBE0F901F90189584E0BC
:2071C0008093E9000DC08091E8008B778093E80003C08EB3882351F08091E80082FFF9CFBE
:2071E0008091E80085FFEFCF8091F1000895982F83E08093E9008091E80085FD0DC0809136
:20720000E8008E778093E80003C08EB3882369F08091E80080FFF9CF9093F1005D9A84E6C9
:2072200090E09093A9018093A80108954F925F926F927F928F929F92AF92BF92CF92DF921E
:20724000EF92FF920F931F93CF93DF9384E08093E9008091E80082FF57C2289A84E690E065
:207260009093AB018093AA01AADF182F853481F48CE49DE19093AD018093AC0107B600FC4B
:20728000FDCFF999FECF81E180935700E89503C0843519F494DF8DE00DC28C34E1F38035F9
:2072A000D1F3843721F484E4A2DF80E003C2813611F489E5FFC18134B1F481DF182F7FDFE3
:2072C00090E0880F991FAA2797FDA095BA2F312F330F20E0442737FD4095542F822B932B68
:2072E000A42BB52BB8C1803711F483E5E3C1833549F4C0E0D1E089917ADF21E0C730D20714
:20730000D1F7D9C1863521F481E371DF80E3D2C1833731F487E86BDF85E969DF8EE1CAC149
:207320008536B9F4E0E0F0E093E085E090935700E89507B600FCFDCF80935700E89507B65D
:2073400000FCFDCFE058FF4FA0E7E030FA0771F7A2CF823739F4E1E0F0E089E08093570024
:207360008491A8C1863439F4E0E0F0E089E08093570084919FC18E3439F4E3E0F0E089E0E5
:2073800080935700849196C1813539F4E2E0F0E089E08093570084918DC1823631F489E521
:2073A00026DF80E024DF80E885C1823419F0873609F0E5C01092AD011092AC0100DF082FE8
:2073C000FEDEF82EFCDE682E8554823008F071C1902F80E0CF2DD0E0C82BD92B10926F00B3
:2073E000173609F04BC081E180935700E895DD24CC24C3943FC0E090AE01F090AF010091CC
:20740000B0011091B101B6E46B16D9F4ED2DF0E0EE29FF29E4918E2FEADEDD2081F082E08D
:2074200090E0A0E0B0E0E80EF91E0A1F1B1FE092AE01F092AF010093B0011093B101DC2470
:2074400018C0D801C701B695A7959795879555D5CEDE82E090E0A0E0B0E0E80EF91E0A1FF6
:207460001B1FE092AE01F092AF010093B0011093B1012197209709F0BECF7DC08090AE01F5
:207480009090AF01A090B001B090B10196E4691609F05DC083E0F40180935700E89507B63E
:2074A00000FCFDCF54C0F6E46F1661F5772031F1E090AE01F090AF010091B0011091B1019E
:2074C0007EDED82ECC24852D90E08C299D29F7010C0140925700E895112482E090E0A0E08B
:2074E000B0E0E80EF91E0A1F1B1FE092AE01F092AF010093B0011093B10102C060DE582E1A
:20750000742423C0E090AE01F090AF010091B0011091B10116950795F794E79450DE682FFA
:20752000C701F3D48091AE019091AF01A091B001B091B1010296A11DB11D8093AE0190934D
:20754000AF01A093B001B093B101219704C05524772444244394209709F0A5CF96E46916B6
:2075600041F485E0F40180935700E89507B600FCFDCF8DE03CDE82E080936F009CC0833492
:2075800071F40091AE011091AF0119DE90E021E0F8010C0120935700E89511247CCE8336C8
:2075A00019F5E090AE01F090AF010091B0011091B10105DEF701E16090E021E00C0120938C
:2075C0005700E895112482E090E0A0E0B0E0E80EF91E0A1F1B1FE092AE01F092AF0100936A
:2075E000B0011093B10157CE8D3661F4E091AE01F091AF0185E080935700E89507B600FCF2
:20760000FDCF49CE823551F4E091AE01F091AF0105911491812FEBDD802F4CC0843421F5FE
:20762000E090AE01F090AF010091B0011091B10116950795F794E794C2DD682FC70165D4E2
:207640008091AE019091AF01A091B001B091B1010296A11DB11D8093AE019093AF01A093D8
:20766000B001B093B10117CE843609F5E090AE01F090AF010091B0011091B101D801C70142
:20768000B695A7959795879538D4B1DD82E090E0A0E0B0E0E80EF91E0A1F1B1FE092AE010E
:2076A000F092AF010093B0011093B10104C08B3111F08FE39CDD83E08093E9009091E8002B
:2076C0008091E8008E778093E80095FF04C010C08EB38823C9F08091E80080FFF9CF809193
:2076E000E8008E778093E80003C08EB3882361F08091E80080FFF9CF84E08093E9008091F1
:20770000E8008B778093E800DF91CF911F910F91FF90EF90DF90CF90BF90AF909F908F90AC
:207720007F906F905F904F9008959091B601892F8F77813249F58091B7018032A1F081328A
:2077400019F5913A09F58091E800877F8093E8008DE091E067E070E007D28091E8008B770F
:207760008093E8000895913279F48091E800877F8093E8008DE091E067E070E059D2809196
:20778000E8008E778093E800089582E061EC42E0B1D083E061E842E1ADD084E060E842E1F7
:2077A000A9C084B7877F84BF88E10FB6F89480936000109260000FBE20E880E090E00FB643
:2077C000F89420936100809361000FBE81E085BF92E095BF3F9A209A559AE1E6F0E02083A1
:2077E000108247985D982898109289008AEF8093880090936F0083E080938100ECC040911E
:20780000000850910108109201081092000824B714BE88E10FB6F894809360001092600045
:207820000FBE822F90E0FC01E270F07021FD14C0213019F4859194910BC0283069F480918F
:20784000090190910A014817590731F0859194918F5F9F4F09F046DCA4DF78941092AD0101
:207860001092AC010CC0E2DC36D38091AC019091AD0181549F4110F01092140145DC8091FB
:207880001401882381F78091E00081608093E00029DC80E090E00895FA01923049F09330C0
:2078A00061F09130F9F485E191E022E130E01EC087E291E02EE330E019C0882329F485E6FA
:2078C00091E024E030E012C0813029F489E691E022E230E00BC0823029F48DE891E028E106
:2078E00030E004C080E090E020E030E091838083C90108958093E9008091EB00816080936A
:20790000EB001092ED006093EC004093ED008091EE00881F8827881F08958091B601882342
:207920008CF403C08EB38823B1F08091E80082FFF9CF8091E8008B778093E80008958EB361
:20794000882349F08091E80080FFF9CF8091E8008E778093E8000895EF92FF920F931F9307
:2079600045D04CD008ED10E0F80180818F77808380818068808380818F7D808319BC1EBA45
:207980001092B40180EEE82EF12CF70180818B7F8083F80180818160808380E060E042E049
:2079A000A9DFE1EEF0E080818E7F8083E2EEF0E0808181608083808188608083F701808125
:2079C0008E7F8083F8018081806180831F910F91FF90EF900895E7EDF0E080818160808335
:2079E0008AE482BF81E08093B501B6CFE8EDF0E080818E7F80831092E20008951092DA00D6
:207A00001092E10008951F920F920FB60F9211242F933F934F935F936F937F938F939F9389
:207A2000AF93BF93EF93FF938091DA0080FF1BC08091D80080FF17C08091DA008E7F80930F
:207A4000DA008091D90080FF0BC080E189BD82E189BD09B400FEFDCF81E08EBB3BD203C0C7
:207A600019BC1EBA37D28091E10080FF17C08091E20080FF13C08091E2008E7F8093E200CE
:207A80008091E20080618093E2008091D80080628093D80019BC85E08EBB1CD28091E10004
:207AA00084FF2CC08091E20084FF28C080E189BD82E189BD09B400FEFDCF8091D8008F7D2D
:207AC0008093D8008091E1008F7E8093E1008091E2008F7E8093E2008091E20081608093EC
:207AE000E2008091B401882331F48091E30087FD02C081E001C084E08EBBECD18091E10056
:207B000083FF21C08091E20083FF1DC08091E100877F8093E10082E08EBB1092B4018091B1
:207B2000E1008E7F8093E1008091E2008E7F8093E2008091E20080618093E20080E060E005
:207B400042E0D8DEC7D1FF91EF91BF91AF919F918F917F916F915F914F913F912F910F90B6
:207B60000FBE0F901F9018959C014091BC015091BD014617570718F4F90190E044C06115C8
:207B8000710511F0AB01F8CF8091E8008E778093E80040E050E0F0CF8EB3882309F444C006
:207BA000853009F443C08091E80083FF02C081E008958091E80082FD31C08091E80080FFF4
:207BC00022C08091F3009091F200782F60E0292F30E0262B372B07C081918093F10041503C
:207BE00050402F5F3F4F4115510519F02830310598F390E02830310509F491E08091E800A6
:207C00008E778093E8004115510531F6992321F605C08EB3882341F0853041F08091E800FD
:207C200082FFF7CF80E0089582E0089583E008959C016115710529F48091E8008B7780934D
:207C4000E800F90126C08EB3882391F1853091F18091E80083FF02C081E008958091E80083
:207C600082FFF1CF06C08091F10081936150704059F02091F3008091F200322F20E090E0C5
:207C8000822B932B892B79F78091E8008B778093E80061157105B9F605C08EB3882341F0E2
:207CA000853041F08091E80080FFF7CF80E0089582E0089583E008950F931F93DF93CF937C
:207CC00000D0CDB7DEB7E6EBF1E08091F100819381E0EE3BF807C9F728DD8091E80083FF3A
:207CE000E4C08091B6019091B701953009F46DC0963040F4913081F1913070F0933009F046
:207D0000D4C02AC0983009F4A3C0993009F4B2C0963009F0CAC07CC0803809F4C6C082380B
:207D200009F0C3C08091BA0187708093E9008091EB001092E9002091E800277F2093E800A7
:207D400090E025E0969587952A95E1F781708093F1001092F10087C0882319F0823009F0A2
:207D6000A4C08F71823009F0A0C08091B801882331F52091BA01277009F497C02093E90006
:207D80008091EB0080FF1BC0933021F48091EB00806213C08091EB0080618093EB0081E0C8
:207DA00090E002C0880F991F2A95E2F78093EA001092EA008091EB0088608093EB0010929D
:207DC000E9008091E800877F51C0882309F06DC01091B8011F770FB7F8948091E800877F98
:207DE0008093E8009ADD8091E80080FFFCCF8091E3008078812B8093E30080688093E30062
:207E0000112311F482E001C083E08EBB0FBF4DC08058823008F049C08091B8019091B9014F
:207E20006091BA01AE014F5F5F4F36DDBC01009709F43BC08091E800877F8093E800898128
:207E40009A8192DE8091E8008B778093E8002DC0803859F58091E800877F8093E8008091A3
:207E6000B4018093F1008091E8008E778093E80054DD1BC08823C9F49091B8019230A8F4A4
:207E80008091E800877F8093E8009093B40145DD8091B401882331F48091E30087FD02C01E
:207EA00081E001C084E08EBB70DC8091E80083FF0AC08091EB0080628093EB008091E8008D
:207EC000877F8093E8000F900F90CF91DF911F910F91089508951F938EB3882361F0109179
:207EE000E9001092E9008091E80083FF01C0E4DE17701093E9001F910895F999FECF92BD02
:207F000081BDF89A992780B50895262FF999FECF1FBA92BD81BD20BD0FB6F894FA9AF99A90
:207F20000FBE01960895F894FFCF4341544552494E4100777700080000000000000801128E
:207F4000011001020000084123370001000201000109023E00020100803209040000010257
:207F60000201000524001001042402040524060001070582030800FF09040100020A0000B4
:207F8000000705040210000107058302100001040309042203410072006400750069006E80
:207FA000006F0020004D006900630072006F00200020002000000018034100720064007531
:127FC0000069006E006F0020004C004C0043000000006E
:00000001FF
