:0200000480007A
:10000000E08F100000000000000000000000000071
:1000100000000000000000000000000000000000E0
:1000200000000000000000000000000000000000D0
:1000300000000000000000000000000000000000C0
:1000400000000000000000000000000000000000B0
:08200000481F0000800026309B
:10200800D40148D8E3B80001D553FE6A100030194E
:102018007508F1D9D202F5480040F01F0008F01FFA
:102028000008D503E06CF980EA1C0337F01F0005AF
:10203800D8020000800032008000259880002B68BC
:10204800800026D4EBCD40FC169518961492129B6E
:10205800580AE08A003B0B893008F0091800C520AF
:102068003009129A2FF9EA090708F4081800CFB1C5
:102078001232E08900493002EDBB0001C26133032E
:10208800EDBB0000C2613004C0A85806C3806C09CB
:10209800B28C6C082FF88D082FF52FF40B8C580C88
:1020A800CF515802E08A000F04975806C2406C09C5
:1020B800B2836C082FF88D0820175807FE99FFF790
:1020C8000404089CE3CD80FC3203EDBB0000CDC0C6
:1020D8005802FE9AFFDA04975806C1706C09B28359
:1020E8006C082FF88D0820175807FE99FFF70494FD
:1020F8003002CD5B069CF01F0007CDFBF01F0005EA
:10210800CCCB30091212CB9B069CF01F0002CECB21
:1021180080002680EBCD40FC203DFACEFFD81497F6
:102128007C037C1A10941892169E580BC4405809C8
:102138005F1858A75F091268C34130063008FB686A
:10214800000B580EC430F4CC003AFAC9FFF5FC076E
:102158000D0A16985898F1DCE9082D0812F8149E13
:10216800580ACF6112955806C0C10C970699089A6B
:102178000A9B049CF01F001A0E0C2FDDE3CD80FC97
:102188005804C140EDB30001C1115802C230640ABD
:1021980032D9B48964082FF8850820143017CE7B0B
:1021A800580BCCC45C3E3016CCAB129532D83007F5
:1021B8000AF8CDDB109A3308BA9B0699BA881A9B9D
:1021C800F01F00072FDDE3CD80FCFAC9FFF512955B
:1021D800CCBB32DCF01F0003CE1B00008000204C7B
:1021E80080002680D431201D189516971496178CD8
:1021F800580CE08000B43004325132D033033092AE
:10220800E20C1800C1705805C6E06A09B28C6A0869
:102218002FF88B082FF42FF70F8C580CCF21580567
:10222800EBF91000F9B80100F3F81E00089C2FFD27
:10223800D8322FF70F8A580ACF30E20A1800C500A3
:10224800E00A1800F9BC0100F7B700FFF9BC00016B
:10225800EFFA0800C0482FF7A1BC0F8AE60A180059
:10226800CFB0F4C80030E4081800E08B0063300BEE
:10227800F60B0028F40800182FF7F0CB00300F8A6F
:10228800F4C80030E4081800FE98FFF43738F00A64
:102298001800C2C03648F00A1800C3403708F00AD0
:1022A8001800C3E03788F00A1800C4503588F00ACF
:1022B8001800C4903758F00A1800C4803638F00A5D
:1022C8001800CAA16C08BA8830081899169ABA98E2
:1022D8001A9B0A9C2FC6F01F00231804C9DB325C26
:1022E8005805C941F01F0020C96B0D081899169AA6
:1022F8000A9C49EB5808F00B1710F01F001A180435
:10230800C8BB361916981AD930AA1ADC30196C0BC2
:102318000A9C2FC6F01F00162FED1804C7DB3619CC
:10232800308A1AD916981ADA30096C0B310ACF1B81
:10233800300BCADB169836191AD9310A1ADC30095B
:102348006C0BCE7B16983419CF8B361916981AD980
:1023580030AA1ADC30096C0BCDCB1894C61B0000D0
:102368008000204C80002680800034008000211CE2
:10237800D401189BFACAFFFC300CF01F0002D802E7
:10238800800021ECEBCD40E014951696A98CF01F47
:1023980000095805C0A03007F01F0007EC070B0C18
:1023A8002FF70E35FE9BFFFAF01F0004E3CD80E007
:1023B80080002E7C80002F3080002D14EBCD40E073
:1023C80014951696A98CF01F00095805C0A030076F
:1023D800EC07070C2FF7F01F00060E35FE9BFFFADF
:1023E800F01F0004E3CD80E080002D9C80002E20AB
:1023F80080002CC8EBCD4040204D49BCF8E80008CF
:10240800FAE90008F8EA0000498CFAEB0000304BC2
:10241800F01F00171A9BFE7C2800F01F00163009D9
:10242800FE7C2800129A129BF01F0013FE7C2800E5
:10243800F01F0012302CF01F00121A96204DECE805
:102448000008FAE90008ECEA0000E06CF980EA1CF0
:102458000337FAEB0000F01F000B2FCD2FCDE3CD93
:1024680080400000800034088000341880002C4030
:1024780080002874800028B480002A2480002C70F2
:1024880080002FF8EBCD40F8F01F0033F01F003329
:102498004B3CF01F0034F01F00343018F00C1800CB
:1024A800C5204B2CF01F002FE06701004B0C3006B5
:1024B800F01F002C4AF40E95C088E2675A4C0C179E
:1024C800E0470100EA0717B0E806000B0C9C0E9ADB
:1024D8000E06F01F0029E2465A4BFE98FFF0E0670F
:1024E80001004A6C3006F01F001F4A550E930E9AE1
:1024F8004A3B0C9CF01F0023E80600093008EA0854
:10250800070B138AF40B1800C1312FF82FF9103775
:10251800FE9BFFF70E06E2465A4BE08B0019E26776
:102528005A4C0C17E0470100E60717B0CE1BEC0821
:1025380000081ADA494C1ADB1AD8F01F000A2FDDF6
:10254800E3CF80F8491CF01F0007CAFB490CF01FB5
:102558000005CF7B80002008800023FC80028E6C61
:102568008000237880002FA480028E8480028E8CC5
:1025780080003420800023C480028EAC0000000854
:102588008000238C80028EC880028E7C80028EF4AC
:10259800EBCD4040303AE06B1B00EA1B00B7FE7CF5
:1025A8000C00F01F001A30083019109B308AFE7C8E
:1025B8000C0031061AD6F01F001630083019109B8F
:1025C800129AFE7C0C00F01F0013300BFE7C0C00EE
:1025D800F01F0011FE7C0C00F01F00103009FE7C7B
:1025E8000C001AD9129B1AD91298129AF01F000CD3
:1025F800301CF01F000C302BFE7C0C00F01F000A72
:102608002FDDE3CD8040000080002B0C80002AB035
:1026180080002AD280002AEA80002AF880002A6AEC
:1026280080002C8A80002B0248CD48D0E3B00001FE
:10263800D55348C048C10230C06248C2A505A1248C
:102648000230CFD348A048B10230C0623002300314
:10265800A1220230CFE3488F000100008000320041
:10266800000000080000000880028FC00000000879
:10267800000001E88000248CD401189BFE7C18001F
:10268800F01F0002D802000080002742EBCD404036
:10269800203D30083049FB680008BA383088500CB3
:1026A8001696BAC8302BBAD9486CF01F00070C9A96
:1026B8001A9BFE7C1800F01F00052FDDE3CD80403B
:1026C80080028F1C80002C40800027ACD401189B0E
:1026D800E06CE100F01F0002D802000080002694A0
:1026E800D401F6081503A56B143BF9BE0810F00BCE
:1026F80017B0F9BE0B08F6091601F20A0039F20BF9
:102708000D08109AF00B1603F6C80001E048FFFE0A
:10271800E08B00147818E8690000E418FFF7E01867
:10272800FECF590EF9B9000010499919F1DAC00322
:10273800F7E811089988D80ADA0A58ABC0F0E069B6
:10274800270F7858EDB80001C051F1DBC00999781E
:102758005EFD5809C1002019CF5BE069270F785842
:10276800EDB80001C04130D89978CEAB5809C030D7
:102778002019CF6B5EFEE1B80000EDB80010C0E094
:10278800D3033FF899387858D503300899189998A1
:1027980099A8EA69610C99095EFC3FF8993878585C
:1027A800CF5BD703D421169714951896F01F002EE7
:1027B8005807C2000FC93048F0091800E088001B0C
:1027C8003094E8091800E08B00160FD93078F0092A
:1027D8001800E08B00108E39E0680101F00919003B
:1027E800E08B0009EF3900083038F0091800E0885C
:1027F8000003DA2A0A9A6E0B0C9CF01F001C581C66
:10280800CF900FC9E8091800C2906C182059F1E957
:1028180010688D18EF3900086C1A0FD8A978F1E9FB
:1028280010E814488D1830288E39F0091900E0880E
:1028380000106C18ADB88D188EB920298DA96C18A8
:10284800E018FFF08D183509300C8D09D8226C1866
:102858005C79F1E910C88D18CF3B6C18B1B88D18A8
:10286800CDAB00008000277E800026E8D401301818
:10287800F739000DF0091800E0880005302E1C9C7F
:10288800D802E068008030199908300A7818F73BB8
:10289800000D149EF1D9D00130F9F1DBD081F1DAC5
:1028A800D0E1F1D9D20499181C9CD802EBCD408014
:1028B8003018149E1297F00A18005FBAF00B18002F
:1028C8005FB91449C0B17818F1DBD021F1DED041ED
:1028D800F1D7D3089918E3CF8080302CE3CD8080DE
:1028E800D4017818189EEA18000F9918781CE21C71
:1028F8000004C08030E8F00B1800E0880013302C8A
:10290800D8023038F00B1800FE9BFFFB7C1AF6C883
:10291800FFF03019F20809495CD914699D19D802E9
:102928007C19F6081510300CEA18FFF0E818FFFFBC
:1029380012689D18D802E0692710C0485809C0E0FD
:1029480020197848EDB80009CFA17818EA18000FC7
:102958009918FC19010099095EFD5EFFEBCD40FC5A
:1029680030321893F73C000CE40C1800E08B000997
:10297800F735000B3014E8051800E0880005302C06
:10298800E3CD80FCF73E00083078F00E1800FE9882
:10299800FFF83108F00E1800FE9BFFF37618F009D7
:1029A8001601F4090009F2080D06ECCA0001E04A14
:1029B80000FEFE9BFFE65806CE35FCC90008F80865
:1029C8001601300AEC1C0001F5D8D001178EF5DC91
:1029D800D021F7380009F5D5D061F5D9D084F73979
:1029E800000AF5D6D108F5D8D208F5D9D308E80EEB
:1029F8001800C0F0C0B33028F00E1800C0D0E40EA4
:102A08001800CBE187FAE3CF80FC87CAE3CF80FCCC
:102A180087DAE3CF80FC87EAE3CF80FC3018990897
:102A28005EFCE0692710C0485809C0A02019784802
:102A3800EDB80001CFA1F1DBC01099385EFD5EFF53
:102A4800E0692710C0485809C0C020197848E21822
:102A58000201E0480201CF817828300CB6085EFCFC
:102A68005EFFEBCD40E0FAC5FFF018976A166A0ED4
:102A7800EDD6C003FDDEC001300CF9D6D003F9DE77
:102A8800D0E1F9D6D103F9DED1E1F9DAD203F9DBE5
:102A9800D2E1F9D8D303F9D9D3E18F1C6F58EDB837
:102AA8000005CFD1E3CD80E0EBCD4040300E40268D
:102AB8002F8BFDD8D021FDD9D104FDDAD204FDD663
:102AC800D306F80B092EE3CD80402F8BF5E91019BA
:102AD800F3E81029F80B0328F1D9D043F80B09289B
:102AE8005EFC2F8BF80B0328A1A8F80B09285EFCC5
:102AF8007958EDB80000CFD15EFC7808F1DBD00240
:102B080099085EFCEC5BBB9FE08B0018304B78A803
:102B1800F1DBD00399A878A9F3DAD10399A9780849
:102B2800A3A899087958EDB80007CFD178083019CB
:102B3800F1D9D00299085EFCE068C6BFEA18002DFA
:102B4800103BE088000CE0681200EA18007A103B9D
:102B5800F9BB0306F9BB0207CDBB305BCD9BC008B0
:102B6800EBCD40C048E8E3B8000148E9300C7206F4
:102B780048DE48E9FE770800720B580BC070721ADD
:102B8800300814AE2FF81638CFD3EE0C09262F894B
:102B98002FFC594CCF21E3CD80C0000080003200CB
:102BA8008000333C80002B6680028F20E068008321
:102BB800FE790800F00C010CF20C032AF4C8FFC0DF
:102BC800F208032C580C5E0CF80812004859F0085B
:102BD800111FF20A0039721AF408032C5EFC000077
:102BE80080028F20F8081605F0091508E029F00082
:102BF800581BC150C0823018F00C094C936C93AC30
:102C0800932C5EFD582BC110583BC0205EFF301836
:102C1800F00C094C935C939C932C5EFDF60C094CCC
:102C2800935C93AC932C5EFD3018F00C094C936CBC
:102C3800939C932C5EFDD703D42118961694580BB9
:102C4800C0F030050A970D9B0D8C2FF72FE6F01F6B
:102C5800000618450E34FE9BFFF80A9CD8221695EC
:102C6800CFDB000080002BEC3018F00C0948A59C45
:102C7800A96CE02CF000F9480054F9480044991870
:102C88005EFCFE6914007208F1DCD0C193085EFC9A
:102C9800D401580BC091F8CBFFFEFE7C28005C5B8A
:102CA800F01F0006D802F8CBFFFEFE7C28005C5B14
:102CB800F01F0003D80200008000293E800028E8A9
:102CC800EBCD408048E76E0CF1DCC008C0D0300B7B
:102CD800FE7C2800F01F000B6E08F0CCFFFF8F0C65
:102CE800F1DCC008CF51F9DCC288300BF01F0006B8
:102CF80030194868B089E3CD80800000000001E009
:102D080080002A2A80002C98000001E4D401486839
:102D1800300B700CF9DCC288F01F000430094848F9
:102D2800B089D802000001E080002C98000001E47E
:102D3800EBCD40C0201D301B49366C0CF9DCC28835
:102D4800F01F0012E06B00D7FE7C2800F01F001077
:102D5800FAC7FFFEE06B00FFFE7C2800F01F000CA6
:102D68000E9BFE7C2800F01F000B9A98EDB8000718
:102D7800CF216C0C300BF9DCC288F01F00042FFD4A
:102D8800E3CD80C0000001E080002C9880002A2A52
:102D980080002A48EBCD40C0201D49B6A96C8D0C97
:102DA80049A730080F89F0091800C030F01F001833
:102DB80030086C0CAE88F9DCC288301BF01F001597
:102DC800E06B0082FE7C2800F01F00136C08F7D827
:102DD800C008F1D8C10CFAC6FFFCF7E8109BFE7CCE
:102DE80028000CDBB18BF01F000C0DABFE7C28001B
:102DF800F01F00090DBBFE7C2800F01F00072FFD07
:102E0800E3CF90C0000001E0000001E480002D380D
:102E180080002C9880002A2AEBCD40E049151896AE
:102E28000B893008F0091800C16148F70C9BFE7C3B
:102E38002800F01F000E6E08F0CCFFFF8F0CF7DCA7
:102E4800C008C071F9DCC288F01F00093018AA88D0
:102E5800E3CF90E048476E0CA98CF01F0006CE7BAC
:102E6800000001E4000001E080002A2A80002C987C
:102E780080002D9CEBCD40C0201D4A76A96C8D0C9E
:102E88004A6730080F89F0091800C030F01F002485
:102E980030086C0CAE88F9DCC288301BF01F0021AA
:102EA800E06B00D2FE7C2800F01F001F6C08F7D8EA
:102EB800C008F1D8C10CFAC6FFFCF7E8109BFE7CED
:102EC80028000CDBB18BF01F00180DABFE7C28002E
:102ED800F01F00150DBBFE7C2800F01F0013E06BEF
:102EE80000FFFE7C2800F01F0010E06B00FFFE7C56
:102EF8002800F01F000DE06B00FFFE7C2800F01F8B
:102F0800000AE06B00FFFE7C2800F01F00072FFD81
:102F1800E3CF90C0000001E0000001E480002D38FC
:102F280080002C9880002A2AEBCD40C0201D4966DD
:102F380030090D88F2081800C1F14947E06B00FF1D
:102F4800FE7C2800F01F0012FACBFFFEFE7C280052
:102F5800F01F00106E08F0CCFFFF8F0CF7DCC008E4
:102F6800C071F9DCC288F01F000C3018AC881BBC9B
:102F78002FFDE3CD80C04857AC896E0CA98CF01F9B
:102F88000007CDDB000001E4000001E080002A2AF0
:102F980080002A4880002C9880002E7CEBCD404091
:102FA800201D3008FAC6FFFC301B0CE8300CF01F5F
:102FB800000EE06B00D7FE7C2800F01F000CE06BD1
:102FC80000FFFE7C2800F01F00090C9BFE7C2800F7
:102FD800F01F0007300B169CF01F00032FFDE3CFF6
:102FE8009040000080002C9880002A2A80002A48FF
:102FF800EBCD40E03028FAC7FFF01896AE88109560
:10300800C028AE880C9A0E9BFE7C2800F01F000892
:10301800C0C10F882FF85C58EA081800FE98FFF323
:103028004848B08CE3CF90E0E3CF80E0800029648B
:04303800000001E4AF
:10320000C0080000C0080000C0080000C00800009E
:10321000C0080000C0080000C0080000C00800008E
:10322000C0080000C0080000C0080000C00800007E
:10323000C0080000C0080000C0080000C00800006E
:10324000C0080000C00800000000000000000000EE
:10325000C0080000000000000000000000000000A6
:10326000C008000000000000000000000000000096
:10327000C008000000000000000000000000000086
:10328000000000000000000000000000000000003E
:10329000000000000000000000000000000000002E
:1032A000000000000000000000000000000000001E
:1032B000000000000000000000000000000000000E
:1032C00000000000000000000000000000000000FE
:1032D00000000000000000000000000000000000EE
:1032E00000000000000000000000000000000000DE
:1032F00000000000000000000000000000000000CE
:10330000C0080000300CF01F0012580CF80F171006
:10331000D603301CF01F000E580CF80F1710D60300
:10332000302CF01F000B580CF80F1710D603303C50
:10333000F01F0007580CF80F1710D6030000010407
:103340004000011280000120C000012E80002BB43B
:10335000000000000000000000000000000000006D
:10336000000000000000000000000000000000005D
:10337000000000000000000000000000000000004D
:10338000000000000000000000000000000000003D
:10339000000000000000000000000000000000002D
:1033A000000000000000000000000000000000001D
:1033B000000000000000000000000000000000000D
:1033C00000000000000000000000000000000000FD
:1033D00000000000000000000000000000000000ED
:1033E00000000000000000000000000000000000DD
:1033F00000000000000000000000000000000000CD
:10340000286E756C6C2900000200000000B71B00DC
:1034100008000001000100000F011101100113015B
:103420001061040000000000300000001061040082
:103430003861040000000000020000002061040068
:10344000306104000000000004000000306104004E
:1034500000000000000000000000000010610400F7
:103460003C0000000000EEEEEEEE18F09FE518F0D4
:103470009FE518F09FE518F09FE50000A0E118F027
:103480009FE518F09FE544000000B4080000B40870
:103490000000B4080000B408000000000000E408C8
:1034A00000003C003C00000000090000000000009B
:1034B00000000FE11F00C0E3130080E3C00080E3C1
:1034C00000F02FE11CF09FE53D0200EB5A0200EBFB
:1034D0008D0200EB01008FE210FF2FE141F0DEFBD7
:1034E00001F0DCFD3C0078000000FEE700005C001D
:1034F00000007847C046010000EA7847C046170040
:1035000000EA8C119FE5002091E500300FE1841165
:103510009FE5FD20A1E880019FE580219FE5012036
:1035200042E00D0040E03C00B4000000020050E129
:10353000280000AA68019FE50D0050E1020000BAD2
:10354000042010E4042081E4FAFFFFEA58119FE50B
:1035500058019FE5000081E53C119FE550019FE582
:10356000000081E51EFF2FE13C00F0000000481143
:103570009FE5000091E524119FE5000081E52C11F5
:103580009FE538019FE5000081E51EFF2FE17402F1
:1035900000EB10019FE528119FE5042091E4042031
:1035A00000E404219FE5020051E13C002C010000F1
:1035B000FAFFFF1AF0109FE5FD20B1E803F02FE1BC
:1035C000E0109FE5002081E5E8109FE5F4209FE5ED
:1035D000002081E5021080E2000020E0010040E2CE
:1035E00011FF2FE101008FE210FF2FE13C00680185
:1035F000000001F09CF87847000001008FE210FF06
:103600002FE101F094F87847000003002DE9001045
:103610000FE1001080E5B8109FE5041080E5001070
:10362000A0E1100080E2FC1FA0E80020A0E13C0027
:10363000A40100000130A0E10300BDE8080083E51B
:103640000C1083E5D300A0E300F021E10060A2E8C4
:1036500000104FE1041082E4D200A0E300F021E169
:103660000060A2E800104FE1041082E4D100A0E362
:103670003C00E001000000F021E1007FA2E8001022
:103680004FE1041082E4D700A0E300F021E10060E4
:10369000A2E800104FE1041082E4DB00A0E300F098
:1036A00021E10060A2E800104FE1001082E5000077
:1036B00093E53C001C02000000F02FE11EFF2FE10B
:1036C000200000000403000020EE0100D8030000E9
:1036D0000000000018F09FE5100100000803000042
:1036E000EEEEEEEE2403000020020000B0B5041C54
:1036F000631C0B4D3C005802000001D16C6910E0C6
:1037000000F06CFB0948FFF70CFFEC60084A5168B9
:1037100050688842FCD00220287001218A2001F0E4
:1037200012F8201CB0BD3000070051020000000359
:103730000700B0B5051C3C0094020000002400F016
:1037400050FB1448FFF7F0FE13491448C1600121F3
:10375000134A490391601349CA7808239A43CA70EF
:10376000CA7804231A43CA706B1C0DD00E4B5A68DA
:1037700059689142FCD0BE213C00D0020000197370
:10378000197A112291431972197AC907FCD40221BE
:103790000170FFF7D0FE201CB0BD91020000FFFFBA
:1037A000FF003000070000100700000007000003C2
:1037B000070000000000000000003C000C030000B7
:1037C00000000000000000000000000000000000F9
:1037D00000000000000000000000000000000000E9
:1037E00000000000000000000000000000000000D9
:1037F0000000000000000000000000003C00480342
:1038000000000000000000000000000000000000B8
:1038100000000000000000000000000000000000A8
:103820000000000000000000000000000000000098
:1038300000000000000000000000000000003C004C
:1038400084030000000000000000000000000000F1
:103850000000000000000000000000000000000068
:103860000000000000000000000000000000000058
:103870000000000000000000000000000000000048
:103880003C00C00300000000000000000000000039
:1038900000000000000000000000000000000047E1
:1038A000084710471847204728473047384710B582
:1038B000041C101C00F023F903C410BC08BC1847FA
:1038C00000003C00FC03000010B4042A0ED3031CCB
:1038D0000B439B070AD108C810C9A34202D1043A7E
:1038E000042AF8D2A34201D004380439002A02D1B4
:1038F000002010BC7047D30701D5013205E00378E2
:103900000C7801313C00380400000130A34207D19B
:1039100003780C7801310130A34201D1023AF1D190
:10392000181BE9E70000784700000020A0E304002E
:1039300051E30800003A03C010E20D00000A04C081
:103940006CE202005CE33C00740400000120C0E46F
:103950000120C0A40120C0C40C1041E0060000EA10
:1039600081CFB0E10120C0240120C0240120C04447
:103970001EFF2FE1784700000020A0E300402DE962
:103980000230A0E102C0A0E13C00B004000002E06F
:10399000A0E1201051E20C50A0280C50A0282010CB
:1039A0005122FBFFFF2A011EB0E10C50A0280C00A1
:1039B000A0480040BDE80111B0E1042080241EFFB2
:1039C0002F010120C0440120C0443C00EC04000051
:1039D000400411E30120C0141EFF2FE178470000CE
:1039E000030052E33E00009A03C010E20800000A00
:1039F0000130D1E402005CE30C2082E001C0D194EC
:103A00000130C0E40130D134042042E23C002805FA
:103A1000000001C0C0940130C034033011E21E0028
:103A2000000A042052E22F00003A03C031E70200EE
:103A300053E30800000A0F00008A2C34A0E104C000
:103A4000B1E5042052E20C3C83E1043080E43C0008
:103A500064050000F9FFFF2A011081E2230000EA5B
:103A60002C38A0E104C0B1E5042052E20C3883E117
:103A7000043080E4F9FFFF2A021081E21B0000EA13
:103A80002C3CA0E104C0B1E5042052E20C3483E1F7
:103A90003C00A0050000043080E4F9FFFF2A031079
:103AA00081E2130000EA7847000010402DE9202051
:103AB00052E20500003A1850B1281850A0281850BA
:103AC000B1281850A02820205222F9FFFF2A02CE48
:103AD000B0E13C00DC0500001850B1281850A028C7
:103AE0001800B1481800A0481040BDE802CFB0E16E
:103AF00004309124043080241EFF2F01822FB0E176
:103B00000120D1440130D12401C0D1240120C0447E
:103B10000130C0243C001806000001C0C0241EFF74
:103B20002FE178470000FF3001E20210A0E10324FA
:103B300083E1022882E188FFFFEA784700008024C1
:103B400010E200006042413032E000106122A1C169
:103B500070E02000003A3C005406000021C470E0F0
:103B60000F00003A0004A0E1FF2482E321C270E0CC
:103B70001700003A21C470E00900003A0004A0E1F7
:103B8000FF2882E321C470E00004A021FF2C8223DF
:103B900021C270E00E00003A3C009006000000C018
:103BA00070E28300002A2004A021A1C370E08013EA
:103BB00041200220A2E021C370E000134120022036
:103BC000A2E0A1C270E0801241200220A2E021C246
:103BD00070E0001241200220A2E03C00CC06000070
:103BE000A1C170E0801141200220A2E021C170E05B
:103BF000001141200220A2E0A1C070E0801041200D
:103C00000220A2E001C070E0001041200220B2E0DA
:103C1000E5FFFF2AC30F32E0A30F80E03C00080756
:103C20000000001061221EFF2FE1784700000020F5
:103C3000A0E3A1C170E02000003A21C470E00F00B1
:103C4000003A0004A0E1FF2482E321C270E01700E3
:103C5000003A21C470E00900003A0004A0E13C00F1
:103C600044070000FF2882E321C470E00004A02183
:103C7000FF2C822321C270E00E00003A00C070E2E7
:103C80005000002A2004A021A1C370E0801341202D
:103C90000220A2E021C370E0001341200220A2E034
:103CA0003C0080070000A1C270E080124120022089
:103CB000A2E021C270E0001241200220A2E0A1C1D6
:103CC00070E0801141200220A2E021C170E00011CB
:103CD00041200220A2E0A1C070E08010412002201B
:103CE000A2E03C00BC07000001C070E000104120D1
:103CF0000220B2E0E5FFFF2A0200A0E11EFF2FE153
:103D0000784700000A1040E2200140E0200280E0F5
:103D1000200480E0200880E0A001A0E1002180E0F4
:103D2000821051E03C00F8070000010080520A10A8
:103D300081421EFF2FE130B4441C810708D0017876
:103D40000130002902D1001B30BC70478107F6D139
:103D50000B4AD50102C88B1A8B432B40FAD0001BAB
:103D60000A0601D103383C0034080000EFE70A04DA
:103D7000120E01D10238EAE70902090EE7D1013833
:103D8000E5E7000001010101F0B4031C041C0C4331
:103D9000A4070CD1104DEF0102E00431043A10C326
:103DA000042A04D30C68661B3C0070080000A6437C
:103DB0003E40F5D0002A07D00C7801311C70013349
:103DC000002C03D0013AF7D1F0BC7047012AFBD98F
:103DD000511E00221A7001330139FBD1F4E70101B1
:103DE0000101784700000200A0E33C00AC0800009D
:103DF0000210A0E32EFEFFEA1F402DE900000FE1B4
:103E0000C00080E300F02FE18100A0E30210A0E3F6
:103E100001208FE212FF2FE100F0E6FC784700005E
:103E20001F40BDE8FEFFFFEA1F502DE93C00E808F7
:103E3000000001008FE210FF2FE100F040FB784707
:103E400000001F50BDE804F05EE21F502DE90100A4
:103E50008FE210FF2FE100F018FB784700001F50A1
:103E6000BDE804F05EE200BD01B500A000473C00E3
:103E70002409000000300FE1C030C3E303F021E16A
:103E800001008FE210FF2FE101BD01B500A0004746
:103E900000300FE1C03083E303F021E101008FE245
:103EA00010FF2FE101BD000018009FE5041090E411
:103EB0003C0060090000000051E30200000A0420F9
:103EC00090E4002081E5F9FFFFEA0EF0A0E17C0913
:103ED0000000000000004400000044000000D8037F
:103EE0000000D8030000D80300000000000000001C
:103EF00000003C009C090000440000004400000059
:103F0000440000000080010000800100108E0100CC
:103F1000108E010088F8010001000000001004006C
:103F2000C433040000000400000000000E50A0E1B3
:103F300058409FE53C00D8090000040094E40100CB
:103F400050E305F0A001041094E4042094E403007D
:103F500000EB040094E4041094E4070000EBF5FF88
:103F6000FFEA010050E10EF0A001020051E104302F
:103F70009014043081143C00140A0000FBFFFF1A67
:103F80000EF0A0E114209FE5002092E5010050E131
:103F900004208014FCFFFF1A0EF0A0E1800900004D
:103FA000CC0900000008000020E60100130000001A
:103FB0005356435F000400003C00500A000020EE0E
:103FC0000100120000004952515F0002000020F27F
:103FD0000100110000004649515F8000000020F4FC
:103FE0000100170000004142545F00000000A0F4EF
:103FF00001001B000000554E445F3C008C0A00008D
:1040000000000000A0F401001F0000005553525FA3
:10401000010000000E50A0E100600FE18C409FE520
:10402000041094E4010051E30900000A040094E440
:10403000011080E00310C1E3042094E43C00C80AAE
:104040000000C02082E302F02FE104D041E204200E
:1040500094E4130000EBF2FFFFEA06F02FE105F015
:10406000A0E10E50A0E100600FE144409FE5041084
:1040700094E4010051E30800000A040094E43C00C9
:10408000040B0000011080E00310C1E3042094E45D
:10409000C02082E302F02FE104D041E2042094E446
:1040A000F3FFFFEA06F02FE105F0A0E1010050E187
:1040B00004208014FCFFFF1A0EF0A0E13C0A00006F
:1040C0003C00400B00000160C046C046C04670473F
:1040D0000000101E10EE020011E3FCFFFF1A100E8C
:1040E00001EE101E10EE020011E3FCFFFF1A1EFF8E
:1040F0002FE1101E10EE010011E30300000A101E54
:1041000011EE3C007C0B0000001080E50100A0E3F4
:104110001EFF2FE1000020E01EFF2FE18D46974695
:104120007847C04678FDFFEA10B5041C032801D982
:1041300000F0ACFB0C484068002800D003240B487A
:10414000016809483C00B80B00001230002905D076
:1041500006216143405CC300181804E00621614356
:10416000405C142358430A300006000E10BDD47A78
:104170000100A869010080B5094A0949032000F03F
:10418000F2F9084908203C00F40B00000860486080
:1041900007491D2001F0B2FC06491E2001F0AEFCCB
:1041A00080BD0000006C01003127000000100700F6
:1041B0002925000031250000054980B508208860C8
:1041C0001D2001F0BFFC1E203C00300C000001F05F
:1041D000BCFC80BD000000100700021C081CD12A96
:1041E00080B501D105F019FC80BD034980B50020E0
:1041F0000880052005F0D5FB80BDB074010080B5B6
:10420000542801D106F0CDF880BD3C006C0C0000B4
:10421000B0B5104D021C0124012A0D48296806D0B2
:10422000C42A03D16A68002A05D0AC60B0BD0EF084
:1042300089FB6C6008E00022AA606C600EF082FBD3
:104240000021042012F0C8FC06F0D8F83C00A80CAD
:104250000000B0BD0000C4600100BC740100054A4C
:104260005169081A116909681031814201D85061F9
:104270007047002070478C6E010001494968401A60
:1042800070478C6E010001484069704700003C0097
:10429000E40C00008C6E0100024A5169081850615C
:1042A000704700008C6E01000E490F4810B51922AE
:1042B000920141608918C1600B4900220C310160F4
:1042C0000A49826009680123DB03C918084C41616F
:1042D0003C00200D00002168002902D0074901613F
:1042E00001E000F00CF8226010BD44DC01008C6E8F
:1042F0000100C809000034580100C4090000014849
:10430000024908617047C80900008C6E0100082846
:1043100005D23C005C0D0000034B8000195002499F
:1043200020310A5070470000646D010070B5061C12
:104330000D480D1C0068141C002803D1201C00F03F
:1043400009FC70BD280601D500F022FE221C291CA4
:10435000301C08F03C00980D0000DDFD011C0348F6
:1043600054304369321CFFF71BFB70BD0000506DD9
:104370000100F8B5061C0D481F1C0068151C0C1C1C
:10438000002802D1281C00F0E8FB200601D500F02F
:1043900002FE2A1C211C3C00D40D0000301C08F039
:1043A000BDFD011C0348543043693A1CFFF7FBFA7A
:1043B000F8BD0000506D0100F8B5F1284ED12A4833
:1043C00069468269FFF7EEFA274900265439C86822
:1043D0008B68C2000130D5183C00100E0000072881
:1043E000C86000D1CE6022486C680068002803D005
:1043F0000021201C08F03BFB6E6025682089A9780D
:104400000239401AE978401A2081A8782818023821
:1044100020606E782878082817D23C004C0E0000E7
:10442000300607D5271C201C00F07AFC041C381C21
:1044300000F09CFB28780F49403980000A58002A78
:1044400004D0311C201CFFF7B3FA08E0052100E07E
:104450000421062000F010FA201C00F03C00880E19
:10446000000087FB300601D500F0A1FDF8BD012159
:10447000062000F004FAF9E70000A46D0100CC5C0E
:104480000100F8B51A4D194F01245435291C032099
:104490007C60174B184A05F0F4FB002802D03C0062
:1044A000C40E0000002038601FE03C600721281C7B
:1044B000EA69FFF783FA382000F080FC0024B86036
:1044C000B868E60035186846022100F075FB2860E0
:1044D000281C00F0A5FDB868815906485430026ACE
:1044E0003C00000F0000FFF76CFA0134072CEADBF8
:1044F0000020F8603861F8BD0000506D0100819A1D
:104500000000619A0000054880B50068002805D0C9
:1045100003485430426A0021FFF753FA80BD506DC2
:1045200001003C003C0F00007047000070B50A4ECF
:10453000094D084C083EA169002907D03068416048
:10454000007B81006958FFF73EFAF4E70349022037
:10455000087070BD00100700E07E01000002070037
:1045600070B50A4E3C00780F0000094D084C083E1B
:10457000E169002907D070684160007B81006958BB
:10458000FFF724FAF4E703490220087070BD001019
:104590000700E07E010000020700B0B5094D041CD1
:1045A000281C202240303C00B40F00000549FFF7D2
:1045B0009FFAE068E86020692861A06AA8626068E4
:1045C0006860B0BD7052010000100700F8B500240B
:1045D0000023202801DB012407E0084E8000355825
:1045E000074FBD4200D02B1C3C00F00F00003150A3
:1045F0001360002C03D0211C822000F052F9201CF3
:10460000F8BDE07E010075750000B0B50B4D041CCF
:10461000286800280FD0201C12F0B7FD00280AD00F
:10462000217A287A0A070007000F3C002C100000AE
:10463000120F9042297201D00120B0BD0020B0BD00
:1046400070780100F0B5424E051C306885B0002836
:1046500063D000240020002D06D06978182903D1EA
:10466000E979012900D10120002845D03C006810DB
:1046700000000020B07281004A19937A5906890F10
:10468000DB0604D5B37A01278F403B43B372D27A5D
:1046900013091207120F934205D301228A401443D3
:1046A00001AA8900505001300428E4DBB07A3C00B4
:1046B000A4100000204001070DD5410709D5C1070E
:1046C00005D5810701D5002405E0029902E0019992
:1046D00000E003990491410709D5C10705D5810779
:1046E00001D5002403E0029900E001990391C1077C
:1046F0003C00E010000005D5810701D5002401E051
:1047000002990191800701D5002422E00F2C20D1CD
:10471000706800280BD0049A02AB00920ACB019A71
:10472000281C0BF08AFB0020706010E017E0307A44
:10473000297A3C001C11000000070907090F000F2F
:10474000884207D0049A02AB00920ACB019A281C37
:104750000BF076FB287A307201200F2C00D000205D
:1047600005B0F0BD0120FBE7707801000D4A70B57F
:10477000116800203C005811000000290ED0117A69
:1047800009060BD5537A947A032101252A1C8A4005
:104790001E1C164003D0224001D1012070BDFF3104
:1047A00009060916F2D570BD00007078010010B539
:1047B000084C206800283C009411000004D0606878
:1047C000002801D10BF0C0FB00200021002207C40B
:1047D0000C3C0120606010BD70780100014901208F
:1047E0000860704770780100F8B50E4D041C002079
:1047F0006872201C12F0DEFC3C00D0110000002882
:1048000012D00020032101220F1A161C237ABE4069
:10481000334004D06B7A161C864033436B720130F0
:104820000006000E0328EFD9F8BD70780100920051
:1048300051188A7A1207120F02703C000C12000005
:10484000CA7A1207120F4270CA7A12098270097B63
:1048500081807047034A0F21527A0120914300D092
:10486000002070477078010040070549400F054A55
:104870000956527A01200A4000D100203C0048121B
:104880000000704700005E46010070780100124A87
:1048900070B5537A947AFF20032101252A1C8A409F
:1048A0001E1C164014D0224012D10806000E07D05C
:1048B000012807D0022807D0032807D107203C0091
:1048C0008412000070BD032070BD012070BD052062
:1048D00070BDFF2070BDFF3109060916E1D570BD1E
:1048E00070780100F8B5041C13480D1C816800297C
:1048F00005D0017B002901D104734573F8BD0F4E2B
:104900003C00C0120000311C20318A7900AB1A70C3
:10491000C97959704268002A07D020022843011C37
:104920000020FFF77EF8002804D12A1C211C00205B
:1049300011F00FF800AB1888F084E2E70000885A05
:1049400001003C00FC1200000010070080B50121AE
:104950008120FFF7CDFF80BD0149012088607047AD
:10496000885A0100054980B500208860087B00282E
:1049700002D0497BFFF7BCFF80BD0000885A0100D0
:10498000024A011C3C003813000050685160704717
:104990000000885A010010B50C1C07F064FA04618D
:1049A000002010BD0000FFB50E1C1F1C382081B078
:1049B00000F03DFA1D49041C4869002801D14C61F2
:1049C00000E0046030013C0074130000009000041B
:1049D000000C00F015FA051C0099FFF78BF8002079
:1049E000731E04E001014A1910326A5001309842E6
:1049F000F8D300012D503821201CFFF77BF8A5606B
:104A00006560E6850C2060863C00B0130000AF2096
:104A10008001E0610E20E086002020600198E060C7
:104A2000386860610399044808600448386005B03C
:104A30000020F0BD0000FC5A0100DD150100FD164C
:104A40000100021C081CF02A80B53C00EC13000099
:104A500004D0F12A07D106F009FB80BD07F00CFA5B
:104A60000DF0A8FA80BD01210220FFF74DFF80BDA7
:104A70000149002048617047FC5A0100002802D01B
:104A8000002900D0C1607047F8B5171C3C002814FD
:104A900000000E1C051C1C1C1C3007F0C8F8016926
:104AA000426980688919891A814206D2231C3A1CFE
:104AB000311C281C00F005F8F8BD0020386020608B
:104AC000FAE7FFB585B0059801270E1C1C303C00A5
:104AD0006414000007F0AEF8041C808804300390D2
:104AE0002C48049080790290A069B04217D2351A00
:104AF00011E00398FFF716FC002806D101218E2053
:104B0000FFF708FF0025002705E02168016020600D
:104B10003C00A0140000A0690130A061013DEBD26F
:104B2000002F35D0A069801BA06120698019206109
:104B30006169401AE168884203D907218E20FFF796
:104B4000ECFE25682F1C701E019500E03F680138BF
:104B5000FCD23C00DC140000386820600298049904
:104B600088712E682C60321D0092291C2031012290
:104B7000281D059B08F07AFCBD4201D0351CF0E7EA
:104B800000203861019807990430086008980437BC
:104B9000076009B03C0018150000F0BD02980499A8
:104BA0008871F9E700002010070038B5041C151CB7
:104BB00000200C6009E0E268201C0092A38A2168B2
:104BC000A26908F056FC201CE468002CF3D1286090
:104BD00038BD80B50CE03C0054150000C2688A4224
:104BE00008D10021C160002803D106218E20FFF7E3
:104BF0009DFE80BD101C0028F7D0EFE710B5041C07
:104C00000CD0A069002806D12069002803D006F046
:104C1000F7FD00202061201C3C009015000006F0EC
:104C2000F2FD10BD000010B5002809D0C46803E0F3
:104C3000FFF7E7FF201CF9E7002CF9D1FFF7E1FFB0
:104C400010BD011C002004E00A89C9681018000486
:104C5000000C0029F8D1704700003C00CC15000082
:104C600000E0081CC1680029FBD17047F8B5061C9C
:104C70000C1C1C2000F068FA051C002E01D1002C31
:104C800002D1301C012103E0201C00F05DFA00215C
:104C9000002200920A1C011C231C281C3C00081640
:104CA000000008F0F2FB281CF8BDB0B503329208F2
:104CB00092001404240C09191D1CC9180904090CBC
:104CC000FFF7D7FF018902681219091B491B02600F
:104CD0000181B0BD0000F8B50A4CA021201C3C00A9
:104CE00044160000FEF72AFF0020261CA036074DC0
:104CF00007E00C21414349190EC9271D0EC7203476
:104D00000130A642F5D1F8BDD05C0100C83F0100DA
:104D1000F7B5C468061C0025002C82B023D020897A
:104D20003C0080160000904220D3E168871A019170
:104D30000021E16003990020FFF7A1FF051C2089F5
:104D4000C01B20812A680399301C00F016F82089C6
:104D5000C01920810199201CFFF7B1FE211C281CDD
:104D6000FFF73C00BC160000ADFE291C301CFFF70D
:104D7000A9FE0120002D00D1002005B0F0BD0000EB
:104D8000F7B5041C0E1C002001E0201C0C1CE1687F
:104D90000029FAD12789B7420AD3B81B0004000CB6
:104DA000208121683C00F816000009180298321C86
:104DB000FEF7FBFEFEBDF11B0D042D0C002819D0E3
:104DC0000189A94216D3491B0904090C0181006815
:104DD000411802982A1CFEF7E8FE21680298721B0F
:104DE0004019FEF7E2FE3C00341700002089C01B8A
:104DF00020812068C0192060DFE703218E20FFF7A3
:104E0000ADFDDAE7F8B5041C002613E02189002087
:104E1000FFF73EFF051C228921680068FEF7C8FEE7
:104E2000002E01D12E1C03E03C0070170000291C4D
:104E3000381CFFF750FEE4682F1C002CE9D1301C11
:104E4000F8BDB0B5041C0089401A050420682D0C7B
:104E50004018291CFFF71FFF2189491B2181E168A8
:104E6000C160E060B0BD10B503303C00AC1700007D
:104E7000094A810810683D24084B6401890009181B
:104E80001B19994201D8116010BD0F218020FFF736
:104E90006BFD002010BD0000B4CF010014C801005C
:104EA00010B511F061FF041C03D10D213C00E8177F
:104EB00000008020FFF75BFD201C10BD0000B0B596
:104EC000011F0B680D480022834204D001321030CC
:104ED000032AF9D301E0032A06D30924211C8020E8
:104EE000FFF745FD201CB0BD054B00249A793C001E
:104EF0002418000085680D6081609A71F5E7000054
:104F00002057010020100700B0B50021104A0023EF
:104F1000D468844204D201331032032BF8D301E069
:104F2000032B01D304210EE00A4CA37990680028DA
:104F30003C006018000002D1A371032106E005685F
:104F40009560A371002901D104C0B0BD8020FFF796
:104F500014FD0020B0BD2057010020100700A03034
:104F6000008A4007400F08280FD201A31B5C5B009A
:104F70009F443C009C18000005030305070709092E
:104F800001207047002070470220704703207047BF
:104F900004207047B0B5104D6869002807D00E494D
:104FA00000222C3103C90143032006F0CFFF0B4C34
:104FB000002203CC3C00D8180000083C0143032029
:104FC00006F0AFFF03CC084307494A6802434A6032
:104FD0008A681043886001206861B0BD0000647376
:104FE0000100B058010010000700B0B50C1C0FF014
:104FF000A8FA054DE86A3C0014190000002806D103
:10500000002C04D0201C0FF0B7FD01202870B0BD8B
:10501000F46E0100054980B5886A002804DA002092
:10502000886201210DF042FD80BD0000AC7E0100D0
:10503000F8B51E4D041C00203C00501900006862A9
:10504000A8701C480078C00722D5B82003591A4818
:1050500000780E2809D10A1C803206D0184E0D2087
:10506000325C8A4201DD0138FAD1591E0B061B0E53
:10507000AB70AB620E280BD208E03C008C1900002C
:105080006218B032127B824202D8581AA86202E03B
:1050900001390029F4DA0EF035F9009000AB1878E8
:1050A0005978814200D95878ED30E8700121201CF0
:1050B0000DF002FDF8BD0000AC7E01003C00C819F7
:1050C00000001D75010011670100C75201000E4963
:1050D00010B508698B68C200D4186268002A0FD125
:1050E00001300861072801D100200861201C00F070
:1050F00024F8054821685430026AFEF7ECFC3C00B5
:10510000041A000010BD06210620FFF74BFC10BD5D
:10511000506D010008490979C907084A08D400E020
:10512000081CC1680029FBD101890431018100E01C
:105130000020D0627047000060800700046C01000E
:105140003C00401A000010B5041C19218901002000
:10515000FFF7C5FD011C60602068FFF7E0FC606898
:1051600021680830086010BD00000A2801DA042018
:1051700004E0502801DA052000E00720044A1178F5
:1051800038233C007C1A0000C000184099430843B3
:105190001070704788000700B0B5051C07484068CC
:1051A00008E00169A94204D1446805F0C7FD201C4C
:1051B00000E040680028F4D1B0BD0000587501003F
:1051C000F8B500253C00B81A000006F084FD114F28
:1051D000041CBE792068002807D1A0880430FFF79E
:1051E000F2F8002806D101210FE001682160A169D1
:1051F0000139A16110C0051C20690130206161697D
:10520000401AE16888423C00F41A000003D90721E3
:105210008E20FFF7D3FBBE71281CF8BD20100700BD
:10522000B0B509F0BBFF2F4C0028207403D001213A
:1052300001200AF071FC2B4D1435286800284DD050
:1052400001210F2011F082FD3C00301B0000288955
:1052500008F0FBFF011C01220F2011F040FDE07857
:105260000125022836D10AF0C6F800280AD00BF032
:1052700092FB1E490968401811F05FF8002801D11F
:1052800002202FE0E078022824D13C006C1B0000B3
:1052900060702570606801281CD015481038817B2B
:1052A000002904D185730F20134910F001FC08F088
:1052B0004FFE002807D00E4801219838006901F000
:1052C000B7FD002805D001200EF00CFD3C00A81B06
:1052D000000001200EF01DFCB0BD05F0DCFEB0BDED
:1052E000E078002801D12570F7E7032000E00420D2
:1052F0000DF08DFAB0BD846601006C570100E90322
:10530000010070B5041C002100200A4D00E03C00A3
:10531000E41B00000131CB005A191679012E02D08E
:105320005279A24202D00B29F4D370BD0B29FCD2D2
:10533000C80001215A192858117170BD3858010050
:10534000054880B5007F2423044958434018006A6B
:105350003C00201C0000FEF7DAFB80BD0000D47981
:1053600001009446010080B504F037FF002011F0E1
:1053700084FC002080BDB0B5054C051C206BE16AA3
:1053800002F0E3FD291CA06A02F011FBB0BDA46C81
:1053900001003C005C1C0000B0B5031C081C141C80
:1053A000002B0C4D09D06969890001310A04120CE7
:1053B0002280291CFEF73EFC0AE0011C281C2288E2
:1053C000FEF738FC2088012802D98008013868617E
:1053D0000120B0BD3C00981C0000206E0100F1B51A
:1053E00000980026C168086809891C2934D3C1883F
:1053F000FF23013399422FD10188C91A2CD141884A
:10540000082929D10179062926D14179042923D1F6
:1054100000250024071C3C00D41C000018370BE0BA
:10542000A000411804310422381CFEF78BFB002831
:1054300001D1012504E001340A494869A042EFD8AE
:105440000849087800280AD0012801D0022806D18E
:10545000002D04D10098C0683C00101D0000FFF72B
:1054600042FC0126301CF8BD0000206E01000148FE
:10547000406870470000206E01000249486001202A
:10548000486170470000206E010070B5041C0126C1
:1054900003F0EFFA251C103500283C004C1D0000DD
:1054A00004D00020207703F0F1FB07E003F038FD83
:1054B000002809D00120207703F0CEFC011C062231
:1054C000281CFEF7C3FB02E0022020770026301CD8
:1054D00070BD00000348807AC00703493C00881D66
:1054E0000000C00F88627047000040900700A46C65
:1054F00001000149012088627047A46C0100064840
:10550000807AC107064AC90F91622021800700D422
:105510000021A032117070470000409007003C004D
:10552000C41D0000A46C0100074A1268074B9B6968
:105530001A4001D0012200E000220A600121002A65
:1055400000D000210160704710000700A46C01002A
:10555000012202600A607047B0B50D1C011C583171
:105560003C00001E0000041C0622281DFEF777FBED
:10557000211C5E310622281C0A30FEF770FB211C1C
:1055800064310622281C1030FEF769FBB0BDFEB561
:1055900000251D72171C0E1CB26D0021921950328D
:1055A000D27A3C003C1E00001C1C5A720078321C4F
:1055B0008032C007C017013001900898029200287D
:1055C00001D1307F2BE037480068002800DD011C46
:1055D0000198002802D00898012810D1029A906BF7
:1055E000002806D03C00781E0000884201D9451AE8
:1055F000013D7019B03003E0B56D013D70195030B8
:10560000007B0FE0029A106A002807D0884201D977
:10561000451A013D7019A030007903E0BD69013DD4
:105620007819007FA0723C00B41E00000EF00CF848
:105630000E2811D1A07A08F067FF00280CD07868F6
:10564000002805D11B480025007808F04BFF02E038
:10565000451E7819007AA072029A5069002817D066
:105660000898012814D0A07A3C00F01E000008F031
:105670004EFF00280FD00198002807D0022020728A
:10568000706C80194030C079607204E07D68013D23
:105690007819007AA072029AA07A916908F051FFF5
:1056A0002060029A607A916908F03C002C1F00008B
:1056B0004BFF6060A07AE0722573FEBDD47E0100CE
:1056C000905701000006000E002A8CB501D08A22F6
:1056D00000E0882200AB1A800CF0C2F80190684606
:1056E0000BF0BCFA8CBD0000011C08483C00681F90
:1056F000000080B50068002809D049680220002910
:1057000000D101200106090E002006F0D8FF80BD5F
:105710000000206701001CB50190041C443001AA60
:10572000694611F0B8FD00280BD0A06900213C00AB
:10573000A41F0000C207D20F0220FFF7C9FF0021FB
:10574000201C0FF0D9FE1CBD04219820FFF772F930
:10575000F9E700008CB500AB84211980054B021CD1
:10576000181C998A0CF08EF8019068460BF07CFAB0
:105770003C00E01F00008CBD0000707C0100704701
:105780000000064980B5C96814234031897A044A6B
:105790005943891880000858FEF7E9F980BD707CEC
:1057A00001005447010080B50020FFF7D6FF80BDFF
:1057B00000003C001C20000080B512481149808A7E
:1057C0000A8B00210028C2B00CD1012A05D0022A80
:1057D00015D000AB5A800E2207E0022200AB5A809F
:1057E000998004E000AB5A800D2200AB9A8000AB98
:1057F0001880FF203C00582000009871D97168463D
:1058000000F0D1F942B080BD0000707C010010B5FD
:1058100009F05FFC002005F02AF9034CE08A05F04E
:1058200036F9201C0FF0B3FE10BD707C01001CB5D2
:1058300009F04FFC07203C009420000000AB074C0F
:105840001880E18A201C0CF00BF8019068460BF0E0
:1058500017FA201C0FF09EFE1CBD0000707C01009A
:1058600080B502219820FFF7F1F880BD10B5154CE6
:10587000C2B0A08A002803D03C00D020000001283C
:105880001ED1022000E00120E168403188722069C9
:1058900008F023FD021C0C4818388088E1680FF0DE
:1058A000A4FEA08A00AB18800120588000209880B8
:1058B000FF219971D871684600F03C000C2100006E
:1058C0007BF942B010BD03219820FFF7C5F8F8E737
:1058D000707C01007047000080B503480FF060FE47
:1058E000002005F0CDF880BD707C010080B5024835
:1058F0000FF056FE80BD0000707C01003C00482186
:10590000000080B502219820FFF7A9F880BD80B57E
:105910000320FFF734FF80BD0000F0B5214E0027C3
:10592000B18A301C002504240029008BC3B01ED18D
:10593000012807D0311C498B022812D100293C00D4
:105940008421000007D1002405E000240125022065
:1059500000ABD8801F810FF07FFF002C10D1F168C1
:105960000520403188720EE000291AD100ABD880A2
:105970000E2002E000ABD8800D2000AB188107E0BC
:105980003C00C0210000301C0FF013FE201CFFF76C
:10599000FCFE002D08D0B08A00AB9880FF209872E2
:1059A000DF7201A800F011F943B0F0BD0000707C77
:1059B000010010B5002005F06CF8044CE08A05F0F9
:1059C00078F83C00FC2100000FF04CFF201C0FF089
:1059D000F3FD10BD707C010080B50420FFF7D8FEF8
:1059E00001480FF0E9FD80BD707C010080B5022008
:1059F000FFF7CEFE012005F05FF802480FF0DCFD56
:105A000080BD00003C0038220000707C010080B5A1
:105A10000320FFF7C0FE80BD0000B0B51D4DC2B031
:105A2000288B00ABFF21588099710021D971AA8A77
:105A30000024012A18D12A1C528B02280FD1002AD7
:105A400016D1032058803C007422000099802C1C41
:105A5000FF22981DE969FEF73BF9E1680420403117
:105A6000887210E0002A06D101240E2001E00124F2
:105A70000D2000AB9880281C0FF0A4FD0420FFF738
:105A80008DFE002C05D0A88A3C00B022000000AB9F
:105A90001880684600F0A5F842B0B0BD0000707CE8
:105AA000010010B5002005F000F8034CE08A05F075
:105AB0000CF8201C0FF089FD10BD707C010080B532
:105AC0000420FFF76EFE01480FF03C00EC220000BE
:105AD0007FFD80BD707C010080B50220FFF764FE71
:105AE000012004F0F5FF02480FF072FD80BD0000B8
:105AF000707C010080B50320FFF756FE80BD0000DA
:105B0000B0B5194D0424A98A281C028B3C00282317
:105B10000000C2B0012914D1408B042A0BD1002807
:105B200000D100240FF0ADFE002C19D1E96805204A
:105B30004031887217E0002810D100AB5A800E2047
:105B400002E000AB5A800D2000AB988019803C0029
:105B500064230000FF2098710020D871684600F08F
:105B600049F842B0B0BD281C0FF038FD201CFFF7EB
:105B700021FEF6E7707C010010B5002004F09EFFC6
:105B8000034CE08A04F0AAFF201C0FF027FD10BD93
:105B90003C00A0230000707C010080B50420FFF7CA
:105BA0000CFE01480FF01DFD80BD707C010080B52A
:105BB0000220FFF702FE012004F093FF02480FF0DD
:105BC00010FD80BD0000707C0100B0B50A4D011CC5
:105BD00044313C00DC230000041C0622281CFEF794
:105BE00089F8EC60206903F097F8011C0622A818D8
:105BF000FEF780F80420FFF7F7FDB0BD707C0100D0
:105C000090B5041C808893B0002806D01549062260
:105C1000488018313C0018240000881FFEF76DF8FA
:105C200068460CF014F82088012808D16088032801
:105C300005D1A088002802D106200CA90870A079FF
:105C40000621FF2804D0E079002801D0011C08318A
:105C50000B2008AA50723C0054240000201C08F0BD
:105C60003BFF039068460BF031F813B090BD000085
:105C7000587C0100074B1A78824201D0002907D0D6
:105C8000FF201870044801880122520391430180CB
:105C9000704700004C7B01003C00902400003280E3
:105CA000070010B5041C0C2307495843401800791D
:105CB0000AF04FF901200349A04008390A7810433F
:105CC000087010BD0000747A0100034A00211154CD
:105CD000800030321058017070473C00CC24000026
:105CE000E07A010010B5041C052801D3FEF712FF6D
:105CF000201CFFF7EDFF0021201C0EF089FB10BDDA
:105D0000054980B58860087F242304495843085812
:105D1000FDF76CFF80BD0000D47901003C00082530
:105D200000009446010080B501219120FEF7C7FED6
:105D300080BD024A11688143116070470000786E8F
:105D4000010080B5FEF7E9FE80BD80B5FEF7E5FEF7
:105D500080BD80B500F031FA80BD034980B53C00BC
:105D6000442500000420886000F0D0F980BD0000C8
:105D70000030070080B500F099FA80BD80B500F0D2
:105D800099FB80BD38B5202815D20D4C221C20323D
:105D9000957900AB1D70D2795A700A4B82009950E8
:105DA0003C008025000001218140084801604268D4
:105DB0001143416000AB1888E08438BD0121FF2009
:105DC000FEF783FEF9E70010070030740100004081
:105DD0000700202809D20549064B82009950054A40
:105DE00051683C00BC250000012383409943516069
:105DF00070470000A97500003074010000400700E2
:105E0000024A11680843106070470000786E010074
:105E10000B48016803221204114301600168072244
:105E2000120691433C00F825000001225206891811
:105E300001600168120C11430160016852081143AE
:105E400001607047000080000700FEB51C4E051C75
:105E5000B08AF26812D00124002909D1116D02AA7A
:105E600001ABFEF7F8FE3C00342600000298002843
:105E700001D000240BE001AA02A9281CFEF770FF44
:105E800005E0116D02AA002401ABFEF701FF0E49E7
:105E9000081C2030827900AB1A70C07958703068C5
:105EA000002802D1029830603C007026000002E019
:105EB00002987268D060019800AB70601888C8843E
:105EC000F068C06CF060201CFEBD247E0100001054
:105ED0000700F8B5041C54271D4E00203060706088
:105EE00067433804151C000CB1823C00AC2600004E
:105EF000FFF796F8082130610026174A14E0031CCA
:105F0000243342610361C661018308330360B12316
:105F10004360031C6433C3600C230381031C5433AC
:105F20004C3028C0013C181C002CE8D13C00E8266D
:105F30000000094E07223069D243C1195050021C9B
:105F4000103280398A63F060B06000210020FFF7D2
:105F500088FF3069F060B060F8BD247E01009100D8
:105F600005000148406A70470000E87D01003C00E0
:105F7000242700000148008870470000FC6B0100E6
:105F8000064980B508880130088005490820086066
:105F900004498869886100F021F880BDFC6B01002C
:105FA0000010070000300700034A0120121D06CA36
:105FB0003C0060270000914200D100207047E87D3E
:105FC0000100064800B5C07C002803D1FFF7EFFFB1
:105FD000002801D0012000BD002000BD0000A080ED
:105FE000070010B5041C800702D506F03EFD03E053
:105FF000E0073C009C27000001D506F0E3FD6007A8
:1060000001D5FEF7ABFD10BD024A011C10681160FE
:1060100070470000E87D010038B5204D2C1C20346D
:10602000A07900AB1870E0795870FEF727FA00AB42
:106030001888E8843C00D82700001A488178082294
:1060400091438170817811438170174841688022A3
:1060500091434160016811430160002001306428D0
:10606000FCD3A0790F4D00AB1870E079104C58703C
:10607000201C103000F03C0014280000DFFB002042
:10608000C043A061FFF79CFF002809D00A490869B6
:106090000130086100203C318968486306F0EEFC5D
:1060A00000AB1888E88438BD001007000000070026
:1060B000F4000700003007003C0050280000E87D95
:1060C00001000A4880B5006A002801D0FEF7C1F936
:1060D000074807493C30806810304861012008615A
:1060E0000549086880229043086080BD0000E87D73
:1060F000010000300700F40007003C008C2800007D
:1061000080B50CF0CBFE06F0BFFC80BD0149C86233
:1061100070470000E87D0100024A916A08439062DE
:1061200070470000E87D01001823064958434018D5
:106130000021027903681A70013108303C00C82838
:1061400000000329F8D370470000285201000349DA
:10615000002800D0011C024881627047000085754C
:106160000000046C0100F8B5FFF733FF284F00284A
:1061700004D0FFF7C8FF386A01303862F86A3C0083
:1061800004290000002802D0018904390181386BFC
:106190000025002808D00B203D6310F0E5FA1E49C9
:1061A000086821229043086038783C211B4A41430B
:1061B0008C18FF22796A3A7000290CD0B969013134
:1061C0003C0040290000B9617D62BD68002D04D00B
:1061D000636B7A6B0021FDF747FDF8BD042803D3FC
:1061E00001218420FEF7A1FC3869261C01303861AA
:1061F00020363078022803D00C218420FEF795FC4D
:1062000035703C007C290000A1690029E8D0636B4F
:10621000303420780C1C00217A6BFDF727FDDFE776
:10622000046C0100F400070018DB010010B50B4CF2
:10623000606A00280ED00A4800F012FB002060625D
:10624000A468002C3C00B829000005D07E23DB4365
:1062500000220121FDF70DFD10BDE0690130E06174
:1062600010BD046C010000300700094841683F225E
:10627000120491430D2212048918416041680122E1
:106280005202914341603C00F429000003488178A8
:1062900081708178817070478000070000000700DE
:1062A000F0B50125082400200E4A0F4900263C23A2
:1062B0004343D1529B185D719B605E611C82C02775
:1062C000DF602027FE549E613C00302A000030270A
:1062D000FE54074F3F182037013005289F63E9D34C
:1062E0000548FF3201329062F0BD18DB0100BEBAF2
:1062F000000030800700066C0100014948607047CB
:106300000000046C01000549085C3C006C2A000098
:10631000054949684018C006C00E0449203048723B
:1063200070470000A0570100046C010000800700C6
:1063300080B515218420FEF707FC80BDF8B54348E1
:1063400084680334424D04E0201C10F03C00A82A6D
:106350000000B9F8002871D12869C007F7D53E4878
:1063600028603E4A141C2034207900903C233C498C
:10637000584345182879FFF7CCFF281C3A490830C4
:1063800048600126081C0660686A00280DD03C00A1
:10639000E42A0000A96A926A354B9F68D71B1A68E5
:1063A000511879188A425A6800D800E0013206C0B4
:1063B000E86AFEF787FF2D49E86A4860301C0E60E6
:1063C00066791FE02B484661047F2949201C50391B
:1063D0003C00202B0000896AFDF75AFC009884429B
:1063E00010D03C202249604340188769002F09D013
:1063F0000021203001707E23DB4302210022201C7B
:10640000FDF74CFC0120A0408643002EDDD1E96958
:1064100000293C005C2B000003D03020405DFDF7DC
:106420003AFC164C503C606A002803D00A218420B4
:10643000FEF796FB20352878012803D00B21842015
:10644000FEF78EFB02202870E068013000E007E0D4
:10645000E06000983C00982B00002070009860706D
:106460000A4800686063F8BD0000000107000040B2
:106470000700010000013080070018DB0100003038
:106480000700546C010000A00700786E01003C2258
:106490003C234A4309493C00D42B0000B0B55418B2
:1064A00058434518211C3822281CFDF7E5FCA06B39
:1064B0000078A96B0870002020342070B0BD000067
:1064C00018DB01003C230749584310B54418203419
:1064D0002078022803D10D213C00102C00008420DC
:1064E000FEF747FB0020207010BD18DB0100FFB550
:1064F0003C2048431A4981B04418261C2036307885
:10650000151C0F9F022803D104218420FEF731FBC4
:106510000120307025710B9930223C004C2C00007A
:1065200061800A99E1620D99A1610C99E1610E996E
:106530006162A762019911557E21C9436163049983
:10654000002900D10020061C281C08F08BF8002828
:1065500001D0022000E00020A16B30433C00882CD9
:106560000000087005B0F0BD000018DB010080B528
:1065700014218420FEF703FB80BD0148407870475A
:106580000000046C010002480069C007C00F70479A
:10659000000000400700011C3C23044A59433C0012
:1065A000C42C00008918203109780120002900D06E
:1065B0000020704718DB01000848406A00280AD113
:1065C000074A002120239B5C022B04D001313C327E
:1065D0000529F7D37047012070470000046C0100C3
:1065E0003C00002D000018DB0100F8B50E1C041C57
:1065F000171CFEF782FE201C114C606001202060F9
:10660000104D686901306861686A002803D007216D
:106610008420FEF7BAFAA068400703D5062184203B
:10662000FEF73C003C2D0000B3FA08480069002842
:1066300003DAAA218420FEF7ABFA02206862AE607A
:106640002F70F8BD00300700046C01000040070007
:10665000044A518010710348034908304860012002
:10666000086070473C00782D00003C6C0100003051
:1066700007000021002305E002894360C06851182B
:106680000904090C0028F7D104310804000C7047F4
:106690000000024A516B0843506370470000046CCD
:1066A000010038B50A4C3C00B42D0000221C2032F9
:1066B000957900AB1D70D2795A7003684068064A1C
:1066C0005065054813655030816000AB1888E08440
:1066D00038BD000000100700046C010098B50D4C97
:1066E000201C2030817900AB3C00F02D0000197097
:1066F000C07958700A4800F0ECF809490020486257
:10670000FFF769FF002803D012218420FEF749FA21
:1067100000AB1888E08498BD00000010070000302E
:106720000700046C01000348017A3C002C2E000095
:10673000FE2291430A310172704700000080070079
:1067400090B50E4C85B0A078022814D10320A0701B
:106750000B4900200022049202900391E18801225B
:1067600001920091617820782269E3683C00682EEC
:10677000000008F094FD044809F07FF905B090BDD1
:106780000000B4790100ADB6000071B60000B0B5EC
:106790000C4DAC790C490978002903D001290ED0A1
:1067A000022908D1C288002A09D0012381683C004F
:1067B000A42E000002200FF0C1F803E00221862081
:1067C000FEF7F8F9AC71B0BD20100700A079010008
:1067D00080B5026807494A600379CA78CB700079AE
:1067E000904206D003481430008907F027FE06F0D7
:1067F0003C00E02E0000ABFA80BD8466010070B55D
:10680000164C154DA0780026983D012803D1286923
:1068100008F0FBFCA6706068012803D000212869FD
:1068200000F0FFFB0E4829690CF031FA01200CF052
:10683000E4F83C001C2F0000E078012802D0012081
:10684000607000E06670064814304168012906D186
:106850000660416F002902D00020FDF74CFA70BDA0
:10686000846601003463010030B500220023012555
:106870002C1C94403C00582F0000044001D0CA5406
:10688000013301320E2AF6DB181C30BD0000FFB5C3
:1068900001270026051C022081B00090002D18D091
:1068A0002878FF2815D0002410E0281980780A994C
:1068B000002901D001063C00942F000008D507F004
:1068C000E9FE0E2803D0012181400E4300E000279D
:1068D00001346878A042EBDC0098029D01380090FA
:1068E000DFD10398311C814302D003980640002772
:1068F0000498066005B0381C3C00D02F0000F0BDA5
:10690000000002210160642101E0013902D0026827
:106910009207FAD40120002900D10020704710B559
:106920000020C443054B022201015A50C9188C6053
:1069300001300828F8DB10BD00003C000C300000DE
:1069400000300700F0B5051C6035C76A041C287BC1
:10695000002F8BB015D0082815D202A31B5C5B005A
:106960009F4400000704040709090C0C01260021BC
:1069700009E0002606E00226022104E03C0048303F
:1069800000000326032101E0042601218C22125974
:1069900007912649069004910020039005970892DC
:1069A000E0692269211C7031019121490090700039
:1069B0004018603002920388591C01801E483C0038
:1069C000843000000288A1680AA809F0E1FF606035
:1069D000E87AA16AC9070007000EC90D0843616A79
:1069E0002269C907890D01430120002A00D1002036
:1069F00080030843216AC9030843082108430A9910
:106A00003C00C03000000880201CFEF798FE206982
:106A1000002804D1201C0AF082F90BB0F0BD807967
:106A2000062801D9FEF70FF9206906498079800010
:106A30000958201CFDF774F9EFE7792F0100C469AC
:106A400001003C00FC3000000861010074570100A7
:106A500010B5041C58308AB00EF07CFE221C803227
:106A60005168002901D0117A07E0002804D080691C
:106A7000800701D5032100E00121D2680791224956
:106A8000002008923C003831000004910022059259
:106A900006900390E06922690090211C70311C4827
:106AA000019102920389591C01811A480288A16848
:106AB00009A809F076FF60606B20005DA16A226979
:106AC000C9070007000E3C0074310000C90D0143E6
:106AD0000120002A00D10020800308430999088082
:106AE000201CFEF735FE2069002804D1201C0AF086
:106AF0001FF90AB010BD8079062801D9FEF7ACF85D
:106B000020690749807980003C00B03100000958B5
:106B1000201CFDF711F9EFE70000BD2F0100246AEA
:106B2000010008610100745701003EB5051C0069B1
:106B3000042107F0D2FA002809D042780232011C61
:106B40006846FDF788F9E86A6C463C00EC310000C5
:106B5000029000E00024281C143002F003FB0028FF
:106B600004D0211C281C05F0A5FE3EBD002CFCD045
:106B70000249201C4969FDF7E2F8F6E7447D01006F
:106B800070B51E1C18235843064B049D3C00283248
:106B900000001950C418002060616260A660E560C2
:106BA0000FF0B9FD206170BD0000B87D0100024A00
:106BB000011C9069916170470000447D010001480B
:106BC000406B70470000447D01000449044B3C00C9
:106BD00064320000CA6809695C3B5B68C91A4143BA
:106BE00050187047A07D01000148007870470000F0
:106BF0007869010080B506220149FDF735F980BDAD
:106C0000FE670100F0B589B00093164F131C0E1CEF
:106C10003C00A0320000041C3A1C01F062FF01A9F4
:106C200006A8A26802F00BF901AA06A9381C636A3B
:106C300002F081FC051C012814D10C48FC21C8512C
:106C4000381C02F00CF80321301C07F052FA00281F
:106C500007D03C00DC320000807800F033FC201CC0
:106C600010300EF047FD00E00025281C09B0F0BDF3
:106C7000F4670100C138000010B5074C0648062231
:106C8000211D0838FDF7F6F801F0FCFF00F042FC8A
:106C9000201C02F03C001833000027FC10BDF467F4
:106CA00001000849C96800290AD0064A0132517812
:106CB00012784843002A01D108187047101870470D
:106CC000013070470000447D0100044B0549002855
:106CD0005A6900D0011C3C0054330000101C59615B
:106CE00070470000447D0100B9750000074900208D
:106CF0000A78022A09D10A7C002A05D1CA68002A2A
:106D000003D04969002900D001207047786901004B
:106D10000C4A80B5012151603C009033000009F01D
:106D20006AF809481C308169002907D00023836173
:106D300000220021002000F0D2F880BD00220021B6
:106D4000034800F05CF980BD00005C69010051352A
:106D50000000B0B50C1C012816D13C00CC3300005B
:106D60000E4D022C09D100F02BFA00280ED06869D4
:106D700000280BD1211C13200CE0032CFAD100F0C9
:106D8000F9F9002802D0287C0028F3D0B0BD211CDE
:106D90000006000E04F062FCB0BD00003C000834A8
:106DA000000078690100B0B50C4C002525746561C0
:106DB000E56000F03CFA00F034FA07481C38056141
:106DC00009F033FF2078002802D104F06EFAB0BD3C
:106DD0000228FCD104F0A5FBB0BD786901003C009D
:106DE000443400000C4880B50178002912D0C068F6
:106DF00000280FD108481C38406900280AD10748EC
:106E00000068002806D000220721102010F0A0F909
:106E100002F02CFC80BD000078690100D4670100FD
:106E20003C0080340000F8B51D4E1C4D041CF06879
:106E300002271C3D002807D0E868002804D0FDF791
:106E4000C2FE002800D0BC43002C14D03770F0687C
:106E5000144F002810D0E00717D4FDF7B4FE002827
:106E600013D03C00BC3400007069002806D1E868EB
:106E7000002801D0FDF71AFF0DF00AFAF8BD686985
:106E8000002805D109480068002801D0012C04D150
:106E9000391C201C0EF052FDF0E704F01DFB02F03F
:106EA000EBFBEBE73C00F83400007869010050C3CD
:106EB0000000D467010005484169002904D0406AF8
:106EC000002801D001207047002070470000786939
:106ED000010010B5041C0649002048600860886065
:106EE00008F09BFF07213C00343500001220227976
:106EF00010F03AF910BD00005C6901000149012061
:106F000008607047E8670100F8B5071C0E1C08F020
:106F1000A3FA134D041C6868002817D0002F02D074
:106F2000A868032813D300203C0070350000A86037
:106F30006860211C0F200EF0F0FE2868002803D0A6
:106F4000002C06D1012002E0012C02D10020FFF725
:106F5000FAFEF8BD721C0021044800F068F8A86829
:106F60000130A860F5E75C6901003C00AC35000029
:106F7000513500000A4980B5CA68002A0BD0426822
:106F8000002A09D000224A6202680A6202680721C8
:106F9000172010F0EFF880BD0120486280BD00008E
:106FA0007869010070B5144D846CE9683C00E835DF
:106FB0000000002917D04030EC614078002801D152
:106FC00001206862286A0E4E001BB0420CD208F005
:106FD0003AFE296A401AB04203D202220721132046
:106FE00009E004F0B6FA70BD0748A9680BF03C0050
:106FF00024360000BDFE221C0721162010F0C0F828
:1070000070BD000078690100A086010034630100B2
:107010000A4980B500208861086900280CD007481B
:107020001C300078002807D001F0D2FF022803D1DD
:107030003C006036000000F012F900F0BCF880BDA2
:1070400000005C690100F0B5061C0C1C151C91B019
:1070500001A84021FCF70DFF00216846FDF7A7FFBE
:10706000049001A806220849FCF731FF062202A875
:1070700002303C009C3600000649FCF72BFF00ABB9
:10708000DC760C95311C01A807F04EF811B0F0BD6C
:1070900012610100F8670100031C081C191C114B48
:1070A00080B506D0042111800422191CFCF712FFC0
:1070B00016E004223C00D8360000011C181CFCF726
:1070C0000CFF09481038006900280CD007480C3024
:1070D0000078002807D001F084FF022803D100F0D7
:1070E000C4F800F06EF8012080BD6C690100F8B5AD
:1070F000041C0F1C00253C0014370000002601F082
:1071000073FF02282FD11949012F086807D1021CEB
:1071100022400AD120430860A04206D104E00028A2
:1071200003D0A043086000D10125486800281AD187
:10713000002D17D0012048603C0050370000381C5B
:1071400008F089FE0B481C308169002907D0002314
:107150008361002200210020FFF7F1FE06E00022FB
:1071600000210448FFF77BFF00E00126301CF8BD3A
:1071700000005C690100513500003C008C370000C4
:10718000031C081C191C124B80B506D00421118069
:107190000422191CFCF7AAFE18E00422011C181C8A
:1071A000FCF7A4FE0A481030C16800290ED0007810
:1071B00000280BD001F01EFF022807D13C00C83781
:1071C000000000F064F800F02EF8002801D109F06A
:1071D0007AFD012080BD6869010010B50A4C206964
:1071E000002809D0A169002906D17D21C9004143A9
:1071F000032207200FF0E1FE2169012000293C0055
:107200000438000000D1002010BD00005C690100BE
:1072100010B5054C002803D0FDF79AFCE06010BDC6
:1072200001200021E16010BD786901000A480A4987
:1072300010B5C0681C39C968002803D0002901D0E6
:107240003C0040380000012400E00024002C03D062
:10725000022207200FF0B7FE201C10BD0000786945
:10726000010010B5094C0020216900290CD0064905
:107270001C310978002907D000F009F80120A0612D
:1072800020693C007C3800007D23DB00584310BDA2
:107290005C69010080B5032107200FF0D1FE80BD9D
:1072A00080B5022107200FF0CBFE80BD064880B5D7
:1072B0000078002801D0FDF729FD002207211120C8
:1072C0000FF07CFF3C00B838000080BD00007869FA
:1072D000010010B5041C101C064A516100F0A3F80F
:1072E0001020002C00D11120002207210FF069FF8F
:1072F00010BD5C6901000149486270470000447D8F
:10730000010010B5094C3C00F4380000E069002889
:107310000CD1E0620120E0610BF008FD0BF074FE7F
:10732000012000F0B5F80FF04DFA606310BD0000C9
:10733000447D0100054980B50020C861886300F0E4
:1073400089F800F001F902F03C003039000091FBAF
:1073500080BD447D010010B5012838D10806000E1B
:10736000052832D11D4C2078012809D002281BD0D5
:1073700003282AD102F07DFB00F06FF8012010E015
:107380001748216B0BF01BFD0BF03C006C39000023
:1073900041FE15480069032801D3C00703D5012128
:1073A000206B07F019FF022000F078F810BD0F489D
:1073B000006820640A485C30C16802698918C160AD
:1073C00003F0CCFC032000F069F801203C00A83950
:1073D0000000E06210BD092100E008210920FDF74E
:1073E00076FC10BD0000447D010034630100F468A8
:1073F0000100786E0100B0B50F4C2078651E0128A1
:107400000FD10020FFF7A1FC0C49098849083C0076
:10741000E4390000401A0FF019F9002804D0287848
:10742000012807D0022805D02078002804D1287828
:10743000032801D10120B0BD0020B0BD457D010071
:10744000F46701000149C86470470000447D0100F1
:107450003C00203A00000449054A8968126D012069
:10746000914200D3002070470000F4680100447D81
:10747000010010B5064C206B07F0F9FEA06B002848
:1074800003D10348216B0BF092FC10BD0000447D3A
:1074900001003C005C3A00003463010004480078BD
:1074A000022801D0032801D1012070470020704735
:1074B000447D0100F8B5071CFFF7D0FF061C012F23
:1074C000264D1FD0022F45D0032F12D12448254B23
:1074D00000696A693C00983A000041085A43234B0E
:1074E000D4188C4200D90C1C002E05D01E495B39E3
:1074F0000978002900D1041C0522211C09200FF065
:1075000080FD184A5C3A1770F8BDFFF7D6FB0028DB
:1075100002D0286900283C00D43A00000ED004F0C4
:10752000CFFB134B6969114A59435C3AD26B8918F6
:10753000884201D9441A04E0002402E004F0AEFDC0
:10754000041C002EDBD009485B3800780128D6D116
:10755000084B9C4202D958423C00103B00002418C2
:10756000D0E70024CEE704F0AEFBCAE70000F468E1
:107570000100A07D0100983A00008813000080B54A
:10758000052109200FF07DFD02490020087080BD13
:107590000000447D010070B5061C3C004C3B00001F
:1075A0000DF0BCFAFFF7CEFE094C0A48216B0BF038
:1075B00021FC012501213006000EA56307F03AFEEB
:1075C000054829020958002900D1056170BD000055
:1075D000447D010034630100F46701003C00883BF6
:1075E0000000024A116C0843106470470000447D9B
:1075F000010080B5FFF7BFFE0BF0A1FB80BD024A82
:10760000011C1069116170470000447D0100F3B551
:10761000061C002089B0F84C0890E26908253C005F
:10762000C43B0000002A03D006A907A8FCF706FC0B
:10763000301CF34E0027203682286FD015DC01283D
:1076400018D080286BD1EE4D803DA868012867D105
:1076500068680FF01BF8002863D1012101200DF0AC
:107660003C00003C00009DF808F0DBFD0BB0F0BDD5
:1076700083286DD0842855D1E7E00A980A2804D2DF
:1076800003A31B181B5A5B009F44F6E00000EE00AA
:107690000B00F700F700F700F7002F0088008B00C1
:1076A000AD003C003C3C000000F056FE002817D026
:1076B000D64A803AD16A0698814216D0062100281F
:1076C00000D107210D062D0E00280ED0CF4A012033
:1076D000803A50650FF0A0F8CC4A803A506604E03A
:1076E000002116203C00783C00000FF0DCFC012556
:1076F000022005902EE2C6488038406D00282ED02A
:10770000C6492069C44D40180EF0C1FF002812D0B0
:107710000FF085F8C14949424018BD4920618039C0
:10772000486E40190EF03C00B43C0000BBFF00283E
:1077300011D00AE0F7E017E2B2E0B0E0B649206904
:107740008039496E401AA84205DBB349B54D8039EE
:107750004F6503F027FB0622291C16200FF072FC50
:1077600047E095E000F0FEFD3C00F03C0000002802
:1077700042D1AA4DC43DEF6008F019FD03F015FB9E
:10778000A86A002802D0FFF74CFFAF62A4488038F7
:1077900000680021FFF7F9FC08F03FF909211620E5
:1077A0000FF087FC0022162183203C002C3D0000B6
:1077B0000FF040FDFFF786FC21E000F01BFE1EE00D
:1077C00006F054FA974D803DA96F401A0490069830
:1077D000002801D0AF6502E0A86D002808D19148CB
:1077E000C4380078800703D5924847603C00683D64
:1077F000000000F002FE0498FF382338142802D25B
:107800000120E86353E0EF6351E0874AB57A803A9C
:10781000002D4CD00DF071FF00F0ADFD071C82482B
:107820008038406FFF305F300EF03DFF021C3C009F
:10783000A43D00007E488038406D00281AD100F039
:10784000F1FD002816D1042D02D1002F12D11BE02A
:10785000002F06D0022D14D079484068002809D0A6
:1078600012E0002A10D14B21C90001230922162061
:107870003C00E03D00000FF0D6FC6E4A7348803AB1
:1078800011680BF0D8FA18E00121002001E0012175
:10789000012000F02AFE10E0674A6C49803A906EA1
:1078A00040189066012508958BE104216CE1614A3E
:1078B00066483C001C3E0000803A11680BF0AAFAB2
:1078C00088E1AF60A86FE8676348016DA967079A10
:1078D0001420002A00D1002008181230A866707801
:1078E000B0703078707002203070A069FCF7C2FA76
:1078F000EF64A86F3C00583E0000E96F594B401AF6
:10790000984212D2686D069988420ED030780228CB
:107910000BD80EF09CFFA96F0822401A5249091A91
:107920003B1C16200FF085FC00E0AF6501200590A0
:107930000890434802253C00943E0000C438C168CA
:10794000002972D10121C1604948006B00286CD028
:1079500008F066FC69E03C480022019280388068AB
:10796000012804D1384880388760012048E13A482E
:10797000012343603448C4383C00D03E0000007806
:1079800000280AD100F025FE002806D0FF21913101
:107990000123092216200FF052FC2C498039486F30
:1079A000896F421A039206F076F928498039896F67
:1079B000039A401A0290372000013C000C3F00005F
:1079C000101A50280DD223488038406D002804D169
:1079D0000298FF385538142801D2012200E0002215
:1079E0000192039A0120FF3A0B3A502A00D300205B
:1079F000049000280AD017488038C06F3C00483FE8
:107A00000000081A9B21C900401A142801D2012243
:107A100000E000220092002A11D00F4D0120803D8D
:107A200068650EF020FF68660125012116200FF021
:107A30005EFB002116200FF05AFB00E0BAE03C008C
:107A4000843F0000F07902283CD8054A803A516C06
:107A5000002937D1136C111C002B33D116E0000024
:107A6000246D010050C30000C05C15007099140023
:107A7000B057010034630100E204000000900700E9
:107A80003C00C03F0000530700001E020000C85722
:107A900001004A6D002A02D0B27A022A15D1009A5A
:107AA000002A03D0CA6D0132CA6500E0CF65019A91
:107AB000002A0BD08A6FCB6FD21A5A4B9A4202D24D
:107AC0008A6D3C00FC3F0000013200E001228A6523
:107AD00000E08F650499002901D102280BD9544A8E
:107AE00002281ED9D06F616888421AD1916F081A96
:107AF0005049884215DD4E4B986FE168401A7D2150
:107B0000C90088423C00384000000BDD6169401A22
:107B1000002804DD021140111018401801E0801007
:107B200008186061586FE0600398FF382338142804
:107B300009D20298FF382338142804D23E4A906FA5
:107B40005064906A90643C00744000000EF09AFE0D
:107B50003A49496C401A3B49884201D937494F6438
:107B6000394903984018142807D23449C86B0028B3
:107B700003D0886F0864886A88640EF083FE2F49FA
:107B8000096C401A314988423C00B040000001D9DC
:107B90002C48076404200590082116200FF0B9FA3C
:107BA0002848406D002802D00499002908D02949AE
:107BB000002800D129493B1C062216200FF057FB54
:107BC000022D09D0062D0AD0072D3C00EC40000004
:107BD00013D107E001211620FDF7D6F81EE01A4A5E
:107BE00057639763184A0698D06207991163536BDD
:107BF00018435063906B084390630598002805D0A4
:107C000005980CF05FFA05980CF0D2F93C00284179
:107C10000000082D05D00D4844388570281C03F05D
:107C2000DCFD1149E069884200D161E5089800282F
:107C3000FBD0B07A0228F8D1012116200FF06FFA9C
:107C400002200DF0E8FE53E50000530700003C0061
:107C500064410000A46C010020A10700204E000038
:107C60003FFBFFFFA086010050C30000C05C150071
:107C7000F11D00007047000070470000F8B5214872
:107C80000068214D6969084001D1012700E0002703
:107C90003C00A04100001D4D0126696A002900D06A
:107CA00000261B4D1A482C1CA030027A281C40309C
:107CB00080341023B74210D10125C580002900D09F
:107CC00000231A43111C017301200EF088FE0820C6
:107CD00020703C00DC41000000221621802013E0CF
:107CE0001127C7802E1C0B4D002900D100231A43F9
:107CF000111C017301200EF075FE08202070306DFC
:107D000000221621686782200FF0D0FAF8BD00002B
:107D1000100007003C0018420000A46C0100009015
:107D20000700B0B50F4D041CAA7A0121081C002AD7
:107D300000D00020002C00D0002188420AD0002C66
:107D400004D100F042FB00F0D6FA03E000F0D9FACB
:107D500000F009F8A87A3C00544200000249E439D6
:107D60004871AC72B0BD0000446D010080B53EF0BA
:107D700055F802490120087080BD0000687E0100AE
:107D8000F3B501208DB00F1C012408900EF092FD78
:107D9000061C00F0B5FA09903C009042000000F08B
:107DA00080FB0790FEF73FFA051C00210C9108F0BC
:107DB000F0FB002801D1012000E000200A90FEF72E
:107DC00012FD05F0E0FE0B90002D23D0288841071E
:107DD00020D4291D04910A3500063C00CC42000045
:107DE000800E01212028039500D000210D1C04984D
:107DF00006F038FD0C90049806F010FD002808D01D
:107E0000039801F087FA002803D0002D01D101204A
:107E100000E000200C9901430C91FCF73C00084362
:107E2000000023FF00282FD007F099FF051C07F062
:107E3000B2FF0490FFF7F3F80C990143002D06D030
:107E40000498F04A301A904201D2012000E000204C
:107E500008430C900B980A9B1843011C0B913C00A3
:107E60004443000005F0CEFE00281AD1002D06D0B4
:107E70000498E749301A884201D2012000E000202E
:107E80000C990843051C00F01FFB284303E000F099
:107E90001BFB0C9908430C9000F0D4FB0B99014399
:107EA0003C00804300000B91DC49C868002801D0E9
:107EB0000138C86008F0E7FB069008F090FD311A21
:107EC00005910699D648814208D8002F08D1059916
:107ED0004008814204D90699814201D900248BE0EF
:107EE000D0483C00BC4300000599D04D814226D2C9
:107EF000E879102806D2002F21D1CC48A038806A1A
:107F000000281CD109F062FF0490002802D1002053
:107F1000C34913E009F010FE002803D0C448C0692B
:107F20000028F4D03C00F84300000498052803D052
:107F3000C148006A002865D1BB49486A002823D09F
:107F40000138486200F087FF002811D0BB4805992E
:107F500081420DD201F09BF804300DF0EEFC403070
:107F6000C17A01294ED03C0034440000807A0028B8
:107F700001D0052849D301F0DFF8022810D0002FE6
:107F800002D10698002840D10020089082E1AA483A
:107F9000A038C068002838D0A8488069486234E01A
:107FA0000AA903C9084345D03C0070440000A34817
:107FB0002978A038022940D8406D00280AD09F486F
:107FC000A2492038C06840180EF0C7FB002801D035
:107FD000012100E00021964A906A002802DA640834
:107FE00064002AE0002909D1954B3C00AC44000014
:107FF000A03B5B6D002B02D005280DDB01E00728BC
:108000000ADB0120C043906264088E4964000020AE
:10801000A039886514E0D1E0394311D18949A039EC
:10802000CB6D002B02D1896D012909D93C00E844B0
:108030000000079B002B01D1072801DB64086400C6
:1080400001309062BDE07D4988690490002088611C
:108050000C9800282CD007F066FC002802D00220E3
:10806000044325E07A48C06A002804D177483C00E0
:1080700024450000A038C06800281CD104980028BE
:108080000DD12878102802D3E878022802D928795F
:10809000102804D304246B4901228A6194E06C48BF
:1080A000A038406D002871D005F0A2FD00286DD0E9
:1080B0003C00604500006408640088E0FFF75BFA5C
:1080C00000281AD068480078022801D1002F14D166
:1080D0000020FEF770FE301A0490FFF76CFA0028BB
:1080E00007D0FFF71EFA002803D05D4904988842A4
:1080F0004FD33C009C45000005F06CFD00284BD19F
:1081000053490878032808D188680122D207301A19
:10811000904241D201220A7057E054480078022868
:1081200001D1002F51D14A4988685149801B8842AA
:1081300007D901203C00D8450000FEF742FE7D2112
:1081400009014018444988604A480078022804D14F
:10815000079B002B01D1012000E00020474B47493D
:10816000584340183C498968891B884230D9079B8D
:108170000020039300F03C001446000079FF0290B9
:10818000FFF7D8F9049001F057F80499029A514387
:108190004843019000F0DCFF411C01980122484354
:1081A000111C00E01BE0314B5B6A834200D30021CD
:1081B000039B0122002B00D03C005046000000220F
:1081C0002C4B51439B6A0122834200D30022500072
:1081D000081803D023490320087003E00998C068F9
:1081E000062808D90224089800286ED01D490020CE
:1081F000C8614861A5E01A4948693C008C46000006
:1082000000280AD1002F05D001224A61C8698018D0
:10821000C8610AE00020C86103E0002F05D10020FA
:1082200048610D98002800D1C8680020089008789F
:1082300001282FD002284BD1002F08D13C00C8467E
:108240000000E878002802D12878102843D2287945
:10825000102840D248680A69301A904267D3012238
:108260000A7038E00000E204000010270000687E79
:108270000100A086010088130000446D01003C004D
:1082800004470000C857010050C30000983A00009E
:10829000C0570100400D0300C4090000B20C0000EB
:1082A00000200B9A0A9BC0431A4337D0002F35D1C8
:1082B000079B002B08D06A78022A2FD92A78102A27
:1082C0003C00404700002CD22A79102A29D2254BA5
:1082D0001A6C002A06D09A6A9F6CBA4202D11F20FB
:1082E0001FE02EE0204B5A6C002A03D01F4FB31A18
:1082F000BB4216D31C4B002A05D09A6A9F6CBA4227
:1083000001D13C007C4700000F200DE0079A002AB5
:1083100004D0EA79202A01D1002005E0EA79102A68
:1083200001D3032000E09A6A124A126802400BD17E
:1083300001200890022008700F4808614E6064E731
:10834000FFE701203C00B8470000089060E70C49B7
:10835000886A002801DA013002E0002801DD0020EF
:108360008862002008620899200408430FB0F0BD1D
:108370000000A46C010071020000082007005307F0
:108380000000687E01003C00F447000070470000D8
:1083900000487047507E010080B53DF07FFD0249E6
:1083A0000120087080BD00003C7E0100F8B50D1C66
:1083B0000EF0C8FA2649041C886A264E002801D00F
:1083C000042003E0706A00283C003048000001D01F
:1083D000013870620027002D02D0B761F7610AE012
:1083E000B0691C490130B061496D002903D00328F0
:1083F00001D90120F061B460F168009108F0F7FC48
:10840000F0600099884202D030623C006C48000065
:1084100034610BE000F090F8002801D0114800E032
:1084200011483169611A814200D937620B4A0C4800
:10843000D16C2030002901D00A2103E0017A002903
:1084400001D0FF310172002D03D1017A3C00A84810
:108450000000002900D0916A007A002800D1176539
:10846000F8BDA46C01003C7E0100A60E0000A861CE
:10847000000070470000064980B58968002907D0D0
:108480000521002800D104210806000E03F03C005D
:10849000E448000005FA80BD606C010007480068F0
:1084A00007494A69104001D0012000E00020496AD4
:1084B000884201D10120704700207047100007005A
:1084C000A46C010070B50EF049FA021C00F03AF8F5
:1084D0003C0020490000104900280ED0081CA031A3
:1084E0000E780E4B102E01D3806F03E049781029CF
:1084F0000ED3C06FC018841A0AE0081C803045698A
:1085000008498D4201D90C1C05E0C068101A2C1ACC
:10851000002C3C005C49000000DA6419201C70BD8E
:10852000A46C0100A60E000050C3000080B505F049
:10853000B7FB002802D007F01FFF80BD034800787A
:108540000028FAD007F070FB80BD0000606C0100CD
:10855000034901203C00984900004969032900D8DB
:10856000002070470000606C0100B0B50A4D002487
:108570002878012803D005F06AFB0406240EFEF7D4
:10858000D2FC0002204302D1686A002801D10120F8
:10859000B0BD0020B0BD3C00D4490000606C0100BB
:1085A0000121012800D000210148416270470000EC
:1085B000606C0100154810B504681548006A002871
:1085C00014D0FFF7CBFF00280ED111481149C43059
:1085D0004069884208D2CC083C00104A0000A04202
:1085E00005D3FFF77EFFA04201DA0C4C01E0FF2427
:1085F00091347D200001844204D900221621832079
:108600000EF0BDFE01230922211C16200EF0A7FE4C
:1086100010BDB0570100606C01003C004C4A0000E6
:10862000C05D00001027000070B5051C0E1C00F096
:1086300043F800280FD0084C2078C00703D405F079
:10864000ABF909F031FE002D05D02078800702D467
:10865000301C02F0FDFE70BD606C01003C00884AD9
:108660000000B0B5002818D01148814215D210483A
:108670000C1C0D1807F0DFFA81000918A14201D285
:10868000400003E041000918A14201D2241A06E08B
:108690004100A14203D24008F8E7064D074C3C00D8
:1086A000C44A00000EF072F90019291C07F0DCFA28
:1086B000B0BD000080B92A00530700004C1D000027
:1086C00088130000B0B505F0FDFA002813D1FEF7BD
:1086D000B5FE0A4C0A4D0028606300D028600EF0F9
:1086E0003C00004B000055F9216A002904D1E169E2
:1086F000401A2968884201D90120B0BD0020B0BDD0
:108700000000606C0100B057010080B5FFF7DDFF8D
:10871000002805D005F0B7FA002801D1012080BD5E
:1087200000203C003C4B000080BD000010B50A4C0E
:108730000021A268002A03D0A16002F083F910BDD5
:108740006160011C002204200EF036FD0348216800
:108750000AF008FC10BD0000BC740100C4600100F8
:1087600070B5051C3C00784B000001D1FCF7C1FB43
:10877000204CE06A002815D01F4BA0695843C60B57
:1087800020884643F0008019E660FBF71CFEA842F3
:1087900005D8301CFBF717FE8019A84202D2002032
:1087A000E06020E0E5603C00B44B0000002D1DD0EF
:1087B0002688A0697043C103281CFBF7A5FD6061F2
:1087C0000D48321C291C3030FBF70AFC0C4B606949
:1087D0005843C00B606201F0B7FDA062E06800285A
:1087E00004D02069A168FBF73C00F04B0000F4FBCB
:1087F00070BD0548A168FBF7EFFB70BD0000C874B1
:10880000010040420F00C0C62D0088130000F1B5E2
:108810003E4800AB8178C0783E4F0A07040758787D
:108820003B49120F085C1439240F3C002C4C00000B
:10883000801878600130B8601878354D085C0019F0
:10884000B8610130F861EB7833481E09334B1838B2
:1088500081785E43AB781D09C8236B43002908D19A
:108860002B4D2D783D60C5607D25ED003C00684CAA
:1088700000005D1B2C4B07E0274D6D783D60C56007
:108880004B252D015D1B284BF618022000F057F8F0
:10889000281AF8602248221C18388178032000F03A
:1088A0004EF8301A3862396800AB79615A783C006A
:1088B000A44C00005623F9685A43891AF960C8315C
:1088C00039611849183989780029B96911D100AB83
:1088D0001A78134B143B9A5C531C59430A2359438F
:1088E000144B591A51430A235943401A386212490A
:1088F0003C00E04C000010E000AB1A780A4B143B3F
:108900009A5C531C59430A2359430D4B591A51433E
:108910000A235943401A0B49386240187862F8BD5F
:1089200000000C5A0100665A010094780100A086EC
:1089300001003C001C4D000000487100B0D68C00C6
:1089400088100000803801005812000070110100EA
:1089500030B5194B0228DD6806D1002904D12B1C43
:108960000C339C1A64235C43022809D1012907D1E6
:1089700064237D243C00584D0000E4006B431C1927
:10898000A0235343E41A0A235A43032809D1002998
:1089900007D11323FF24E4006B431B199B1A1C1CF3
:1089A0005C43032808D1012906D10E2005496843FC
:1089B0004018801A041C3C00944D00004443201CC5
:1089C00030BD00007C7801008408000010B5074C21
:1089D0000C2360780549143158434018406801F071
:1089E0004FFC0021607802F04BFF10BD4C7B010072
:1089F0000C48F8B540780C233C00D04D00000A49E3
:108A0000584314314418261D60CE301C0BF00BFD6A
:108A10000027412047550548291C02F0F0FE281C7C
:108A200001F031FC0434C0C4F8BD4C7B010055801A
:108A30000000B0B50A4D4C2128783C000C4E0000D7
:108A4000094A41438C1822680121FBF7E1FA287892
:108A500001F0FAFB3C23E056411E012007F034FBF5
:108A6000B0BD00003C7C010058E301000C23074925
:108A70005843401880B54068416B00293C00484E7F
:108A8000000002D00BF0FBFD80BD0BF02CFD80BD83
:108A90000000607B010038220A4B4243D2180029B3
:108AA00080B504D0022907D10BF0FBFC80BDD26A4F
:108AB0000121FBF7B0FA80BD03218620FCF73C00C2
:108AC000844E00000FFA80BDD4E40100B0B5040666
:108AD000240E0C200E49604340184568A86B0028FE
:108AE00003D10021201CFDF7E1FA201C07F0F2FF62
:108AF000002808D0281C6030C179012903D9FF3132
:108B00003C00C04E0000C171FF3181710121201C69
:108B100002F0C5FEB0BD607B010070B50006000E1E
:108B2000051C4C230A49584344183C20005DFF3083
:108B300006063616281C01F090FB0021281C22682E
:108B4000FBF73C00FC4E00006FFA311C002007F0E0
:108B5000C7FA70BD58E301000C220F4B4243D218F4
:108B600010B5546800290DD002290FD12C20005DCA
:108B7000002803D007210C20FCF7BAF9201C0BF0C9
:108B8000BBFC10BD3C00384F0000002102F08DFE00
:108B900010BD04210C20FCF7AEF910BD0000607B75
:108BA000010080B5002907D00C230549584340181F
:108BB00040680BF04AFC80BD012102F076FE80BDCA
:108BC0000000607B01003C00744F000010B5041CE5
:108BD000002905D002291AD1201C0BF0EBFC10BD96
:108BE0000D4804700D4807F007F90D48018801226F
:108BF0001203114301804C200A4960434018403061
:108C00000078FDF75DFD201C3C00B04F00000AF02D
:108C1000D4F810BD03218620FCF773F910BD3C7C0D
:108C20000100054E00003280070058E30100FFB547
:108C3000051C012083B001900C205D4A6843861812
:108C40000127002974680ED002293C00EC4F000077
:108C50006AD12C20005D002803D006210C20FCF7EF
:108C600053F9201C0BF020FD07B0F0BD524814381A
:108C70004570A06B002807D0504807F07FF801210D
:108C8000281CFDF725FA1CE04D4807F03C00285051
:108C9000000077F84A48143805704B4801880122D3
:108CA0005203114301804020005DFDF712FDB068C2
:108CB000002809D1281C07F064FFB060002803D108
:108CC00009210C20FCF723F90598002803D03C006B
:108CD00064500000E06C0130E0640EE06720005D4D
:108CE000002807D1E06C002804D139480238C06A56
:108CF000A06409E0206D002801D0002704E0281CB2
:108D000007F000FF0028E5D105982065201C2030E1
:108D10003C00A0500000626A0290817B281C07F092
:108D200078FF002F19D0201C6030C1794A1CC27115
:108D30008079814202D2012001E040E000200190D0
:108D400000280AD025480078800706D500F00DFBE2
:108D5000011C3C00DC500000201C0BF015FD0190B4
:108D6000019800280FD00298007B022803D1201C14
:108D700004F0D0FE84E7012800D07EE7211C301CDF
:108D800004F0E2FE7CE7251C6035E879FF30A8712D
:108D9000687A06F03C00185100009DFC0DF047FE7B
:108DA000071C05F012FF3F180298817B20690430F0
:108DB00000F035FA616A05F0EAFE39186B7A3088FE
:108DC0008031094A0DF091FE5DE703210C20FCF78C
:108DD000AAF858E700003C0054510000607B0100F5
:108DE000A54D0000C94D0000328007001D7501002F
:108DF0008D4E0000FFB581B01F1C051C141C101CFB
:108E00000A9E00F0F5FC291C1031201D0622FBF7FC
:108E1000B7F9A88E2080E88E3C0090510000608059
:108E20000299201C00F007F9FF34013466602760C6
:108E300005B0F0BD0000F8B50F1C1E1C051C141C6D
:108E4000101C00F0D8FCA888391C2080288960807C
:108E5000201C00F0F0F8FF3401343C00CC5100003D
:108E60006660F8BD70B5041CC0680568201C14302D
:108E7000061C00F00FFB002816D0012202212069F9
:108E800005F0F8FA002801D0FBF724FF00220221A8
:108E9000206905F0EFFA002806D0FBF73C000852E5
:108EA000000001FF002802D0301C0BF07CFB688919
:108EB0008007C00F03F0A7F818230449584340184F
:108EC000C168002902D0201CFBF7D4F870BD94675C
:108ED0000100F8B5041C101C0D1C191CFF223C00DD
:108EE000445200000027FF2D25D0002905D04B88D3
:108EF000002B02D000F050FC15E00021104E4B007A
:108F00009E190223F65E864201DD0A1C04E001314F
:108F10000906090E2629F1D3094E500080194E2367
:108F20003C0080520000C05E272A07D20649203943
:108F300049574731401A2060012702E07E20C04394
:108F40002060381CF8BDFA470100B0B50C1C7E212A
:108F5000051C0020C943002C0FD0101C05F06BFD30
:108F600000283C00BC52000002D0211CC93901E09D
:108F7000211C86390220C043FBF7B4F9011C0120F3
:108F80002960B0BD98B5141C00220092221CFDF788
:108F900043FE98BD054980B5086005490120C861B8
:108FA000012100203C00F852000003F01CFE80BDAF
:108FB000000020670100AC7C010080B5002100208A
:108FC00003F011FE06F00DFB02490020086080BD91
:108FD000000020670100034901200969002900D130
:108FE0000020704700003C0034530000106701006F
:108FF00003480069002801D040697047002070478D
:109000001067010070B5161C0D1C041C002801D04F
:10901000012C07D100F036FA002805D013F0CAF968
:10902000002801D1012070BD3C00705300000120D8
:10903000002C00D000200A4C043461C4103C00F025
:1090400024FA002802D000F0C6F901E000F0E5F8AB
:10905000C030C36B221D07CAFBF720F8002070BD8B
:109060000000D4670100F8B50D1C3C00AC530000B3
:109070000021041C281C05F0E3F9231CFF332133D5
:10908000FF27002805D02222011C181CFBF796F8A8
:1090900000E01F700321281C05F0D2F9261CFF36C2
:1090A0004136002805D00322011CB01C3C00E853C7
:1090B0000000FBF786F800E0B7700121281C05F0DE
:1090C000C2F9002807D0011C201CFF300A224630BC
:1090D000FBF777F800E077713221281C05F0B3F92F
:1090E000002807D0011C201CFF30122250303C0009
:1090F00024540000FBF768F800E0F7730621281CF1
:1091000005F0A4F9002807D0011C201CFF30042220
:109110006330FBF759F8F8BDFF346134A770FAE704
:10912000084980B50968002801D107480168081C72
:109130003C006054000005D103219020FBF71DFF87
:10914000002080BD01F0D7FB80BD1C6701002067B7
:10915000010080B5FFF7E7FF80BDF0B5002484462D
:1091600000200BE08740174007D014230B4D4343EA
:109170005B193C009C5400001B7C65462B55013458
:10918000013001273B1C0E2800D300230E883D1C14
:10919000A64200DC00252B40E7D10C80F0BD00008A
:1091A0007440010078B5041C01202070082000AB39
:1091B0000D1C18803C00D8540000161CA01C6946E9
:1091C000FFF7D1FF00AB0022D243198882406170C3
:1091D00032202870102018803240A81C6946FFF702
:1091E000C2FF00AB1888687078BD80B502F035FF0B
:1091F0000021002800D03C00145500000169081C23
:1092000080BD00000549002801D0C86800E0086959
:10921000002801D00430704700207047106701001B
:1092200003480069002801D00430704700207047CF
:1092300010670100024800693C00505500000028FA
:10924000FFD1704700001067010010B5054C206980
:10925000002803D104219020FBF79BFE206910BD5C
:1092600000001067010010B5041C00F040F9002850
:1092700001D0002010BD201C00F03C008C550000E7
:1092800057F9002801D0012010BD022010BD0000B8
:1092900070B50F4E041C30680D1C002807D0211C2F
:1092A000043005F0C1FB002801D030680BE0094A0A
:1092B0001068002809D0211C141C04303C00C8553B
:1092C000000005F0B4FB002802D020689C3000E0CC
:1092D0000348405D70BD206701001C670100CC475A
:1092E0000100044900200969002902D0FF31013141
:1092F000886970470000106701000148007A3C004F
:109300000456000070470000AC7C0100FEB5061C4E
:1093100000201F1C141C0029029019D0012926D0FE
:10932000022947D12648007805F0A0FBA0720AF078
:109330004FFC0E2809D1A07A05F0AAFB002804D022
:109340003C00405600002048007805F092FBA072D7
:10935000002020722FE01D4D2868002801D1FBF766
:1093600052FE00972A68231C1832111C301CFCF78F
:10937000DEFB26E0301C0CF0CAFB051C02D0A868FE
:1093800000283C007C56000008D1134800680028E3
:1093900001D1FBF73BFE104800681830021C0E4854
:1093A00000970168231C1831301CFCF7C3FB002D0B
:1093B0000AD040352888800606D40020206003E0CB
:1093C000012190203C00B8560000FBF7F4FD029804
:1093D000FEBDB069010090570100206701001C67C5
:1093E000010080B5002002F04AFE1823054A5843C8
:1093F000801840690121002800D04178081C80BDF8
:109400000000946701003C00F4560000024908691E
:10941000002800D1C8687047106701000348C06881
:10942000002801D004307047002070471067010009
:1094300010B5054CE068002803D105219020FBF70A
:10944000BDFDE06810BD00003C0030570000106713
:109450000100F8B50D1C002A03D01149124F0E78F7
:1094600001E0114F0C26082E01D2341C00E0082424
:10947000012101704470391C221C0230FAF7CBFE26
:10948000321B002A07DD322028703C006C57000098
:109490003919A81C6A70FAF7C1FEF8BDFF202870C0
:1094A00000206870F9E70000A4690100B0690100BC
:1094B000905701000149486270470000946701001D
:1094C000034980B508600121012003F03C00A85742
:1094D0000000C5FB80BD1C67010080B50021012094
:1094E00003F0BDFB06F0B9F802490020086080BD1A
:1094F00000001C67010003490120C968002900D150
:10950000002070470000106701000348C0683C005D
:10951000E4570000002801D04069704700207047E0
:109520001067010080B50221012003F09BFB80BD84
:10953000054A80B512690021002A03D0111D05F0EB
:1095400091FA011C081C80BD10670100064A80B515
:109550003C002058000012690021002A05D0111C8F
:10956000FF31213105F08BFA011C081C80BD10670A
:109570000100054A80B5D2680021002A03D0111DE0
:1095800005F073FA011C081C80BD10670100064A33
:1095900080B53C005C580000D2680021002A05D04C
:1095A000111CFF31213105F06DFA011C081C80BD32
:1095B00010670100FFB50D1C1F1C87B0109E002412
:1095C00002F072FD1823134958430858002819D097
:1095D000041C331C3C00985800003A1C281C0999B4
:1095E000FAF79FFD041C14D0182000AB1880AA685D
:1095F00001A86946FFF7E7FD6A4601A9002007F0C8
:1096000044FE002805D10A2100E00F219020FBF73D
:10961000EAFC201C0BB03C00D4580000F0BD000058
:109620009467010010B5002402F044FD1823054999
:10963000584340188068002802D0FAF771FD0124D1
:10964000201C10BD9467010080B5024B00F04EF85D
:1096500080BD0000106701003C001059000080B57B
:10966000024B00F046F880BD000011670100F8B51C
:109670000E1C151C00281C4910D048681C4A288064
:10968000002007E00B181C7A142363439B181B7CF3
:10969000335401302B888342F4DC3C004C590000E9
:1096A00024E000200F1C002408600FE0305D05F06E
:1096B00007FA0E2801D10020F8BD391908720122DD
:1096C000396882401143081C386001342888A04260
:1096D000ECDC28887860FFF7B7FE00283C0088594A
:1096E000000006D00169002903D07F21C9430BF097
:1096F00052FB0120E3E72C7D01007440010010B50E
:109700001C1C00280BD020780E2805D214230C4AEC
:1097100058438018007C00E0002008700EE03C00F8
:10972000C4590000087805F0D1F92070FFF792FEC7
:10973000002806D00169002903D07F21C9430BF01E
:109740002DFB012010BD00007440010080B52720D2
:10975000C04309F031FC80BD80B52720C04309F02B
:109760003C00005A000039FC80BD80B5282009F07B
:1097700042FC80BD000080B5282009F04AFC80BD75
:109780000000B0B5012828D1012901D0FBF76BFCFE
:10979000FFF7E9FD02281AD107F013FC124C2169EA
:1097A00088423C003C5A000015D007F00DFC2061B7
:1097B00020687D24E40044430DF0AEF9051C07F059
:1097C0000BFC281A844200D9241A0122211C0A20E9
:1097D0000DF0B2FDB0BD002109200CF075FCB0BD4C
:1097E00007210A203C00785A0000FBF714FCB0BDAA
:1097F0000000D46701007D20024900010860704725
:109800000000D467010010B5816D041CFF304630A4
:109810000CF0D1FC201CFF305030A16D0CF0CBFCC3
:1098200010BDB0B5041C3C00B45A00000D1C02F081
:1098300059FC201C02F056FC1823044958434018D8
:109840001822291CFAF770FDB0BD000094670100D2
:1098500010B5041C09F0BCFB201C09F0C7FB10BDAF
:1098600010B5041C09F0D0FB3C00F05A0000201C8D
:1098700009F0DBFB10BD70B50C78061C48884D78EC
:10988000E200801AE900401A011C414312312420F1
:10989000FAF791FD211C6143C9004018291C694356
:1098A000C90042180C4988790C4B3C002C5B000025
:1098B00053430C4A1360537B34021460527B88710B
:1098C00001335810084B801A0121490258430028DF
:1098D00000DA494208188012213870BD20100700B4
:1098E000EC04000000A00700030300003C00685BDC
:1098F000000010B5041C06210430FAF770FCFF20AC
:109900002130FF210155201CFF3041308170417111
:10991000C173FF2063300155002020616061FF3476
:109920000134A060E06010BD000070B5061C3C0072
:10993000A45B0000081C58609A601C1C1E60151C6B
:109940009B8AE28A311C02F0A1FC281AE06070BDFB
:1099500070B5041C081C111C1E1C0025EB43221CA6
:1099600018320BF0F7FB221CFF325032111C0A395F
:109970003C00E05B00000123201C00F0C6F80C282E
:1099800010D00125201C0BF0ACFA201C00F019F8B7
:10999000201C00F00AF8201C00F029F8311C201CC3
:1099A0000BF017FA281C70BD0000FF211D3109586B
:1099B00080303C001C5C00008907002901DA01218D
:1099C00000E00021C1627047011C803100220A635F
:1099D000074A1268002A09D04288920606D5FF304D
:1099E0000130C069400701D40120086370470000BE
:1099F000AC6901003C00585C000080B5011C4A883D
:109A00000020520505D5FF310131C969490700D44D
:109A1000012006F0ECFB80BD0000F8B5051C98683D
:109A2000171C0E1C1C1C002802D1201C0CF031F845
:109A3000AB69391C301C3C00945C0000A2680BF040
:109A400095FBF8BDF8B5161C0D1C1F1C002402F078
:109A500061FB18230649584340184368002B05D082
:109A60003A1C311C281CFAF78EFB0124201CF8BD7F
:109A70009467010080B507F03C00D05C0000C5FA97
:109A8000094908610868002802D17D2000010860AA
:109A900008687D21C9004143002301220A200DF0FE
:109AA0004EFD80BD0000D467010080B501210A2071
:109AB0000DF097FC80BDF8B50E1C3C000C5D00005D
:109AC0005168141C1268A5680B1C751B5719974226
:109AD00000D20131426800258A4202DD0125626020
:109AE00005E09A4203D10168B94200D90125002D51
:109AF00009D001682160A660A38AE28A3C00485D23
:109B00000000606802F0D7FB301AE060281CF8BD46
:109B1000000080B502F007FB1823034958434018A2
:109B20001821FAF798FB80BD000094670100FEB58C
:109B3000041C081C111C1E1C0C25012200923C0058
:109B4000845D0000A26902ABFDF7F0F8002845D063
:109B500002982721021C0A4001D1084302902149A2
:109B6000A069084006D00298014003D14921C900EC
:109B700008430290A06D0299884230D0002E2DD06B
:109B80003C00C05D00004021201C5830FAF769FB02
:109B9000029800250026371CA06519E0C00711D5E2
:109BA000F019001970300571281C04F0D4FF00284A
:109BB00004D0A01980300572013603E0E01960304E
:109BC00005703C00FC5D0000013701352D06029850
:109BD0002D0E4008029002980028E2D18420065100
:109BE000F0192067E765002500E00B25281CFEBD65
:109BF000D83A000038B5051C081C111C0024E243AB
:109C00006B46FFF73C00385E00004FFA002805D095
:109C1000A86900990140814200D10124201C38BD6F
:109C200000007CB5056A8669041CC068FBF7B7FBB9
:109C3000E169FBF7DAFA201CE2694030C18B128936
:109C40008918C18306493C00745E000001940091AC
:109C50002869331C82880168E068C06800F0F2F966
:109C60007CBD0000915E0000B0B5D1685569C86840
:109C7000141C144B0CE002689A4207D1C268CA60F7
:109C80000021C1600160FBF73C00B05E000073FB87
:109C900003E0011CC0680028F0D1E068C068E860FB
:109CA000E068C560201C4030C18B2A898918C183B7
:109CB0002068002802D0FFF7BAFFB0BD044804F0C6
:109CC0004EF9006A07F077FAB0BD3C00EC5E000088
:109CD000A07E0100A06A0100F1B582B00298066979
:109CE000011C083660314568019182E01021002096
:109CF0002F69FBF763FB6861018908390904090CC6
:109D000001816869006840180821FBF73C00285F62
:109D1000000057FBE86168697188006820220180B3
:109D2000716841600199497B89011143C17000212B
:109D300081702820FBF775FC3988041CC181A86B51
:109D4000002803D1012080020843E08106223C0064
:109D5000645F0000391D201C1030FAF7C5FA391C69
:109D60000A310622201C16300090FAF7BDFA391C81
:109D700010310622201C1C30FAF7B6FAE189254A78
:109D80005C201140012292031143405BE1810F21CD
:109D90003C00A05F000008406084201C2030162199
:109DA000817100212170E96B002907D02969098B95
:109DB0000907090F2170A184182181710622601CF6
:109DC0000099FAF794FA7068000EE071706800026A
:109DD000000E3C00DC5F0000207270680004000E82
:109DE00060727068A0727088000AE07270882073D8
:109DF000708801300004000C708002D1706801305E
:109E00007060AC61029828622D68002D00D079E75F
:109E1000029804493C00186000004268044804F0BD
:109E200074F8FEBD00008FC7FFFF3DDA0000A06A96
:109E30000100B0B5074D2878032808D000242C7005
:109E40006968002903D00120FAF7C8F96C60B0BD39
:109E500000009C7301003C0054600000F8B52B4BDF
:109E6000D86A002850D02A48011CFF310131CA6845
:109E70000132CA601A6C002A02D14A6901324A6171
:109E80000A6901320A61DA68002A04D01F4A0132E5
:109E90001278002A02D18A693C00906000000132E9
:109EA0008A610025071D18261A4A6E43743290599C
:109EB000002829D0B4186069002825D160680028DE
:109EC00002D00168002905D1A16800291CD00968C9
:109ED000002919D0002805D0E1683C00CC600000C2
:109EE0000131E1600068814211D3A068002806D0EA
:109EF0002169006808180CF0A3FD002807D0064A65
:109F00000120606174329159381CFAF770F90135FB
:109F1000022DCBDBF8BD0000447D01003C00086150
:109F20000000F4670100F8B50F1C0025041C002890
:109F300025D0201C04F003FE002806D0FFF7FFF810
:109F4000041CFFF750FB061C07E0201CFFF791FBE9
:109F5000061C201CFFF76FFB041C002E06D03C00E3
:109F600044610000FFF74CFB002802D001250120CE
:109F700007E0002C06D0FFF7EFF8002802D00125FB
:109F800000203860281CF8BDB0B5C568041C0DF071
:109F90008FFC207EC10708D5E168A94205D9226956
:109FA0003C0080610000914202D3E18A0131E182EC
:109FB000810708D5E168A94205D22269914202D8F9
:109FC000E18A0131E182400706D5E06821698842D3
:109FD00002D1E08A0130E082E08AA18A88420DD372
:109FE000607E3C00BC61000002280BD02068E16864
:109FF000042207F065FB607E002803D1206808F08A
:10A00000ABFFB0BD0020E082B0BD000070B5061C03
:10A010000C232049584345180020A860301C06F046
:10A0200091FE041C3C00F8610000686033D0012000
:10A03000A8702C20005D022803D1201C03F045FEEF
:10A0400010E0616B00290AD0012804D1211C281CD2
:10A0500003F055FE06E0201C0AF00DFC02E0201C77
:10A060000AF03DFB0D483C003462000014384168A2
:10A07000002910D0201C4030028B1207920F012AB9
:10A0800009D0808B32020009000410438122024370
:10A090000C200DF0B7F90CF0A5FD606470BD000058
:10A0A000607B0100FFB5081C3C0070620000111CC1
:10A0B0000C32202414430C4A83B00CAE526860CE9C
:10A0C00094700024D47093630D234027BB52946195
:10A0D000148401220292321C00900191231C291C3D
:10A0E000039800F066F907B0F0BD3C00AC620000D8
:10A0F000A07E0100F8B5041C0027114E1DE0E068A9
:10A10000002870680CD1808800070DD101210C480F
:10A11000FBF784F9C460E86070688188013102E06F
:10A120008188228989188180E068391C3C00E862B6
:10A130000000002801D17168C96D251C6160041CF4
:10A14000002CDFD1F8BDA07E0100064910B549689A
:10A15000002305E08A88048912198A804360C06858
:10A160000028F7D110BDA07E010010B509493C00C0
:10A1700024630000002449680AE08A880389D21811
:10A180008A80C368221C002B00D1CA6D4260181C53
:10A190000028F2D110BD0000A07E0100011C134870
:10A1A00010B54068002309E082880C89121982806A
:10A1B0003C00606300004B60CA68002A00D1416621
:10A1C000C9680029F3D1011C68318164C364436507
:10A1D00082880823111C08318907890F591A5023D6
:10A1E000195251188180011C406E4831C16010BD68
:10A1F00000003C009C630000A07E010010B50749F0
:10A2000000244B6806E0C268211C002A00D1D96DE9
:10A210004160101C0028F6D110BD0000A07E010096
:10A2200070470000FEB5061C0C480C1C40688021DD
:10A23000817000213C00D8630000C170151C4022D1
:10A2400081631152816101840020042202920090F6
:10A250000191291C201C1A1C331C00F0BCF8FEBD07
:10A260000000A07E010070B5061C1748807802210E
:10A27000164A884390703C0014640000101C8078DB
:10A280000843111C887013480024C4707020FBF729
:10A29000D9F9114D70216860FAF734F83007000FD2
:10A2A00069689030C8650D4868220880081C28300D
:10A2B00089604861082008823C0050640000081C46
:10A2C00038304863203848645A20505406480831D2
:10A2D0004164446570BD0000070058000700A07E7F
:10A2E0000100DEC00000003007000A4B10B5586DB9
:10A2F0000A490022496800244A623C008C6400003C
:10A300005C654B6E002B01D0DA604A668B6D002BCA
:10A3100003D00A6E0021F9F79CFF10BD0030070042
:10A32000A07E0100094910B508880130088001208D
:10A33000074980020860074CA26D002A3C00C864EF
:10A34000000005D00521D1200DF06FF90120A06596
:10A3500010BDB07401000010070000300700FFB509
:10A3600083B00CAE86468C460E4A43CE0FAD0F1C12
:10A3700052680C3730CD9770D37096630D263C0031
:10A38000046500004027BE52059E9661138400229A
:10A3900002922A1C00900191211C6046734600F035
:10A3A00029F807B0F0BD0000A07E0100FFB5101C29
:10A3B0001A1C0C1C191C6023FF3213430C4A83B077
:10A3C0003C00406500000CAE526860CE93700023E4
:10A3D000D37093634027BB5293611384032202928C
:10A3E0000191291C321C0090201C039B00F005F8F1
:10A3F00007B0F0BD0000A07E0100F8B5051C1148B3
:10A400001C1C3C007C650000089B079F4068DE0028
:10A4100081650266002181800D488159201CF9F771
:10A4200022FF0B4830184168281CF9F71CFF074928
:10A4300006984968002C88620F8600D12C1C0548BC
:10A440004C6245653C00B86500000121016501646E
:10A45000F8BDA07E01009052010000300700FFB55A
:10A4600083B00DAE60CE0C9F081C111CD219FF32B8
:10A47000402414430B4A526894700024D4709363B0
:10A4800040239F5294613C00F46500001484022232
:10A490000292321C00900191231C291C0398FFF7A3
:10A4A000B5FF07B0F0BD0000A07E01004C210D4AB1
:10A4B000414310B58C180C490978884207D105F042
:10A4C000C7FD0A48018801223C00306600001203E3
:10A4D00091430180201C30300C23C156407B8142C7
:10A4E00002DD208D0CF0E5FB10BD58E301003C7C43
:10A4F000010032800700011C603180B5CA798B7978
:10A500009A4207D9487A0C2307493C006C66000040
:10A510005843085A0CF0D0FB80BD2030007B012846
:10A52000FAD1487A05F040FD80BD0000607B010053
:10A5300010B5041C1C21F9F703FF0348A080E0803C
:10A5400020816081A08110BDFFFF00003C00A86653
:10A550000000FFB5041C002083B00D1C062C0290E7
:10A5600038D21F4AFF26C10089188978A14203D139
:10A57000C0008018467804E0013000060016062866
:10A58000F1DBFF2E24D00193201C0DF0E8F93C00F4
:10A59000E4660000002805D02421281C01AB02AA93
:10A5A000FAF730FE1049F00030390F58310609161D
:10A5B000281C059A019BF9F76EFE061C10D1201C81
:10A5C0000DF0D0F900280BD0281C6969FAF712FEAB
:10A5D0003C00206700000298686104E0062C01D36B
:10A5E000072600E00826301C07B0F0BD0000CC5A5A
:10A5F000010010B50C1C09F086F8002802D0201CC0
:10A6000009F0B5F810BDFEB5134D041CAE69002E5F
:10A610001CD03C005C670000104F30377868604306
:10A62000011C2888F9F7D2FF39686143411801A855
:10A63000321CF9F737FE0298296A401828620BD4B9
:10A64000E969884208D9A969401A2862019801304D
:10A6500001E000203C009867000002900190019802
:10A66000FEBDC8740100F8B5002828D00024144DA0
:10A6700000E0013461000919491949780029F8D12D
:10A6800063001B1903330722694603F0D4FB002C37
:10A690000FD0002000993C00D46700000AE042007F
:10A6A0001218AE5C531852195E71567801309E71C3
:10A6B0009278DA71A042F2DB00980322023003495B
:10A6C000F9F77EFEF8BD0000EB620100E8620100D0
:10A6D000B0B5051C081CFAF73C00106800009DFF8F
:10A6E000041C281CFAF7D9FE211CFAF7FCFD201CDB
:10A6F000B0BDF3B544480C1C007881B0012872D17C
:10A70000FAF782F8414DE86A41490860E86B486011
:10A710004048FAF7A6F9E86A00283C004C680000B7
:10A72000FCDA221C0F2001990AF0A4F8384D022708
:10A730002F63384A64260020AA21083213180130FA
:10A740000004000C64281974F8D3168100205060AE
:10A75000101C103010600025171CD2603C00886867
:10A76000000008E0281CF9F7A2FF413178190135F3
:10A770002D042D0C0174B542F4D3264D6F630120D6
:10A780002863244DE86A0028FBDA0B223B1C244E88
:10A7900003E00132642A00D10022101C0C213C008D
:10A7A000C46800000139755C1F183F7CBD42F3D1BD
:10A7B000013800D563200029F4D1184E501CF16BEC
:10A7C0001A4A101C0138FDD1F06B884201D0011CDF
:10A7D000F7E702273763164D9021281CF9F7CEFDC5
:10A7E0003C0000690000281C28302860281C10301C
:10A7F0002F81E860281C20302861042100E00CE053
:10A800002983E861ED62756301203063221C892091
:10A8100001990AF038F800202863FEBD00000857AF
:10A8200001003C003C69000000300700108E010070
:10A8300074FF010009570100204E0000E4FE0100F2
:10A8400080B513281ED0F02816D109F0B5F90028DC
:10A8500013D10DF0BFFA11F00DFC00220421C42029
:10A860000CF01CFF3C0078690000094800210078CA
:10A8700005F03FFD05F093F807490120086080BD11
:10A88000011C0120FAF787FC80BD00F032F880BD82
:10A8900000006A5701003CD90100B0B50CF0FFF987
:10A8A0000B49022448603C00B46900000A48046176
:10A8B0000120772109030861084D6868800702D4E8
:10A8C00068682043686009F0C7F96868A043686059
:10A8D0000020B0BDE060010000300700000107006B
:10A8E00080B50123032200213C00F0690000022012
:10A8F0003CF0F1FA002801D0FAF781FC80BD1CB5CC
:10A90000FCF7F5FAFAF719FE01F003F90024211C0F
:10A91000684601F0E2FB00AB1878012803D002285A
:10A9200001D0032801D10CF0B2FC3C002C6A0000DD
:10A93000013424062416062CECDBFAF709F9FAF7A1
:10A94000E7FCFAF733FAFAF76DFAFBF7DFFF05F0E9
:10A950004DFB06F081FC0BF07DF907F029FC114856
:10A960001021016009010160C90201603C00686AB0
:10A97000000089000160202101600421016008219C
:10A98000016040210160802101608900016049006F
:10A9900001604900016049000160C9030160890B41
:10A9A0000160F9F741FF1CBD0000001007003C00EA
:10A9B000A46A000080B53BF04FF83BF07DF9FAF750
:10A9C0004BF980BDF8B5002500240022002871D085
:10A9D000434FB9680B1ABB60F868391C0130F86046
:10A9E000896A002B1EDC0224002906DAFB699842E2
:10A9F0003C00E06A000006DD3B69984209DD07E0A3
:10AA0000BB69984201DC012403E07B69984200DDC8
:10AA10000324786A002808D000207862032C01D132
:10AA2000022402E0022C00D101242E48012C0079DE
:10AA300018D13C001C6B0000BB78994215DA3B78BA
:10AA40007B7039700131B96201D50131B962B96ADF
:10AA50000125994203D1042804D2013000E00020EE
:10AA600038710122002933DA27E0032C35D1002682
:10AA7000002807D03C00586B00001E498140386A0E
:10AA800008180CF05CF800282CD01B480078400710
:10AA900005D5F8683969884201DB0323FE56B86A98
:10AAA000B04212DD01217962397801257970387060
:10AAB0000138B86288423C00946B000001D000214C
:10AAC000397100280CDA0720387100E012E007E045
:10AAD0003879002809D0FF30387106E0002A02D00A
:10AAE0000CF0F8F83862002C04D0FEF797FD291C12
:10AAF00008F0FCFBF8BD00003C00D06B0000AC7E11
:10AB0000010050C300001D75010080B510680028C9
:10AB100002D000F00AF880BD0348C069806808F0E0
:10AB2000B2F980BD0000846A010010B5041CC06841
:10AB3000C068002801D1FAF77AFB3C000C6C0000D9
:10AB4000E068E169C068231C014AFFF7D7FB10BD2C
:10AB5000DD6B0000B0B5051C0C210020FAF7D6FC17
:10AB6000041C006800214160016029880181698816
:10AB70004181291CFF312131201C03F03C00486C2D
:10AB8000000077F9291CFF314631201C03F071F9D0
:10AB9000291CFF315031201C03F06BF9291CFF31B7
:10ABA0004331201C03F065F9291CFF316331201C5F
:10ABB00003F05FF904480068002802D0201C3C0024
:10ABC000846C0000FFF78EFD201CB0BDE462010024
:10ABD000F8B5051C0C1C04D105211820FAF702FB5E
:10ABE0004DE0291C12310622601CF9F725FC221CBD
:10ABF00030320026002100201670344B1B5C2F8A57
:10AC00003C00C06C0000DF40FF0707D51778013318
:10AC100001371770671830377B70013101300E280B
:10AC2000EEDBA87B6072107800282BD02A481E210A
:10AC3000095C271C1037217201686181C189217765
:10AC400081893C00FC6C00007973C18AA181018B71
:10AC5000E181428A211C60314A80828A8A801F49B0
:10AC60002C31097A002909D002290AD10122626215
:10AC70006272428BA281808BE08103E001216662D7
:10AC800000E000213C00386D0000E87B084001D165
:10AC90000020F8BDA868431C09D0221C1232009283
:10ACA000931D0232211C01F09CFAA06200E0A66212
:10ACB000687B291C1D3120740B4820222062201C37
:10ACC0004230BE73F9F73C00746D0000C1FB4034A4
:10ACD0002670687E0449607068682C3148600120E5
:10ACE000DAE7000090580100C86E010091020100EF
:10ACF00070B5161C0D1C041C002806D00C20FAF799
:10AD000047FD30C0083806723C00B06D000070BDD1
:10AD1000002070BD0000011C054880B5006801D00E
:10AD2000012100E00021FCF7A0FC80BD00000C79AF
:10AD3000010070B50E1C041C002801D1FAF78FFA2F
:10AD4000064D2868002801D0FAF73C00EC6D0000A1
:10AD500089FA04482E60C4600121017070BD0000B2
:10AD6000A87E01003000070010B5074C20680028BD
:10AD700001D1FAF777FA054800692168F9F7DFFA97
:10AD80000020206010BD0000A87E01003C00286E5D
:10AD900000003000070001200549C00680B50860AA
:10ADA0000022032154200CF0B8FC80BD00000010EC
:10ADB000070080B500220421C4200CF0AEFC80BD49
:10ADC0000000044880B500880249FFF7B8FF3C0046
:10ADD000646E000080BD0000754B0000C874010067
:10ADE000F8B5061C31480025C0680C1C002830D07E
:10ADF0002E482F4F0430007838762C4804304078A5
:10AE00003881002A0BD0F9F7A5FA1F20B876201C4C
:10AE10003C00A06E0000F9F7F6F925480430807870
:10AE2000B87643E02548224984424D6902D26C43FA
:10AE3000E40B0FE01F48211C806A0090F9F723FC07
:10AE40000099021C4A43A11A1A4A6943526AC90B63
:10AE500050433C00DC6E00004418022C01D8002056
:10AE6000F8BDF9F77DFA1F20B876201CF9F7AEF986
:10AE7000041C114804308078B8760F4F7D6AAC42CC
:10AE800004D2201CFFF722FC051C12E0211C281C08
:10AE9000F9F7FCFB3C00186F0000061C6843201A01
:10AEA000FFF717FC051C002404E0786AFFF711FC8B
:10AEB00045190134B442F8D3281CD4E70000C87403
:10AEC000010030000700C0C62D00011C7D2080B5A8
:10AED000C000F9F772FB3C00546F00000249886122
:10AEE0004008C86180BD0000C874010010B5064C60
:10AEF000211C00200BF042FA211C00200BF00AFA62
:10AF000000F068FE10BD0000856F000030B50F4DE9
:10AF10002A78042A19D8002A3C00906F000017D024
:10AF2000002107E04B005B185C190123E4568442C2
:10AF300002DA01318A42F5DC8A4200D10139480047
:10AF4000401840198178024A343A1170C078507024
:10AF500030BD0075010030B5111C3C00CC6F000005
:10AF6000383185B09162082111860023141C011C20
:10AF70005363C068154D0BE00268AA4206D1C2684F
:10AF8000CA60C3600360FAF7D1FA03E0011CC0682D
:10AF90000028F1D1221C4032082120683C000870B2
:10AFA0000000FAF764FB0B49201C4830029004941F
:10AFB0000391E069828801686E2001920091221C51
:10AFC0005632035D211C28312068FFF758FA05B07E
:10AFD00030BDA07E0100D57000001CB507493C00C3
:10AFE00044700000021C01900091C069131C848809
:10AFF000016810684833221CFFF708F91CBD0000E7
:10B00000C96F000010B5141C184803F089F8A0425D
:10B0100001D0FAF745F90422201C4030A16AF9F763
:10B020003C0080700000BDF9002802D101202062A0
:10B0300005E0002020628420005D002803D1201C50
:10B0400009F023FB05E02068FAF779FA201CFAF7EB
:10B05000A4FBE0698079062806D1206A0649002809
:10B0600003D03C00BC70000008690130086110BDCD
:10B0700048690130486110BDA06A010028610100E3
:10B080001CB5141C154803F051F8A04201D0FAF782
:10B090000DF9201C4F300279417900AB12021143A7
:10B0A000C27812043C00F870000011438278120646
:10B0B0001143009101784078090208439880201CD0
:10B0C000694606F03CF9002803D1201C09F0E3FA98
:10B0D0001CBD2068FAF739FA201CFAF764FBF7E781
:10B0E0000000A06A01003C0034710000BCB51F4D97
:10B0F000141C281CDC3003F01FF8A04201D0FAF722
:10B10000DBF8A06C00AB027881781202114302795F
:10B110001204114342791206114300918179C079DA
:10B12000000208439880201C3C00707100006946B2
:10B1300006F00BF9002817D001280ED1ED6C002D78
:10B140000BD08020025DE06C0121002800D100219D
:10B1500060686B460A30F9F723F92068FAF7FBF9C3
:10B16000201CFAF726FBBCBD201C3C00AC71000083
:10B1700000F08EFEFAE70000C4690100BCB5041CB3
:10B18000406A0025002803D06068008B05072D0F5A
:10B19000221C403208212068FAF77EFAA168019546
:10B1A0000091211C221C6032206850313C00E87163
:10B1B00000000D1CE36809F0E2FFE069806B0028E5
:10B1C00003D1FEF7E8FA002801D0182000E0102093
:10B1D000064901940091E169082309680A18211CB5
:10B1E0002831281CFFF787F9BCBD357100003C00F1
:10B1F0002472000010B5101C3830906204201086B4
:10B20000002050631068141C40320421FAF74AFAF7
:10B21000231C211C2831024A2068FFF7BDF810BD0D
:10B22000657000000EB5C369021C9888054902923A
:10B230003C0060720000019100901B6810689169E9
:10B240000322FFF7AEF90EBD0000257200000EB517
:10B25000021C0649102000900292131C01911068F4
:10B26000002270330021FFF79CF90EBD000025720B
:10B2700000003C009C72000010B5031C002100205F
:10B28000084C00E00131CA00A2589A4202D00B29B2
:10B29000F8D310BD0B29FCD2C90009190020087190
:10B2A000012010BD385801008CB500AB86211980F3
:10B2B000011C04483C00D872000006F0EEFE01902C
:10B2C000684606F0FAF88CBD0000707C010010B5ED
:10B2D000041C0D480D4994B00480062218310C302E
:10B2E000F9F7FBF801A807F0A2F80C2009A94872A9
:10B2F00000AB1C8002213C0014730000684603F080
:10B30000DBFF049001A806F0D1F814B010BD0000D6
:10B31000587C010080B504F045FE05F053FA80BD6D
:10B3200010B5194CE068002806D0611C0878002888
:10B3300003D14878FF3008703C005073000010BD06
:10B34000FF300006000E0870A1680029F7D0002821
:10B35000F5D10E4854308178002903D1C178FF31EE
:10B36000817010BDFF310906090E8170F9D1A16904
:10B370000029F6D0808803F0D0FB3C008C730000DD
:10B38000044A011C5C320C3205CA801AA269F9F722
:10B390001FF810BD447D0100F0B5041C4068002575
:10B3A0000179002285B0C907CB1769490133896A41
:10B3B000102905D36649C039086B01303C00C873B9
:10B3C000000008638EE021680E68F678B706FF0F6C
:10B3D000B609002B049706D063691F1C1B6A5037FF
:10B3E0009F4200D10125002D02D063691B6A04E051
:10B3F0003C23594F7343DB190433E3619F883C00BE
:10B4000004740000002F70D09B79022B6ED0042BA7
:10B4100017D0062B69D10868A06108890438088113
:10B4200020680168043101604E4900295DD0049F05
:10B43000BA425AD14948221C1C3002F065FE05B0C0
:10B440003C0040740000F0BD0968251CCA794035F5
:10B45000261CEA738B79221C503213704B796036AC
:10B4600053700B7993704B78D37009781171002168
:10B4700029721621B173616A002906D0018B090770
:10B48000090F3C007C7400002972B1811821B1734E
:10B49000011C0A31201C06224930F9F733F8606894
:10B4A00014220188E982011D201C5830F9F72AF87E
:10B4B000E88A30490840012189030843E8827089FD
:10B4C0000F2108403C00B874000070812068018999
:10B4D00008390181206801680831016008210020D5
:10B4E000FAF783F8051C026820680821FAF7FBF8D0
:10B4F0002068FAF774F82149C5602FE030E0FFE7D3
:10B50000216860680A683C00F47400008023A2642B
:10B510001E55E564557913792D025B1995792D0433
:10B520005B19D5792D065B19957812781202AA1845
:10B5300015040A892D0C083A0A8121680A68083224
:10B540000A60E169021C0A323C003075000001A863
:10B5500009680BF03EF9E0692B1C0168201C703073
:10B5600001AA0BF086F9094901226DE72068FAF774
:10B5700022F8201CFAF74DF970E7846A010068612F
:10B580000100557200008FC7FFFF3C006C75000082
:10B59000417000007972000080B502218220F9F725
:10B5A00093FE80BD704700007047000070470000A8
:10B5B00070470000704700007047000070470000AF
:10B5C00080B5C068F9F7FAFF012080BD3C00A8757E
:10B5D000000080B50021FF20F9F779FE80BD70479B
:10B5E000000070470000012070477047000070475E
:10B5F0000000704700007047000080B506219920C8
:10B60000F9F765FE80BDB0B500250129124C3C005C
:10B61000E47500000FD10AF00FFC00281DD06178FE
:10B620003C235943091904310162611C416284625F
:10B63000041C503406E000290FD13C2050432570F3
:10B6400004190434002C08D02068002802D02021DE
:10B650003C0020760000F8F718FFA5800720A071B5
:10B66000B0BD6861010070B5041C002101F041FC0F
:10B670006068002801D0216801602068002801D09E
:10B6800061684160124E7068A04201D160687060CC
:10B69000E0683C005C76000000280BD0002506E046
:10B6A000E068E900411814200BF0E2FF0135308812
:10B6B0008542F5DB0621201C4430F8F7E9FE206BBB
:10B6C000002801D0F9F786FFE069002801D0FAF7D9
:10B6D000AFF870BD3C009876000058750100F0B5D9
:10B6E0001D4F059D3F6801261C1C331C002F00D0F8
:10B6F0002B1C1D062D0E002906D011780E23164F87
:10B700000918097A6B4310E02178002913D0FF3122
:10B710000DE0012901D93C00D476000001311170FF
:10B7200011780E230F4F490811700918097A6B43DD
:10B73000DB19595C21702178002902D11178002988
:10B74000EAD10948C068002805D02178301C0029BA
:10B7500000D10020F0BD01203C0010770000F0BDBA
:10B76000000018670100246701005C670100AC7CE1
:10B77000010084460020F0B5002909D011781A4E46
:10B78000B170194EB178717031700121316127E0CB
:10B79000164E0123F15663465F683C004C7700006B
:10B7A0000023F6560125CC0FB74200D90025002C06
:10B7B00001D0002DE8D10E4F3B69002B03D0002DA6
:10B7C00001D1167002E01C4301D111700120012447
:10B7D000002B00D000243C61002C02D03C00887774
:10B7E0000000711C397001E0FF3179700028D5D05C
:10B7F0000120F0BD0000AC7C010090B50A4C002097
:10B8000093B0206103906846002108F084FD207AFF
:10B81000022801D1E06B00E0206CE06101203C00D7
:10B82000C477000008F08AFD13B090BDF46E0100EB
:10B83000F7B5051C88880C1C82B01F4F002800D16A
:10B8400000270498002801D1F9F78AFD1B483B1C0A
:10B850000068211C0268281C0092049AFEF73CF83C
:10B860003C0000780000061C22D00321049802F05E
:10B87000B8FF00281BD08078012103F0E4FFA088E6
:10B88000A18E484300040F49000C088003F081F9A1
:10B890000122002D00D10022011C0E200BF0C9FE58
:10B8A000002F3C003C78000008D10021281C02F049
:10B8B000BDFC03E00026281C00F00AF8301C05B08F
:10B8C000F0BD0000C1A10000E4650100A87C0100FA
:10B8D00010B5041CFEF738F80121002C00D100211E
:10B8E0000E200BF03C0078780000DDFE10BDF8B5AE
:10B8F000071C0BF094FAFDF7BCFE002602281E4D33
:10B9000001D02E70F8BDFDF73EF8041CF9F759FC84
:10B91000002814D0FDF777F8002810D002F0F9FBCA
:10B92000002801D000243C00B478000000E0154C51
:10B93000331C211C072216200BF066FF687880213B
:10B940000843687002F00AFC0028DED128788007DE
:10B95000DBD4FDF723F9002805D12878C00702D5EC
:10B96000FDF742F8D1E702F03C00F0780000CDFB93
:10B970000028CDD02878022108432870211C381CCB
:10B98000FDF7C1F8C4E7606C01007102000010B55A
:10B99000124C01202070FEF7F0F90121A068FBF79E
:10B9A000F4FEA06803F087FF0D483C002C790000EE
:10B9B000A16807F023FDFBF755FFE06800280DD0D4
:10B9C000094906200AF024FD084905200AF020FD57
:10B9D000FBF76EFF002801D005F0F8FC10BD000059
:10B9E0007869010034630100E13500003C006879AA
:10B9F0000000B1350000F0B5244D234C687C203C9C
:10BA00009BB0002808D0022803D820890138208163
:10BA100037E000276F7434E01C4E68221436311C66
:10BA20000C3101A8F8F709FE1848338901213C00C0
:10BA3000A479000044300A1C002B007B00D1021CBA
:10BA40001206120E0DAF3A709446AA7B931930334A
:10BA50005B7B7B70EA7301321206120E0027824272
:10BA6000AA7301D3AF7304E06246012A01D1776063
:10BA70003C00E079000000E071600648074A803829
:10BA800081674267682201A9F8F7DDFD278108F088
:10BA900012FD1BB0F0BD84660100E92E0000F1B577
:10BAA00086B006990020886106988468808D656854
:10BAB00001283C001C7A00004CD9354949680591A1
:10BAC000002947D00022002100230390281C96461D
:10BAD000944606680496F2788026B2433F2A2ED810
:10BAE000D706FF0E0126BE40371C049E5209B678C9
:10BAF0007600B2183C00587A0000264E92001C36A0
:10BB0000B2583A401ED003E002900289C068511832
:10BB10000028F9D10598814214D870460130864634
:10BB2000002B04D06046D86001986246D06003982C
:10BB30000138039006D03C00947A0000231C24684E
:10BB40006068029A01909446C9E77046012807D9B7
:10BB50002A1C00213F2001F051FF051C0698856139
:10BB6000281C01F0B3FF0E480068002807D02868A1
:10BB7000018840790231091A3C00D07A0000281C63
:10BB800001F0E5FCA2680698C06806990B69291CBB
:10BB9000F8F77CFC034908690130086107B0F0BD83
:10BBA0000000FC5A0100CC5C010010B5094A80007D
:10BBB0001258D006C00E0130074B3C000C7B000031
:10BBC0001C68002CFCDB5A602022121A914019607C
:10BBD00019680029FCDB10BDE86001003020070077
:10BBE000B0B5124C00252570A168114807F032FC51
:10BBF0006561FBF7A3FEE06800280DD03C00487BA0
:10BC00000000FBF7A4FE012107200BF070FD0A499C
:10BC100006200AF04CFC094905200AF048FCA068FF
:10BC200003F067FE0021A068FBF7CDFD05F0ABFB3C
:10BC3000B0BD7869010034630100E13500003C00CB
:10BC4000847B0000B135000010B50F4C207C00282B
:10BC500019D16069002816D1E068002806D00A488A
:10BC60001C38C068002801D005F0CEFB0121072058
:10BC70000BF040FDA06803F03FFE0448A16807F008
:10BC80003C00C07B0000DBFB0120207010BD786908
:10BC900001003463010070B50E4C0122A368E56811
:10BCA000268A5D1BB54201D1002206E025680133DA
:10BCB0002E68A3602660043503C5002A04D1012143
:10BCC0009D203C00FC7B0000F9F752FB70BD03494E
:10BCD0000220086070BD000044E30100402007001E
:10BCE00080B502F0B9F880BD80B502212D20F9F7AA
:10BCF0003FFB002080BD000080B502212A20F9F71B
:10BD000037FB00203C00387C000080BD000080B57F
:10BD100001212B20F9F72FFB022080BD00000149F3
:10BD20000120086170477C780100F8B5061C0C23DF
:10BD30000F1C1749584345186C68301C0BF03FFE28
:10BD4000002F09D1301C3C00747C000003F0EEFE93
:10BD5000412007551148211CFFF7A6FFF8BD4120DF
:10BD60000755A06B002803D0201C00F0DFF9F5E791
:10BD7000201C00F0DBF9AC68002C02D00020A86089
:10BD8000EDE7301C05F034F93C00B07C0000041CE9
:10BD9000E8D108210C20F9F7F4FAE3E70000607B12
:10BDA000010055800000074A80B55070516012783C
:10BDB000064B80005201D218101840380268081C47
:10BDC000F8F77BFB80BD786901003C00EC7C00004B
:10BDD000FC420100B0B50A49041CC870084DE435A6
:10BDE000A87A0871082C01D3F9F7FCFAA87A05495A
:10BDF00040014018A1004058F8F760FBB0BD0000BA
:10BE0000606C01008043010080B500283C00287D63
:10BE1000000001D009F01DF980BDB0B5051C0C1C57
:10BE200000200860686809F036FB6C60B0BD10B592
:10BE3000041C09F034FB2168002900D1646010BDA6
:10BE400000000021016040607047F8B546683C0082
:10BE5000647D0000041C406A351C0A35002804D0AB
:10BE6000201CF9F789FD071C00E00427291C6069E4
:10BE700000F0F6FC79000F18BA88F18A051C8A4296
:10BE800005D13088000502D504F0BEFB3CE02868EF
:10BE90003C00A07D000000280FD001328A4204D16E
:10BEA000F9F70FFC2168C1600BE0F9F7F0FBF08AAD
:10BEB000000704D00021296029E0080727D1206865
:10BEC0002860F08AB8801348016801310160318828
:10BED00049053C00DC7D000018D429682160002160
:10BEE0002960E16900290DD0897902290AD1082148
:10BEF0002186211C3831A162221CDC30084902F065
:10BF000081F9F8BD201C00F05FF8FAE7201CF9F772
:10BF1000EFFCF6E73C00187E00002068F9F7BDFB57
:10BF2000F7E7C4690100B9710000F8B50F1C097882
:10BF30000124C90721D502F08CFF002801D000247C
:10BF40001BE00E4E756E002D17D0346E0622311C8C
:10BF5000381CF8F7D4FA3C00547E0000002805D1C4
:10BF60000120002C00D00020041C03E0013D063617
:10BF7000002DEED1002C03D1024EB06E0130B06620
:10BF8000201CF8BD1079010030B5051C00200649C1
:10BF900000221C23CC56AC423C00907E000001D114
:10BFA000081C30BD01324831012AF5D330BDCC6DBB
:10BFB000010010B5084C00221C235343E358834270
:10BFC00004D11C20504300190A6010BD01320E2A12
:10BFD000F2D3002010BDDC7101003C00CC7E0000DB
:10BFE000F0B5416895B0071C90371391041CF878A0
:10BFF000251C8035C6072879F60F4A4902284DD1FD
:10C000000A6D002A4AD04868013048600AF058FF9B
:10C0100044490861486113990979C9073C00087FC0
:10C02000000001D441498861206806220690A16879
:10C0300003A8F8F7EEFA062204A80230E168F8F740
:10C04000E8FA07A806222169F8F7E3FAB87808ABFE
:10C05000002198700C96636A201CA0300A1C3C00DA
:10C06000447F0000002B02D0028A5207520F08AB17
:10C07000DA7000AB998413990988C90BD984696B6C
:10C0800010AB1091A96B1191808B29491881096D12
:10C0900003A8F8F732FA2979686B0BF04DFD29797E
:10C0A0003C00807F0000A86B0BF067FD3DE000289E
:10C0B00038D1486D1490002834D0206806220390AF
:10C0C000A1686846F8F7ABFA062268468018E1686E
:10C0D000F8F7A5FA05A806222169F8F7A0FA0021C9
:10C0E00004913C00BC7F0000B97808A810AB017235
:10C0F0000896E9680B9169794172686B0E90A86B9C
:10C100001090288DD880688D1881E1690CA80029CD
:10C1100004D089790170206A0D9001E00721017037
:10C12000684614993C00F87F0000F8F7EFF902E048
:10C130002068F9F7CAFA201CF9F7F5FB15B0F0BD35
:10C140000000C4690100B0B5041CC0680622018962
:10C150000C3101810568211C0C3D0560A818F8F719
:10C1600064FA0622A1183C0034800000281CF8F76D
:10C170005FFAA08F0009E062206303480169201C78
:10C18000F8F7C7F9B0BD00007C790100F8B5061CCE
:10C190006036051C707A0C23254958434418A86B57
:10C1A0000027002806D0A0783C00708000000128FD
:10C1B00003D1A770707A0AF0B6FD2A1C0C218020EA
:10C1C0000BF095FBA86B002833D0A07802280BD089
:10C1D000042822D1A7702F1C4037787802280CD170
:10C1E000707A0AF0A0FD18E003203C00AC8000004B
:10C1F000A0701249002014390969F8F790F90FE08E
:10C200002C1C07E078784121221C08550C21802045
:10C210000BF070FB6034607A04F020FF041CF1D155
:10C22000707A4035A98B0002090909043C00E880B6
:10C2300000000843812101430C200BF0A0FAF8BD57
:10C240000000607B0100F8B51C49051C886A0130BC
:10C250008862281C0BF07DFD041C11D02B1C2033A0
:10C260001E1C5A79201CB4301979144FFDF73C007C
:10C270002481000089F8AA7A201CB830B179FDF732
:10C28000B9F8002F04D101212868FAF76DFAF8BD3A
:10C290006068BC21C08A085328680021FAF764FA54
:10C2A000002809D00649C86A0130C862002CEED0C7
:10C2B0003C0060810000201CF9F747FBEAE7201CE6
:10C2C000F8F73CF9E6E7C4690100A1FF0000F8B502
:10C2D000164C051F0022211CA03103E02868A04253
:10C2E00009D02034A142F9D1002A04D102218E20A4
:10C2F000F9F73C009C81000083F8F8BD0D4FBE7932
:10C30000606901306061F8F797FDA84207D1A08805
:10C310000430F8F797FDE0690130E06105E020683E
:10C3200028602560A0690130A061BE71E5E70000CA
:10C33000D05C01003C00D8810000201007000029DB
:10C3400001DB062901DB02207047064BC9005A5C5D
:10C35000C91802704A7842708A78827049684160D0
:10C36000002070470000CC5A0100B0B50D1C041C21
:10C37000052801D3F9F73C001482000075F8104835
:10C380004068002800D00324102D00D30F2506207C
:10C390000B496043123140184178807849190906E9
:10C3A000090E884200D2011C01208840054901384D
:10C3B000096808400004000C3C005082000002F0B4
:10C3C00044FEB0BD0000D47A010008200700B0B5DB
:10C3D000041C0D1C09F0CFFD002803D1201C09F01E
:10C3E00082FD0561B0BD80B50AF097FD034A0C32AD
:10C3F00006CA8918081A80BD00003C008C82000023
:10C40000A07D010070B50B4C049E64680DE065686A
:10C41000854209D1207A0870E068106020691860B0
:10C42000207D3080012070BD2468002CEFD10020D9
:10C4300070BD0000A46E010010B5041C3C00C88251
:10C4400000002030817B20690430FDF764F9011C75
:10C450006220025B636A4034207802F0CEFD10BD9A
:10C4600000000B4910B508888A690A2350435843D5
:10C470000ED0084A53899488D2881B1952043C0074
:10C4800004830000520C9A18C96806324A430A21F4
:10C490005143F8F7FDF910BDC874010030000700E2
:10C4A00010B5431C01D1104810BD0F4A0E4B943AF1
:10C4B0001268443B1B7A10E0546884420CD1002976
:10C4C0003C00408300000FD1022B03D1D47B022C0F
:10C4D0000AD204E0002B05D1D47BE40704D412680F
:10C4E000002AECD1002010BD101C10BD0000386FD8
:10C4F0000100011C0120012900D00020704700B577
:10C50000021C3C007C830000FDF7CEF8002808D018
:10C51000101CFFF7F1FF1823034958434018006926
:10C5200000BD002000BD00009467010080B5002818
:10C5300000D10848074900685031097A002902D023
:10C54000022904D13C00B883000000E0012100F082
:10C5500006F880BD002080BD0000A46E0100124AD4
:10C56000124B127A2C3B002A03D15A68002A18D1A8
:10C5700004E0022A02D19A68002A12D100207047F2
:10C58000C27B8A4201D03C00F4830000032A0AD116
:10C59000827E012A07D1027F01321206120E027733
:10C5A000C37E9A42EED200680028ECD170470000AA
:10C5B000F46E0100F7B58446002001270024002511
:10C5C00088B007E06246525D3C0030840000002ADB
:10C5D00005D0AB006E46F25001358D42F5D3002DEB
:10C5E00000D00120002828D00027164C6E4622E0FB
:10C5F000201C00F030F8012801D0072806D10021C6
:10C60000201C00F034F8316888423C006C84000043
:10C6100001D2022714E02068C9000C18083C201C35
:10C6200000F01CF8072807D10120012D00D00020C0
:10C630002468002800D10834013D0436002DDAD1E9
:10C640000A9804600BB0381CF0BD00003C00A884C0
:10C650000000205201000068002901D08002800AF9
:10C66000704710B540688000440F082C03D30221A6
:10C670008720F8F7ECFE201C10BD002902D00068CE
:10C68000800D704740688005800D704700003C00B9
:10C69000E484000010B540684001440F052C03D32A
:10C6A00005218720F8F7D6FE201C10BDF8B5051C23
:10C6B000880A00901C488E05C069B60D171C1C1C0A
:10C6C000002805D1184881698D421DD0856111E08F
:10C6D0003C0020850000FDF7E8F8154909780E298F
:10C6E00007D1002805D0114950310623C956F9F762
:10C6F00006FA0E490020C8618D61291C201CF8F73C
:10C70000E2F87943201CF8F7DEF808484161201C64
:10C7100000993C005C850000F8F7D8F805484069AE
:10C720000A18A24201D2401801E04018001B800202
:10C730008019F8BDAC7C010011670100F8B50F1C31
:10C74000061C141C1D1C07F0A1FC0E2809D1201C7E
:10C7500002F0FCFB3C0098850000002804D008484B
:10C76000007802F0E4FB041C0121002EAC7200D022
:10C77000391C201C02F007FC2860002028726C7213
:10C78000F8BD90570100031C0A4810B50024021C94
:10C79000A03203E081883C00D4850000994209D290
:10C7A00020308242F9D1002C04D102218E20F8F7EA
:10C7B0005DFE002010BD0000D05C0100FFB5061C2E
:10C7C000002081B010601F1C0125141C301CFFF7D5
:10C7D0006DFF052812D202A33C00108600001B5CEE
:10C7E0005B009F440000030303030800391C301C56
:10C7F000FFF755FF03E00298F8F7EBF801302060EF
:10C8000004E005218720F8F734FE00252068802801
:10C8100004D906218720F8F72CFE3C004C86000046
:10C820000025281C05B0F0BD70B5174C606C0028C1
:10C8300001D001201DE0164E144D3188A06C002857
:10C8400008D02878814205D9F8F74CF80138FAF772
:10C8500051FE0EE0E06C00280AD000203C008886E3
:10C860000000FAF74AFE29783288914204D99042B2
:10C8700002D9101C00E0081CFAF7DFFDE16B441A36
:10C880000AF081FB201A00D5002070BD0000447D15
:10C890000100F8600100FC600100FFB5274E3C007C
:10C8A000C4860000041CB0790F1C151C81B00090D8
:10C8B0000AF06CFBC11923480768002F05D10A2133
:10C8C0008020F8F7DFFD05B0F0BD1E4840688446C3
:10C8D000002801D100220EE082680368AB4207D134
:10C8E0003C00008700000379A34204D10B21802083
:10C8F000F8F7CBFD23E0C0680028F1D1134BF868AE
:10C9000018603D603C71B96004988D1A38616046CA
:10C91000002305E08468A41AAC4203DA031CC06853
:10C9200000283C003C870000F7D1F860002B08D1BC
:10C9300007483B1C47600848064A00880AF08AFB03
:10C9400000E0DF600098B071C3E70000201007002E
:10C950007C5D0100213801002C740100F3B583B027
:10C96000041C09D03C0078870000201C049909F0C1
:10C970008EFB002803D0201C303005B0F0BD0AF03B
:10C980000EFB1E4A0026049F019600900292029C14
:10C990000025391C201C143002F0C5FA002801D0F3
:10C9A000261C03E001353C00B48700001C34042D34
:10C9B000F2D3002E22D10198134F013001900228AA
:10C9C000E8D30121C906029A00201369009CE31AEA
:10C9D0008B4201DD191C161C01301C320428F4D3D3
:10C9E0003068002801D0F8F73C00F0870000D3FE43
:10C9F000301CFDF74AFF301C143006220499F7F76B
:10CA00007AFE009C301C3461BDE7306A010034427C
:10CA10000100094910B54C6903E0E168814203D087
:10CA20002468002CF9D101E0002C3C002C88000087
:10CA300003D102210220F8F737FD201C10BD0000B1
:10CA4000FC5A010010B5C30706D5084B5C690C43BE
:10CA50005C611C7E14431C76800706D5044843693C
:10CA600019434161017E1143017610BD3C00688885
:10CA70000000FC5701001858010070B50D1C041C83
:10CA8000161C00F008F8A007C0170130321C291C42
:10CA900000F021F870BD10B5C30706D5084B5C69DE
:10CAA0008C435C611C7E94431C76800706D53C0059
:10CAB000A4880000044843698B434361017E91438D
:10CAC000017610BDFC570100185801000322111F08
:10CAD00080B5012000F002F880BD000030B5151CC3
:10CAE0000C1C002887B002D01C22224901E02249F8
:10CAF0003C00E08800001C226846F7F764FE0599B8
:10CB000000AB1A7E8C43201C9543029A291C0240DC
:10CB10000292019A02400192009A02400092039A06
:10CB200002400392987C08409874587C08405874DE
:10CB3000187C3C001C89000008401874D87C084010
:10CB4000D87402991048416101AA06CA91438161D3
:10CB50008168019A114381608168009A91438160E4
:10CB600000AA06CA11434268114341604168039A12
:10CB7000914341603C005889000004A80BF001F883
:10CB800007B030BD0000FC5701001858010010002C
:10CB9000070010B5041C011C012008F0E0F9002C6E
:10CBA00002D003F01CFF10BDFEF7D1FC10BDF0B5A4
:10CBB0000C1C010E01233C00948900001B06090691
:10CBC00099429FB028D11749084000211A2800D364
:10CBD0000221002919D1C500134F10A8EE19B288FF
:10CBE0002168F7F79DFD201CF8F7EAFD7A5901A9A5
:10CBF00010A8F7F707FD00283C00D089000005D0F9
:10CC0000109801A90190B07900F09DF81FB0F0BD17
:10CC10002A20F8F75EFC201CF8F7D5FDF6E7032183
:10CC20002A20F8F756FCF1E700007FFFFF002445BB
:10CC3000010010B50C1C802802D03C000C8A0000BA
:10CC4000812808D103E0201C00F006F910BD201C4B
:10CC5000F8F7BCFD10BD03212C20F8F73DFCF6E7EA
:10CC6000F0B50C1C00218BB00A91010E01231B06AC
:10CC7000090699422AD118490840061C3C00488AF6
:10CC80000000062E01D3072124E02089F8F7F1FEE9
:10CC900022892168051CF7F74CFD201CF8F799FD47
:10CCA000F4000F4E281C0AAA69463359F7F7B4FC62
:10CCB000002801D0012807D12868694600903C006F
:10CCC000848A0000A01900790A9A00F009F9281C4A
:10CCD000F8F7B0FE0BB0F0BD01212B20F8F702FCF5
:10CCE000F8E700007FFFFF00284601000A1C010E44
:10CCF00001231B060906994280B508D05B009942C2
:10CD00003C00C08A00000BD10006000E111C00F090
:10CD10000EF980BD05490140101C05F0A2F980BD47
:10CD200001212D20F8F7E1FB80BD7FFFFF0080B5DA
:10CD3000011C0F2000F013F880BD80B5011C0420F9
:10CD400000F03C00FC8A00000DF880BD80B5011C9D
:10CD5000172000F007F880BD80B5011C012000F00D
:10CD600001F880BDF8B5041C061C802084430F1C0C
:10CD7000192C01D3F8F7EAFB0848045D211C0020B8
:10CD8000F8F750FD3C00388B0000051C221C391CB4
:10CD90000068F7F7DAFC2A1C311C0720F8F711F9B4
:10CDA000F8BDF4450100F8B50D1C161C041C1F1C31
:10CDB00008210020F8F739FD142201680E4B724358
:10CDC000D2180C71127C3C00748B00004A710D600B
:10CDD0000B4A8F7112687F2A03D95205520E8023A5
:10CDE0001A43CA71074A0023516801315160021C7D
:10CDF00081210020F8F708F9F8BD00007440010017
:10CE0000FC5A0100806E01003C00B08B0000B0B500
:10CE1000041C08210020F8F70EFD218BE27D051C83
:10CE200009055207520F490C006811438180A17D0A
:10CE300014230E4A59438918097CC171E16A0160C3
:10CE4000E168281CF8F717FC0A483C00EC8B00004E
:10CE50000068002801D0F7F7F1FB07490431886822
:10CE60000130886000212A1C0020236BF8F7D2F8DB
:10CE70000120B0BD744001007C6E01000148806853
:10CE800070470000806E010010B5041C3C00288C27
:10CE9000000092B0016868460822F7F762FC00AB18
:10CEA00098884007400FD87798884004000D188470
:10CEB000D888588400980D900594208908382081DE
:10CEC000059801680831016000200A900C903C0030
:10CED000648C00000021112009F078FB0549064A06
:10CEE000086801300860022102A801F0CDFC12B0F0
:10CEF00010BD0000806E0100558B0000021C012057
:10CF00000006084380B52B210AF08AFD80BD000091
:10CF10003C00A08C0000F7B5041C061C8020844354
:10CF2000171C062C01D3F8F726FB0B48055D291CBE
:10CF30000020F8F78CFC041C006801992A1CF7F704
:10CF400016FC391C201CF8F7A2FB221C311C002304
:10CF500002203C00DC8C0000F8F768F8FEBD000001
:10CF6000204601000A1C011C80B500230120F8F7AF
:10CF70005DF880BDFFB59FB01F1C051C0A301E90D8
:10CF80001CAA1DA90AF000FF002871D0002F09D0AB
:10CF90000A2100203C00188D0000F8F75EFC0668AE
:10CFA000041C301DFAF7AFFA05E004210020F8F761
:10CFB00054FC0668041C28893649012208807080C8
:10CFC000E88814A9308019A8FCF7F5FCFCF7FFFBF2
:10CFD000011CFF3121313C00548D0000201C01F068
:10CFE000EFF819A9201C01F0EBF814A9201C01F09E
:10CFF000E7F8201C2099FDF74BFD0022022101F0EB
:10D0000033FD061C1C9900208861301CF8F71CFABF
:10D01000002E0BD0307A00283C00908D000002D00A
:10D020004021084330721C980222816911438161BA
:10D0300004E01C9902228869904388611DAA06CAEF
:10D0400001A805F058FB09A8002F02D00222427265
:10D0500001E000214172049401A83C00CC8D000045
:10D0600004F07AFB01211C9808F0C8FF002F04D0BF
:10D070001C980122816911438161A8881C9C01F0E0
:10D080009FFE021C211C00E004E00748408809F0D4
:10D090001FF804E03A1C00210520F9F73C00088E37
:10D0A00000009BF8002023B0F0BDFC600100987CDC
:10D0B0000100F8B5041CC0680568A01D01F095FFCB
:10D0C000002845D0211C1431201C6A460AF055FE68
:10D0D00000283DD0FCF77DFA002839D100983C00AB
:10D0E000448E00004B21095C012934D1042609F04B
:10D0F00019F9688800281BD1A8880321890388436F
:10D1000015490026088001220221206901F0B8FC9F
:10D11000041C14D000988069800710D5F8F79AF99C
:10D120003C00808E0000201CF8F7DDF8002809D1B3
:10D13000F8F77FF901260098022281699143816105
:10D14000002101E00098022108F061FF0098806949
:10D15000A988C207D20F301CF9F745F8F8BDFA606C
:10D1600001003C00BC8E00001CB5046900230022B5
:10D17000002C13D14B24245C022C03D1022905D0AE
:10D18000012203E0022901D101220123002A05D056
:10D19000009004200193694609F036FA1CBD000096
:10D1A000B0B5041C3C00F88E0000F2210F200C4D9D
:10D1B0000AF099FB287808280BD201A31B5C5B00BE
:10D1C0009F440703030808080808002C01D105F054
:10D1D000BCFBB0BD012CFCD1FF2007F038FAB0BD7C
:10D1E0000000746601003C00348F00008CB5054AD5
:10D1F00000AB1172009019716946082009F00AFA13
:10D200008CBD0000AC7C0100F3B5041CC06806278F
:10D2100085B0066809F026FF984948632069032114
:10D2200001F008FC964D00283C00708F00004DD0A6
:10D230009549403109798078814247D1012120699F
:10D2400001F0FBFB02902069322101F0F6FB019016
:10D25000021C8D480299FCF746FF002836D00023B7
:10D260008A480299019AFCF7E4FE3C00AC8F00006A
:10D270000B282ED1864A51887089414003910B1C9E
:10D2800084490B4025D150800399171C00290BD0ED
:10D290000399480502D5381CFCF740FE039988061F
:10D2A00002D5381CFCF724FE2A2120693C00E88FB7
:10D2B000000001F0C8FB00280DD08078E9698142A8
:10D2C00009D0E861381CFCF716FE381CFCF707FE95
:10D2D000381CFCF726FE0027201C20300490407AE2
:10D2E000082871D10AF0D1FC0020686100233C00BD
:10D2F000249000002B61A86866490130A86030893D
:10D300005C31888201F07AFD62495C310861226AF1
:10D3100004981821007A01F033FEE16A4018039066
:10D320005C48006A00280DD0002F0BD1594801231A
:10D330003C00609000005C3001681B0700223068F0
:10D3400009F049FF002800D105270021A06B0AF051
:10D35000CEFC0021206C0AF0E8FC4F4B03CE039A70
:10D360005C33FCF788FD00204C4E0521B06320693A
:10D3700001F03C009C9000006FFB011C01D1F060AB
:10D380001CE00120F0608878454A01321070C878AE
:10D390005070474A1070306900280AD04A780879DE
:10D3A000053109F0DDFA3169F7F785F9F0680028F1
:10D3B00004D03B4A3C00D89000000132107800288D
:10D3C00008D10020A861716A002903D0201C143004
:10D3D000F7F774F9344A5C321069316A411800E099
:10D3E00020E00A23D0680A2209F0FBFE002807D0BB
:10D3F0002D4A316A5C323C0014910000D068401A1A
:10D400001169401A7060294A5C32D0683062F06954
:10D41000002804D0FAF700FD0120FAF7A1FCFAF782
:10D4200081FC2748006803F007F90698002803D11B
:10D430001E4E0023B36016E03C00509100001C4ECD
:10D440000120B060069801684068B06519487165B0
:10D450005430C088002809D0B169002906D001F0F5
:10D46000DCFC011CE06AB269F7F72FF9002F15D137
:10D4700012480169002908D101213C008C9100006B
:10D4800001612A68002A03D000210020F7F720F963
:10D4900009490023CB622B616B6106F0B5F807B038
:10D4A000F0BD6B680648002BF9D0021D111C381C1A
:10D4B000F7F70FF9F3E70000447D01003C00C89145
:10D4C0000000F4680100F467010003080000F86040
:10D4D0000100C467010008B5F8F72FFD009000AB0C
:10D4E000188800280CD005F050FF00AB5988188828
:10D4F00005F06DF9FEF797F80320FBF70EF83C00F6
:10D500000492000008BD0120FFF7B2FB002008F0E4
:10D510008DFEF7E7F8B54F498C68206A00680578FA
:10D52000FCF768FA002812D02A07920F0121012A7D
:10D5300000D00021002903D02906090F0B2906D1AC
:10D540003C00409200002A21095D08189030007BC1
:10D55000F9F70DFC414F3C3FB86B796BF7F7C0F81A
:10D56000A06C0026C660606B800804D0B8690130EA
:10D57000B86106F0DCF9394D28698005800F08D1C3
:10D5800078693C007C920000042101307861606B76
:10D590004008400008436063B86A002803D0606B0D
:10D5A000082108436063201C203000903968F7F799
:10D5B0009AF80320000228602B498868A063C86895
:10D5C000E06308793C00B8920000C006C00E251C3C
:10D5D000403528714879687123483C384662009884
:10D5E000807A01F05EFD00210028214A01D01178E7
:10D5F00003E09378DB0700D55178A971002804D0A7
:10D600001B49143108683C00F4920000206400E0DB
:10D610006E80B86AC00702D5FF202871AE71E6613E
:10D62000B8680130B8607968884203D00B21852042
:10D63000F7F7C4FF0D498868C06C8860FB6A002B4F
:10D640000CD00E4AD47B002B3C003093000002DD4E
:10D650007F2C05D201E0002C02D0D47BE318D373D9
:10D66000FE62C968884203D105218520F7F7A9FF2A
:10D67000F8BD247E010000400700A0800700E8807C
:10D68000070040000700FEB5304C3C006C930000E2
:10D69000A06B216BF7F733F82D493C318E68708B06
:10D6A000062804D2E0690130E0610E203085284967
:10D6B0003C310D68002D03D103218520F7F784FF4D
:10D6C000244845613562318DEF6804393C00A893E8
:10D6D00000000C0401210291240C002101911D483D
:10D6E0003C30808AA04203D32C81EE6000240BE002
:10D6F000002F04D103218520F7F769FF04E03D1CCA
:10D70000201A0404FF68240C0298002804D03C006E
:10D71000E493000012490120086100200290019862
:10D7200001300190002CDDD10C480C4C3C300760DE
:10D7300001983065B564306A0068606260680130E5
:10D740006060A1680131884203D00A218520F7F783
:10D750003C002094000041FF04480068A062FEBD28
:10D760000000E87D010000300700786E0100B0B5D0
:10D77000051C01210F200AF0F8F8F2210F200AF011
:10D78000F4F80C480C4C0068143C00280CD0E078ED
:10D7900001283C005C94000009D00122291C0F20C4
:10D7A0000AF0ACF86078022806D0012003E0607827
:10D7B000022801D000206070B0BD00009866010012
:10D7C0000222002880B500D1032203490E200AF06E
:10D7D0009BF800203C009894000080BD000050C3DE
:10D7E0000000F8B50023002200282ED00689046826
:10D7F000751E2D04B61AF6072D0CF60FB4460EE072
:10D80000A75CA618023300977778A7540232120457
:10D81000009F120C00293C00D4940000777001DDB9
:10D820008B4215DAAA42EED3C068002810D00289D4
:10D83000002AF9D06246002A0BD00268665D17788C
:10D8400002336755167001220029D2DD8B42D0DBEE
:10D85000F8BD0022CDE700003C0010950000B0B5F7
:10D86000041C0D1C0120F8F75EFB0D490028C8615F
:10D8700014D062684260A27C0272A268C260E26850
:10D880000261228A02750A1D0A621268002AFFD10B
:10D89000026048600020A86001203C004C95000018
:10D8A000B0BD0120FAE70000A46E0100B0B5041C71
:10D8B00040680D1C431C02D1211C094808E00020CF
:10D8C000F8F734FB064994390861002803D0211C7D
:10D8D00000F048FE00E00120A86001203C0088958F
:10D8E0000000B0BD0000386F010080B50121972015
:10D8F000F7F785FE002080BD000038B50A1C143201
:10D900000092131F051C083A0C1C16314068FEF7E4
:10D910006CFE002801D0002000E0012069683C0076
:10D92000C4950000A0606160012038BD10B50C1CDA
:10D93000017A00290FD0012909D0022903D1002141
:10D9400000200AF073FC00202071012010BD416806
:10D9500001200AF06BFC00F00DF9F4E780B50449F2
:10D960003C000096000048680138486001D107F08B
:10D970006EFB002080BDAC790100B0B5051C0C1C0D
:10D9800000F04FFEA060686860600120B0BDB0B5D7
:10D99000051C0C1C00F06FFEA06068686060012030
:10D9A000B0BD3C003C960000081C00210022002372
:10D9B0000EC008C001207047F8B50F1C041C207968
:10D9C000202801D2202020716679002E02D12579ED
:10D9D00000220DE02579291C301CF7F74FF80029AB
:10D9E00001D1321C3C007896000004E0704380199D
:10D9F00005062D0E321CE079291C00F0F2F9207A80
:10DA00002F49C007C00F08602E480078C00743D5D3
:10DA1000A1792C4AC80748D42C4E16608B072B4896
:10DA200008D5CC0801233C00B4960000A340036055
:10DA3000490704D52849116001E0402101601368BD
:10DA4000264AB34210D1546801680C4354601468EC
:10DA50000C4001D0516100E0916154680C43546066
:10DA600094682143916013E03C00F0960000547CE0
:10DA700001680C435474147C0C4003D0147C0C4398
:10DA8000147402E0147C8C431474547C0C4354745E
:10DA9000947C21439174B34205D100220168032094
:10DAA000FFF78DF809E0006800213C002C9700008A
:10DAB0000206120E0320FFF785F801E00B48106004
:10DAC000002038717D71F7F7E9FD0120F8BD0000F5
:10DAD000CC5C0100040007005C5B0100B99B000006
:10DAE000585B0100959B0000100007003C00689700
:10DAF0000000559B0000B0B50D1C04300024FEF75B
:10DB0000D6FA01206C60B0BD0000F0B5077A43681A
:10DB1000041C0E480E1C00680125011C9BB006E089
:10DB20004A689A4202D18F76002502E009683C00DB
:10DB3000A49700000029F6D1002D05D1217A0129F2
:10DB400002D101A9F8F7A8F86068043621C61BB015
:10DB50000120F0BDA46E010010B50C1C08F0AEFC55
:10DB60006060012010BD000010B50C1C07F084FAA5
:10DB70003C00E097000004F054FF002060600120AA
:10DB800010BD0020C043486001207047000010B560
:10DB90000C1C0079FAF707F8002801D0002000E0FB
:10DBA00002206060012010BD00001CB5064C2068FA
:10DBB00000283C001C98000007D009F0C5FA01902D
:10DBC000206841686846F6F7D6FD1CBDAC790100B7
:10DBD0000149086070470000AC7901000EB5064BA2
:10DBE0001B68002B06D00290009101926846D9680C
:10DBF000F6F7C1FD3C00589800000EBD0000AC795E
:10DC000001001CB5041C07F04CFA064841680131BC
:10DC10004160009400210191006801686846F6F7B0
:10DC2000ADFD1CBD0000AC79010080B5F8F7A3F88C
:10DC300080BD80B5021C3C00949800008021032028
:10DC400000F05CF8011C034800224369F6F79BFDD5
:10DC500080BD0000A46D0100F8B50C1C1349051C23
:10DC60000868161C0130086000202061221C103258
:10DC7000281D0021071C00923C00D098000003F0F2
:10DC8000DEFE20712069002810D00104090C00205C
:10DC9000F7F779FE3060291D03C9A060E1603068A4
:10DCA0000168009A381C03F0CAFE20710120F8BDFB
:10DCB00000001075010080B5021C3C000C990000AA
:10DCC0000821042009F04EFF032080BD10B5074A4B
:10DCD0000C1C516801315160011C1031C2680430C4
:10DCE00003F0F0FE2071002010BD0000107501004F
:10DCF000044980B581610821021C03203C00489939
:10DD0000000009F032FF032080BD95D80000F7B570
:10DD1000071C161C0621002082B0F7F73AFE051CEE
:10DD200020480078062800D928812C680020A77098
:10DD30000399E170311C03E00A8910180F1C3C00A4
:10DD400084990000C9680029F9D16B4601AA211DF8
:10DD500000F034F800AB187860711878002817D0FC
:10DD600011484068002808D019780020F7F714FE01
:10DD7000011C381CF7F730FD0AE03868002802D192
:10DD80003C00C09900003F600120B86100AB1978E9
:10DD900038894018388100AB9888311C02382080BF
:10DDA000281CF7F71CFD281C05B0F0BD0000C85C5E
:10DDB000010001794279008889180239401A7047B8
:10DDC00000003C00FC99000070B5084D2C78AD783F
:10DDD0002018061C002D03D070190138013DA843FE
:10DDE0001080801B18700C7070BD0000C85C0100B2
:10DDF000B0B504680C4A218852780231914211D2A0
:10DE0000551AF7F73C00389A0000C9FD016800294F
:10DE100002D10060012181610189491901812088B5
:10DE200040192080607940196071B0BD0000C85C65
:10DE3000010080B500220621F12009F0A2FE80BD7C
:10DE40000000031C02483C00749A000003704170FB
:10DE500082707047C85C0100B0B5081C0968151CC9
:10DE60008C78F7F785FD0449A0000958002902D0F5
:10DE7000281CF6F79EFCB0BD846D0100FEB5041CA5
:10DE8000C07AA17AC607F60F3C00B09A0000321C97
:10DE9000201D01F03CF86069254FC10737D5B869EE
:10DEA000002801D0F6F787FC2068056828888007DD
:10DEB00034D101AA02A9281C01F00BFC281C01F096
:10DEC00012FC0078C0070AD460693C00EC9A00009C
:10DED000800726D4331C291CA27A20697D69F6F7B5
:10DEE00072FC1EE000AB187A002803D0012806D08F
:10DEF000022816D1281C796AF6F761FC11E000AB04
:10DF000018790E2801D00F280BD1281C3C00289B23
:10DF10000000396AF6F756FC06E00007800F03D1CF
:10DF20002069F969F6F74EFC786B2121013078639E
:10DF3000221C802009F031FEFEBD287A01000B4929
:10DF400018B50878C00711D50A4A101C20303C00CB
:10DF5000649B0000847900AB1C70C079587008780D
:10DF600040231843087005480078087000AB1888F3
:10DF7000D08418BD0400070000100700E060010015
:10DF800070470000054910B58879054B1A7C054C8F
:10DF90003C00A09B0000246862401A74887110BD88
:10DFA00000002010070010000700585B0100044922
:10DFB0000A6804480068024001D0886170474861DF
:10DFC000704710000700585B0100021C012000068A
:10DFD00008433C00DC9B000080B52A2109F0E6FDE7
:10DFE00080BD000010B5041C002903D0812907D191
:10DFF000812000E08020221C2C2109F0D7FD10BDDB
:10E0000002212C20F7F74CFB201CF7F7C3FC10BDB6
:10E0100080B5B4B03C00189C0000012806D08228CE
:10E020001CD11AA807F035FC34B080BD812913D16A
:10E030000D480C4A816900685032814202D0D16A91
:10E04000012902D01178022902D107F00AF9EBE781
:10E050006946F7F75AFE3C00549C0000E7E70121AF
:10E0600000E002211820F7F721FBE0E7A46E010091
:10E07000B0B5041C0068174D9AB0686308F03EFA0A
:10E0800020791449134A50392C3A02280AD1906851
:10E090008002A861C868E8613C00909C00000220F2
:10E0A000287207F0E4F81AB0B0BD031C0020002B62
:10E0B0000BD152689202AA610A1C8968E961287230
:10E0C00010686946F7F727FEEDE7A861012028727E
:10E0D0002870002006F07DFAE5E73C00CC9C0000AB
:10E0E000F46E0100704700007047000080B5012108
:10E0F0000720F7F7E1FA80BD70470000F8B500246B
:10E10000194A0026D56811680435081C916002E0A0
:10E11000011C4019086053688342F9D83C00089DEF
:10E12000000001341032032C0E60EED3F6F7F1FF3D
:10E1300010481049124C0860104900200122192390
:10E140005B010C2543431B1945434A511F1C6D18A5
:10E15000AB606B6000251E1C14369E60331C3C00B7
:10E16000449D00000135272DF8DB013003289F6016
:10E17000E8DBF8BD2057010014C80100B4CF01004E
:10E1800018D90100B8CF0100B0B5074C251CC03527
:10E19000286B1E2100F0F2F9A26B201CDC30296BE9
:10E1A0003C00809D000000F0B6F9B0BD0000C469DD
:10E1B00001000020102210B50A4905E00C2343435A
:10E1C0005C180C34CC5001300F28F7D30C23584383
:10E1D0000950044841600160028200218160C160F1
:10E1E00010BD3C00BC9D000084E2010044E301003E
:10E1F00010B5084CA06A002803D10748F9F7E8FEDB
:10E20000A0620448443000680121F9F795FC60627F
:10E2100010BD0000606C0100CD260100FFB50D1C93
:10E22000041C1E1C3C00F89D000081B00A9F1C21AC
:10E23000F6F74DFB0398A061256025612681A68233
:10E24000E76005B0F0BD70B50D1CA421041C0830BA
:10E25000F6F73DFB201C44300622291CF6F765FB2F
:10E2600018483C23411C3C00349E00006162417808
:10E2700059430918897A062901D1A06202E0211CBC
:10E280004D31A16241783C235943081804300F49AD
:10E2900020620B88002B15D0AC20005D0B4A183291
:10E2A00000028018B030E0603C00709E00008D6875
:10E2B000002008E0E268C1005450E668820052196C
:10E2C00071184A6001309842F4DB70BD000068614B
:10E2D0000100587501001FB5041C6034617A031CED
:10E2E000806A084A0291019003923C00AC9E0000B3
:10E2F000E279181C20300092447B827B5E20C15A58
:10E3000018690430231C02F07FFE1FBD394E000047
:10E31000B0B50B1C01886920C05C86B00E4A049120
:10E32000039005920D4D596A9A6A2D683C00E89E4B
:10E3300000000124002D00D0041C0A48005D01915A
:10E3400002920090181C2030447B827B5E20C15AD0
:10E3500018690430231C02F0A4FE06B0B0BD514F72
:10E360000000186701000A61010001898A1C3C0055
:10E37000249F000002810268023A0260080A090232
:10E38000084310807047000070B5051C08780E1C0B
:10E39000FF2814D0717802310020F7F745FB041CE8
:10E3A00002890068311CF6F7CFFA002D06D0281C30
:10E3B0003C00609F0000F7F734FB211CF7F757FA89
:10E3C00000E0251C281C70BD0000FFB50F1C1E1CA2
:10E3D000041C981C0104090C002081B0F7F727FBEE
:10E3E000051C0068002C386003990170386846707D
:10E3F00006D03C009C9F0000201CF7F715FB291C51
:10E40000F7F738FA00E02C1C201C05B0F0BD000026
:10E4100070B51048046804600F4920200860A0050A
:10E420000E4E02D5706AF6F705FAE00102D5306E9D
:10E43000F6F700FA3C00D89F00000A480440002587
:10E4400007E0E00703D5A8003058F6F7F6F90135E4
:10E450006408002CF5D170BD0000004007000010DA
:10E46000070030740100FFFDFFFE80B5072180200A
:10E47000F7F749F980BD3C0014A00000F8B5144B33
:10E4800082009C58CA060127391CD20E9140114ABD
:10E490001160114E4000851915E06060207BC100BD
:10E4A000891910310A780D239A430A70391C81406A
:10E4B00031730749000108313C0050A000004018AA
:10E4C000084A416842608068F6F7BEF9287B002858
:10E4D000E6D1F8BD0000A473010000100700006041
:10E4E0000700D175000003490120097A002900D1F5
:10E4F000002070470000047A01003C008CA000005E
:10E5000003490120897A002900D1002070470000CA
:10E51000147A0100B0B50024FAF776FC002814D074
:10E52000012408F07DFE0A4D0A4B00215A18A03242
:10E530001278102A06D38A00D218926F3C00C8A025
:10E540000000821AAA4200D2002401310329F0D32C
:10E55000201CB0BD00008B080000A46C0100014825
:10E56000C068704700007869010070B50D1C041C7C
:10E57000161CFDF72EFE0020E0602661A5603C0021
:10E5800004A1000070BD0000F8B5171C0E1C041C8F
:10E59000002801D0002E01D1F7F7F2F8A06807F0AB
:10E5A00049F9051C01D1F7F7EBF8291C6E60AF6043
:10E5B000201CFDF7FDFDE068411CE160002803D14F
:10E5C0003C0040A100000548216905F02CF92068B5
:10E5D000A84202D1381CF6F748F9F8BD0000C46023
:10E5E00001000022013910B505E00C2353431C182B
:10E5F0000C34C45001328A42F7D300210C235A4311
:10E6000081503C007CA1000010BD0000B0B5041C8E
:10E6100001D1F7F7BBF8201CFDF7DAFD011C856876
:10E62000A06807F009F9E0680138E06003D1064806
:10E63000216905F0E7F82168002903D08868496856
:10E64000F6F711F93C00B8A10000281CB0BDC46069
:10E650000100012100288CB500D100210E2009F015
:10E6600032FA832000AB1880002004F00CF80190EF
:10E67000684603F07AF98CBD000080B508F0DFFD34
:10E6800006490A8906493C00F4A10000096E411AB6
:10E690000B0C5918891A0904090C401A80BD000096
:10E6A00000900700A46C010070B5041C887E0D1C4E
:10E6B000202803D903211820F7F740F800262676F2
:10E6C000A87E291C1B3160763C0030A20000201C73
:10E6D0001D30AA7EF6F75FF96868291C6060A8689B
:10E6E0001331A060A87B06222073E87B6073287C2E
:10E6F000A073687CE073A8892082A87CE0762677E6
:10E70000201C1230A676F6F746F93C006CA20000F9
:10E710006068431C1DD0114D6D61286800281AD017
:10E72000227B011C0B7B9A4201D3206014E00B1C5E
:10E73000096800290BD00E7BB24208D20B68002B6F
:10E74000F0D01E7BB242EDD323600C603C00A8A247
:10E75000000001E021601C60002070BD26602C607C
:10E76000FAE7A46E0100134AB0B5516801240029EC
:10E770001ED0131DD1611362436804E0106200686B
:10E78000D061002814D0D06945689D42F6D13C0084
:10E79000E4A20000106A814204D15160D06900688F
:10E7A000086002E0D16909680160D069FCF7CEFF1A
:10E7B000002800D00024201CB0BD0000A46E010081
:10E7C000B0B5174D01242968002927D06D61296152
:10E7D0003C0020A30000436804E0686100682861F1
:10E7E00000281DD0286942689A42F6D1AA692B698F
:10E7F0009A4200D1A9616A69914203D129600068F7
:10E80000086006E0006810602868002801D107F061
:10E81000CCFE3C005CA300002869FCF79DFF0028AB
:10E8200002D0002400E00124201CB0BDA46E010031
:10E83000B0B5051C0748446807E0211C4431281C7A
:10E8400000F0D6FC002802D16468002CF5D1201C11
:10E85000B0BD00003C0098A300005875010070B5E1
:10E860000D1C141C00280B4E08D0706E0623584354
:10E870000204120C311C281C228007E0218806208B
:10E88000F6F7A7F970662288291C301CF6F795F870
:10E89000012070BD00003C00D4A3000010790100ED
:10E8A00080B5032803D8044AC000115080BD01215F
:10E8B0002620F6F75BFF80BD7C790100B0B5051C12
:10E8C000C0680189392939D30468A079882835D1ED
:10E8D000E0798E2832D1207A3C0010A40000012873
:10E8E0002FD1607A03282CD1207B022801D0FE286A
:10E8F00027D1607B1D210840012822D1A07BC8219F
:10E90000084008281DD1A81DFBF7E1F9002818D000
:10E910001920215C002914D101303C004CA40000D6
:10E920003928F9DB688B04210843688303F0D6FE9D
:10E93000002809D1002300222620044909F092F979
:10E940000348006801F084F9B0BD000050C3000026
:10E950000C790100B0B5084CA36801333C0088A4D1
:10E960000000A3600C1C09D02568002D03D0237A79
:10E970006168F5F7A3FF201CF7F7A9F9B0BD9479FA
:10E98000010070B5041CC06801890568082953D3CB
:10E990000622281C5549F5F79EFF002837D13C0078
:10E9A000C4A40000E988524E043E812924D1E568C0
:10E9B0002968087A4A7A000280180004000C420B89
:10E9C0000005000DE27520834B8900204200B25AF9
:10E9D0009A4206D128890C38020A00021043488165
:10E9E0003C0000A5000002E001300228F1D3E068FD
:10E9F00001890A390181E06801680A311CE00022BE
:10EA000000204300F35A8B4201D1012202E0013081
:10EA10000228F6D3002A11D107E036490622063132
:10EA2000281C3C003CA50000F5F75EFF002808D13B
:10EA3000E068018906390181E068016806310160FA
:10EA400010E0E068FFF7E2FC0CE002310181E068D1
:10EA5000016802390160E06800890238020A000298
:10EA6000104308803C0078A50000E0680325028977
:10EA70000168244E022A10D90988082905D0C1232B
:10EA8000DB00994203D1012502E0002500E00225C8
:10EA9000E9007158002900D10225F7F704F8E900D0
:10EAA0008919898888423C00B4A5000000D9032553
:10EAB000A11D201CFDF734FC002800D10325022DE8
:10EAC00005D0032D07D1E068F6F7E2FF70BD201CEA
:10EAD000FDF71CFD70BDE068018902390181E06825
:10EAE000016802310160E8003C00F0A500003158E7
:10EAF000201CF5F7F1FE0028EFD1E0680189023112
:10EB00000181E068016802390160E3E700006A46BC
:10EB100001007C79010070B50E1C041C151CF7F770
:10EB20008CFB00282AD01B4908683C002CA600005A
:10EB300001300860002E0AD0012E0BD0022E0FD11A
:10EB4000201C04F0CDF8201CFFF7D6FE0CE00821B5
:10EB5000E06802E0C121E068C90004F035F903E093
:10EB600002212620F6F720FEE27DE16A3C0068A63D
:10EB70000000281CFCF795FB206300202062A062A7
:10EB8000201C00F06CFE70BDE068F6F78AFF002DD7
:10EB9000F9D0E37D00220120E16AF5F7A7FE70BD00
:10EBA00000009479010080B5012804D105483C009B
:10EBB000A4A60000006801F009F980BD0321262009
:10EBC000F6F7F8FD80BD00000C790100F8B5061CD1
:10EBD00080790024C0072DD5F0680068417A11299A
:10EBE00028D1C1880A0A09021143C90422D1017837
:10EBF0003C00E0A60000114F0907890E0818418863
:10EC00000A0A090211430D042D0C432D396801D164
:10EC1000CA070ED4442D06D1C90704D5243000F00C
:10EC200022FB002805D00648854206D138688007B7
:10EC300003D53C001CA700000124F068F6F73AFF5A
:10EC4000201CF8BD7C5A01006C07000080B500282C
:10EC500007D00021262008F07BFF0248006801F061
:10EC6000BBF880BD0C79010010B5041C094A081CD2
:10EC7000516801313C0058A7000051600021216219
:10EC8000A162E27DE16AFCF718FB2063201CF7F724
:10EC9000E6FA201C00F0EFFD10BD947901000CB5E0
:10ECA000021C081C0021019100926A4601A900F093
:10ECB00002F80CBD00003C0094A7000070B513687A
:10ECC000002B1ED000260B68002B02D113681B6896
:10ECD0000B6013681C681B89E51808E05C781C1938
:10ECE00002340C601C78844201D1181C70BD0B6882
:10ECF000AB42F3D31368DB683C00D0A7000013607D
:10ED00000E601368002BE1D1002070BD000070B5CB
:10ED1000031C20D018681E89051C16E00478DD2C21
:10ED200010D18478002C0DD1C478502C0AD10479EC
:10ED3000F22C07D144798C4204D13C000CA800008D
:10ED400002290CD18479944209D0447820180230E9
:10ED5000441BB442E5DBDB68002BDED1002070BD34
:10ED6000044980B50A780A20002A00D0486A00F0D9
:10ED7000D1F880BD1C750100B0B5174C3C0048A807
:10ED800000002068002829D0164DE869002825D108
:10ED900001F03FFA002821D1FFF741FC00281DD1E6
:10EDA0002068A969401808F0D6F9002816D002F0AA
:10EDB00006FD2168401808F0CEF900280ED03C006E
:10EDC00084A800000120E86100222521802008F0AD
:10EDD0008FFF0648296A04F083FD0121286A00F0AC
:10EDE00089FFB0BDE85901001C75010034630100C2
:10EDF00070B5051C0024FAF70BFF184E716A401815
:10EE00003C00C0A8000000F08EF800280BD104F0F0
:10EE1000FEFB0021252008F0B0FE0322291C281C3F
:10EE200000F0AFF818E0706A441E00F07CF800288B
:10EE300012D10C48316A04F056FD0121306A00F00D
:10EE40005CFF3C00FCA800000020FAF70DFE06F075
:10EE500003F8002300222520054908F03FFF201C6D
:10EE600007F0FCFA70BD00001C750100346301005E
:10EE70001027000080B5012807D080280DD100227E
:10EE8000002108483C0038A90000F8F79AFE80BD30
:10EE9000012902D106490020C86104F0BEFB80BDF3
:10EEA00005212520F6F7A7FC80BD61A900001C758F
:10EEB00001000021002880B501D1034841680122EA
:10EEC000252008F02CFE3C0074A9000080BD000045
:10EED000E85901000249C8680138486270470000DB
:10EEE0001C75010038B5031C081C191C114B06D0F9
:10EEF000012111800A1C191CF5F7AAFD17E00D4D20
:10EF0000011C2C781288181C3C00B0A90000F5F7F1
:10EF1000A2FD287884420DD000236B61002803D025
:10EF2000002007F0A4FA05E0002200210020009252
:10EF3000F8F723FC012038BD00001C75010070B5F6
:10EF4000041C012608F0E1F9051C3C00ECA90000B6
:10EF50000020FAF78BFD444302F040FC02F03EFC37
:10EF6000011C231C0022281C08F07CFA002813D165
:10EF70000A48231C00228169281C08F073FA002823
:10EF80000AD1F8F719FC011C231C00223C0028AA16
:10EF90000000281C08F069FA002800D10026301C67
:10EFA00070BD1C75010070B50D1C041C161C07F00B
:10EFB00076F900280DD0FAF752FE002809D0FF306C
:10EFC00001304368002B04D0221C291C301C3C005B
:10EFD00064AA0000F5F7BBFC70BD000080B50121FC
:10EFE0001D2008F0DFFD074A0748116901605169DB
:10EFF00041600649496881600021C16003F074FCEA
:10F0000080BD00002861010048750100905C01008E
:10F010003C00A0AA000070B5041C406B002835D04D
:10F020001D4D00262878002824D04120005D0028AE
:10F0300003D108F076F9A8611BE0696901316961C3
:10F04000A868002808D0814206D12069011C10312F
:10F0500004303C00DCAA00008222FFF7ADFF6868A4
:10F0600000280AD06969814207D12069011C10314A
:10F0700004300222FFF7A0FF6E6168780521084086
:10F0800008D0074800780E2803D36034E079FBF7F6
:10F09000CFFF70BD3C0018AB00000348066070BD98
:10F0A00000001C75010010670100D47E0100800281
:10F0B0007047142330B5094D4B435B195B68082436
:10F0C000002B00D1022438235A43054B8900D21863
:10F0D000515A026809193C0054AB0000511A0160F2
:10F0E00030BD0000744001008C410100F8B5071CE0
:10F0F0002C48141C2C4A484386468018800D8446B0
:10F100002B482A4A06261D1C48434A430E2F40D24C
:10F1100001A3DB5D5B009F443C0090AB0000060850
:10F120000A0F14181D202724272B2F31C8001FE099
:10F1300088001DE0214970464018000D18E01F4A64
:10F140008018800D401821E01E481018000D1DE0A9
:10F150001D4970464018400D0AE03C00CCAB000051
:10F160001B49401801E01B481018400D11E01A49D6
:10F17000401805E060462080002016E0174810186F
:10F18000800D06E0164902E016484843164940182B
:10F19000C00D03308008800020802E803C0008AC29
:10F1A0000000F8BDFF21FF20F6F749FB002020807A
:10F1B0002880F6E70000D1451700FFFF3F00E33845
:10F1C0000E0055551500FFFF0F00A9AA2A01701C5B
:10F1D0003700FFFF1F00CBCC4C00701C47003C00E9
:10F1E00044AC0000A9AA7A00701C6700A9AABA0062
:10F1F00084F61200EC25B4000449002801D009224D
:10F2000000E014224A80486070470000A4690100B1
:10F2100080B50622F5F740FC80BD0000BCB5151C8A
:10F220003C0080AC0000041C04310904090C01AA54
:10F230006B46FFF76AFF3820064968434018A10073
:10F24000405A00AB99884018198840180004000CF7
:10F25000BCBD8C410100BCB5041C151C01AA6B4649
:10F26000FFF73C00BCAC000053FF38200549684361
:10F270004018A100405A00AB998840180004000CC7
:10F28000BCBD00008C41010080B500280FD00029D2
:10F290000DD002780B789A4209D1FF2A05D0427826
:10F2A0000232F5F73C00F8AC000081FB002801D1E8
:10F2B000012080BD002080BD000080B506220449E9
:10F2C000F5F775FB002801D1012080BD002080BD2D
:10F2D00000005E400100011C49780120002900D097
:10F2E0000020704700003C0034AD000080B50622CD
:10F2F000F5F760FB002801D1012080BD002080BD12
:10F3000080B5FFF7C7FF80BD80B506220449F5F739
:10F3100051FB002801D1012080BD002080BD0000EC
:10F3200012610100011C80203C0070AD000081438F
:10F330008A080E201C2A10B506D2034C5200A35C8A
:10F340008B4201D11019407810BDFC4101001423FB
:10F350000249584340184068704774400100202219
:10F36000011C80B50248F5F752FD3C00ACAD000031
:10F3700080BD0000486101000806000E022801D18E
:10F38000002070470120704700290CD00749096808
:10F39000002908D01423064958434018C0680028A3
:10F3A00001D0012070470020704700003C00E8AD0C
:10F3B0000000AC6901007440010010B5041C062275
:10F3C000011C0448F5F77DFB0622211C0348F5F7D4
:10F3D00078FB10BD00001261010040800700002989
:10F3E00001D10020704738235A43074BD2183C0004
:10F3F00024AE00008300D25A14235843054BC01892
:10F4000040881018081A0A380004000C70470000E1
:10F410008C41010074400100F8B5071C081C161C43
:10F420001C1C191C00F05AF8051C1435221C311C38
:10F430003C0060AE0000381CFFF70BFF28180004EA
:10F44000000CF8BD000000B500F04BF80A300004D5
:10F45000000C00BD0000F8B5071C081C161C1C1C85
:10F46000191C00F03EF845001E35221C311C381CCA
:10F47000FFF73C009CAE0000EFFE28180004000CD3
:10F48000F8BD0000FFB50F1C81B00AA9141C1E1C9A
:10F4900003C900F029F8051C1E35211C301C00F0A2
:10F4A00023F82D18221C391C0198FFF7D5FE2818C7
:10F4B0000004000C3C00D8AE000005B0F0BD0A49C5
:10F4C00080B50988092904D0142907D101018000D9
:10F4D00000E0C10008180004000C80BDFF21FF20DF
:10F4E000F6F7D1F9002080BD0000A669010038239D
:10F4F0005943064A14233C0014AF000089188200C7
:10F50000895A054A58438018408808180004000C9E
:10F51000704700008C41010074400100024803491B
:10F5200000684000085A7047A86901005440010073
:10F530000A20704710B5041C3C0050AF0000FDF7D6
:10F5400062FF201C10BDB0B5041CC0680568A01D7A
:10F55000FFF7F5FE002818D0211C1431201C08F0FC
:10F56000E2FD002811D0298809482022818269887B
:10F570000183A98806354183C5613C008CAF00003A
:10F580003021095D1154616B41620120F7F728F8C1
:10F59000201CB0BD707C010070B5041CC068211C2B
:10F5A00014310568201C08F0C1FD002808D0054E64
:10F5B000F06802F0CFFD2888F08203203C00C8AF3D
:10F5C0000000F7F710F8201C70BD707C01003EB5FC
:10F5D000041CC0680568A01DFFF7B7FE002821D0F5
:10F5E000211C1431201C02AA08F077FD002819D034
:10F5F00002984B21095C002910D0012914D03C004D
:10F6000004B0000002290CD129880D2000AB18801D
:10F61000201C03F051F80190684602F05DFAF6F7FD
:10F62000B5F80021029806F09FFE201C3EBD07F0B1
:10F6300029F8029800218069C207D20F0420F6F74A
:10F640003C0040B000007FFFEEE710B5041CFDF762
:10F65000E6FE201C10BD3EB5051C00F040FE002853
:10F6600015D1281C1430FAF7CEFB00280FD0052145
:10F670002869FFF786FB041C09D00522211C684677
:10F68000F5F73C007CB000003DFA05340294684672
:10F6900003F01AFB2A1C0D218F2008F08FFB00209D
:10F6A0003EBD000010B5041CFAF798F8201C05F0C8
:10F6B000E5F8201C10BD0000B0B5041C0069002155
:10F6C00094B0FFF73C00B8B0000061FB6946FBF75F
:10F6D00026F800281ED00098FAF729FA011C01A884
:10F6E00002F0D7F90098FAF7D2F90490052009AD95
:10F6F000687202A8211C06220230F5F706FA0120E2
:10F700000890216A0A903C00F4B00000282009917A
:10F71000005D287201A800F069F8201C14B0B0BD8B
:10F72000FFB5161C1F1C81B00A9D4C20F6F790FBFC
:10F73000041C143006220299F5F7EAF9201C06226F
:10F740000199F5F7E5F928203C0030B100000021CF
:10F750000655E1602762002D01D08E2000E08D204B
:10F76000221C0D2108F033FB05B0F0BD0000B0B540
:10F77000051C4C20F6F76FFB041C4C22291CF5F7E6
:10F7800026FA2920405D0D282CD23C006CB10000E7
:10F7900001A31B5C5B009F44281A281E060A282828
:10F7A0000E2822121600221C0D218C201AE0221C89
:10F7B0000D21832016E0221C0D21842012E0221C42
:10F7C0000D2185200EE0221C0D2186203C00A8B1D1
:10F7D00000000AE0221C0D21872006E0221C0D21DA
:10F7E000892002E0221C0D218B2008F0F6FAB0BD22
:10F7F000E868F6F7E6F9201CF6F711FBB0BDFEB598
:10F80000051C9020F6F72DFB041C9021F5F73C0019
:10F81000E4B100005BF9374E0127F069042803D9F1
:10F82000706B013070634DE03348B16B04F0D0F879
:10F8300001202062A87E211C803102910870221CC8
:10F840006032019200202F1C20379072787A2B1C96
:10F850003C0020B200001433D072E868AA1DA060FA
:10F86000E86B48604420405D0872291C201C05F0AC
:10F87000AAFC686A00280AD1019A201C937A02998E
:10F88000221C703258300978FAF7DBF906E03A7A30
:10F89000231C3C005CB20000E869296A7033FDF764
:10F8A0008DF93020405D184907280BD15820005DA4
:10F8B000C007C0170130E06100202061201CF7F76D
:10F8C0003FFF18E00122201C05F0ACFF071C12D0FE
:10F8D00003F006FF3C0098B20000F36D002B06D049
:10F8E00060682030827B616B381CF5F799F8E86816
:10F8F000F6F773F9201CF6F79EFAFEBDF0690130A9
:10F90000F061FAE70000C4690100346301000531C9
:10F91000000070B5061C3C00D4B200000D1C0904A8
:10F92000090C0020F6F77CF9041C2A1C311C006825
:10F93000F5F706F9201C70BD4088704703781B0757
:10F940009B0F0B70007800091070704704307047EF
:10F9500004307047D42101703C0010B30000002136
:10F96000417070470000C421017000214170704750
:10F970000000B4210170002141707047000001496E
:10F98000486570470000C469010001490865704777
:10F990000000C4690100014988653C004CB30000C7
:10F9A00070470000C4690100F8B55F4F051CB868D6
:10F9B0000130B86007F024FD38619020F6F766FA50
:10F9C000041C9021F5F794F8286B271C6063688B62
:10F9D0008037261CC007C00F2062688B3C0088B3AC
:10F9E0000000603602214007C00F2063688B80074B
:10F9F000C00FF860287F3870B172002808D1F9F77D
:10FA0000C8FF002802D00120606201E00120A0624E
:10FA1000F868002803D00021022006F0CCFF3C004B
:10FA2000C4B300002B1C1033AA1D291C201C05F098
:10FA3000DFFBA86A00280CD13978022907D0221CE4
:10FA40007032201C5830B37AFAF710F908E001261A
:10FA50005EE0AA7D231C286A696A7033FDF7C0F84E
:10FA60003C0000B40000E96800200989002900D1A9
:10FA70000420F0723878012814D10027009000206B
:10FA800006E02969012903D1A969012789071AD547
:10FA900006F079FC0028F4D1012F14D10098012838
:10FAA00011D13C003CB4000008E0201C583006F0A6
:10FAB000E1FC00280AD08069800707D5F07A082188
:10FAC0000843F0720120E062E87D3073E868A060CE
:10FAD000E06A002812D01A4FF86B00280ED0307B55
:10FAE000F5F7DEFE3C0078B40000002809D0211CA8
:10FAF000381C4030FCF755FC1448B96B03F089FF03
:10FB0000F8BD104F1248B96B03F083FF0022201C90
:10FB1000104905F0A2FE061C03D1386A0130386294
:10FB2000EEE7201CF6F73C00B4B400009FF9E8684B
:10FB3000F6F76EF803F0F2FD0448836D002BE2D077
:10FB40000022301C296BF4F786FFDCE7C469010052
:10FB5000C4600100346301001130000010B50A20B8
:10FB600007F0FEFC07F05EFC3C00F0B400000B491F
:10FB700044180CE0201C07F090FB002807D0F7F792
:10FB800034F9002803D012218620F5F7CAFEF7F7D2
:10FB90002CF90028EED101F080FD10BD0000409C42
:10FBA000000010B50C1C011C174A3C002CB50000CD
:10FBB0000129506904D080291DD0812921D11CE060
:10FBC0009178012915D102219170141C011C104853
:10FBD00003F028FF0121606900F02EF9606901F04F
:10FBE0005FFC2070A088A16900230A4A3C0068B528
:10FBF000000007F07EFC10BD222106E001F01DFC94
:10FC0000201C00F04AF810BD1C212020F5F78FFEC3
:10FC100010BDB4790100346301003D2E000070B5C1
:10FC20001C4CA078002832D0052830D060693C00F8
:10FC3000A4B5000000F0EAF8184EB579A0780128C4
:10FC40000BD002280ED0032810D0042817D1421F51
:10FC50008021202008F008F80EE00021202008F084
:10FC600031F80CE0A08807F01DFC05E0207800F0DA
:10FC70003C00E0B5000039FA002000F0C4FD6069E6
:10FC800001F0E1FB0520A070B571606900F061F939
:10FC900000222021812008F0D6F870BD0000B47940
:10FCA000010020100700B0B50D4D041CA8780028F5
:10FCB00014D03C001CB60000686900F00BF90A483B
:10FCC000696903F0A7FEA88807F09EFB002C02D00C
:10FCD000687800F079FF0020A870A968201CF4F76C
:10FCE000CAFEB0BDB479010034630100064B80B593
:10FCF000997803293C0058B6000006D10421997078
:10FD00002021021C802008F0A4F880BD0000B479F6
:10FD1000010010B50C4CA17803290FD11030FAF76F
:10FD2000DEF8002809D0207800F0E5F9002000F086
:10FD300070FD002105483C0094B60000FCF79CFAD9
:10FD400010BD1B212020F5F701FE10BDB479010084
:10FD500051B60000094980B58978032909D100F01E
:10FD6000CDF9002000F058FD01210548FCF784FA88
:10FD700080BD17212020F5F73C00D0B60000E9FD3A
:10FD800080BDB479010051B6000070B5104C1D1C47
:10FD9000A378061C0498002B18D10123A3702261BC
:10FDA000E6606170A060A561002007F0ACFAA08059
:10FDB000301CF7F73CFBE08007F03C000CB700007C
:10FDC0004FFBC721C900281A411A0022202007F042
:10FDD00057FF70BDB4790100B0B5041C0D1C00F0D4
:10FDE00009F8201C00F024F8002D01D0FFF7D4FE04
:10FDF000B0BD0000B0B50C4C051CA0683C0048B775
:10FE0000000000280FD10A48017E022211406160E3
:10FE1000017E11430176072003F049FC206003F0C6
:10FE200098FF03F0EEFFA0682843A060B0BD407CBF
:10FE300001000C8007000A4938B50A1C20323C003A
:10FE400084B70000947900AB1C70D279074C5A70CB
:10FE5000E268002A02D1064D01236B701043E06076
:10FE600000AB1888C88438BD00100700407C010032
:10FE700000500700B0B5051C002901D000F028F89B
:10FE80003C00C0B70000064C60782169084303D1EC
:10FE900001210E2006F0C5FD206928432061B0BD78
:10FEA000000018630100B0B50A4C051C226900204F
:10FEB000002A0CD1002900D004E06078002802D18B
:10FEC00004F03C00FCB7000069FB6070281C06F0E1
:10FED000EFFC0120B0BD00001863010010B5084C14
:10FEE000607800280AD006F0E3FC002060702069EA
:10FEF000002803D001210E2006F096FD10BD000061
:10FF0000186301003C0038B80000094980B50B694E
:10FF1000834204D14A78002A01D1012200E0002264
:10FF200083430B61002A03D000210E2006F07FFDE1
:10FF300080BD1863010080B50120F6F756FE80BD34
:10FF4000000010B5041C3C0074B8000000F004F878
:10FF5000201C00F01FF810BDB0B50C4D041CA868A3
:10FF6000A0420FD10720296808F08CFB68680222A4
:10FF700007490028087E01D0104300E0904308762E
:10FF800004F0C4F8A868A0433C00B0B80000A86022
:10FF9000B0BD407C01000C8007000A4938B50A1C3E
:10FFA0002032947900AB1C70D279074C5A70E26809
:10FFB000824202D1064D00236B708243E26000ABA7
:10FFC0001888C88438BD001007003C00ECB8000059
:10FFD000407C010000500700B0B5051C0A4C002110
:10FFE0006069FFF711FF042001F046F901F088FB7A
:10FFF00000220421042001F08BF8281C01F04AFAA9
:02000004800179
:100000006069FFF7A7FFB0BD407C01003C0028B944
:10001000000080B501F077FA80BDB0B50D4D01212B
:100020002869FFF7F4FEFFF72AFE00F02CFB00F032
:1000300084FA002400220421201C01F06CF8013411
:100040002406240E042CF5D32869FFF786FF3C0014
:1000500064B90000B0BD0000407C0100F8B5051C8B
:100060000E1C074C171C01212069FFF7D3FE3A1C18
:10007000311C281C01F052F82069FFF771FFF8BD10
:10008000407C0100FFB589B0061C16981D1C002895
:100090003C00A0B9000001D02948149028680088CD
:1000A0000006800E202801D0142817D10AAA18248F
:1000B000182105CAFFF777F9071C281C0189A142FE
:1000C00002DD006801190BE0C068641A0028F5D150
:1000D0000F213C00DCB900008620F5F761FC00210F
:1000E00001E00021002718480890807907900C2033
:1000F000164A704380180479049112991598149A3D
:1001000001910390059700950AAB0292211C301CC7
:100110000CCBF7F73C0018BA000003F90125B540F5
:100120000C4E083E3078284006D0201C00F0C9FD57
:100130003078A843307003E0201C139900F043FF8F
:1001400007A903C988710DB0F0BD952400002010E7
:100150000700747A01003C0054BA0000B0B5041CDA
:100160000C230949584340180079051C00F092FE01
:10017000281CF7F7C7F80120034AA040083A117875
:1001800081431170B0BD0000747A010010B5054CB8
:100190002078002803D11A213C0090BA0000862064
:1001A000F5F707FC207810BD000018630100014836
:1001B0004078704700002C63010080B5F6F7D1FE4F
:1001C00000F01BF980BDFEB50168051C0C680E1C13
:1001D0002178880771D16869C2073C00CCBA000059
:1001E0006ED580076DD5E87AC20708070909029124
:1001F0004549800FD20F00284F6805D0012809D04B
:10020000022821D003285BD1FF23201CA97AF4F710
:1002100074FC55E002980B280AD00C283C0008BB5F
:1002200000000FD00D284ED1394FF868F4F761FC6B
:100230000020C0435AE0354FA97ABB68201CF4F770
:100240005BFC40E0324F3869F4F753FC3BE000219F
:10025000019102990020FF23090701D401203C00ED
:1002600044BB000013E03189192901D3267E07E041
:10027000152904D31826711A49190E7B00E00026AF
:10028000B10602D4012073075B0F01210191002800
:1002900003D0A97A201CF4F736FC0199012915D165
:1002A0003C0080BB0000F006C60F20881B4FE48A8C
:1002B000F96B0005C00F00291AD04B1C18D0002E76
:1002C0000AD0002808D03888844213D002980C281D
:1002D00001E01DE012E00DD0081C01F076F90028C5
:1002E00003D13C00BCBB000000F0A6FAF4F70AFC06
:1002F0000020C043F863002E0DD03C800020F8633E
:1003000009E020880006800E202804D1044F201C1C
:10031000B96AF4F7F8FB291C0248FBF7EFFFFEBDB2
:10032000287A01003C00F8BB0000A59A00000348B1
:1003300080B50078002100F0FCFB80BD0000186350
:100340000100044B054900281A6800D0011C101C4C
:10035000196070470000D4790100957500000548C8
:1003600080B5007F24233C0034BC0000044958437E
:100370004018C069F4F7CCFB80BD0000D4790100BF
:1003800094460100021C064880B581628260007FAD
:1003900024230449584340188069F4F7B9FB80BD11
:1003A000D4790100944601003C0070BC000080B587
:1003B000002000F03CFB002000F06DFA00F065FA30
:1003C0000449C86A0130C862081F008807F0C1F8F4
:1003D00080BDD4790100064880B500210177C16A4B
:1003E0000131C1620438008807F03C00ACBC000059
:1003F000B3F803F0D1F980BDD479010080B505F0E0
:10040000E9FA80BD80B5002803D1012004F022FA6A
:1004100080BD012003F0E6FB80BD00000349012000
:100420004978002900D00020704700003C00E8BC5B
:1004300000002C63010070B5134D2878002820D1EE
:1004400001212E1C7068FFF712FD0021072006F025
:100450002AFB0D480024047104F0EDF806F0D5F9EC
:10046000012028700A4804604460F6F74CFD3C0007
:1004700024BD0000F7F75EF8FFF7A2FF00F0A8FD2B
:100480000548716803F020FB012070BD2C6301005A
:100490005000070080000700C4600100B0B51E4C8A
:1004A0002078012835D1251C69681C4803F020FB01
:1004B0003C0060BD000004F0F0F81A4801684908EB
:1004C00049000160016801221143016000F02BFE28
:1004D00000F01BFC06F099F8F6F729FEF6F72DFC64
:1004E00000202070FFF783FF00F08BFD0F4881781C
:1004F00008223C009CBD000091438170817811432B
:1005000081700C49102008716868FFF75FFDF7F7EC
:1005100039F8F6F74DFD0121072006F0CDFA01204C
:10052000B0BD00002C630100C4600100F0000700B2
:10053000000007003C00D8BD000050000700034940
:100540000120897A012900D0002070470000147A28
:100550000100B0B5154D041C287A002820D1F9F708
:1005600000FC02281CD101202872E868002810D065
:100570002068296808603C0014BE000069680D48C6
:1005800003F0C2FA01216868FFF7C8FC00222420AA
:10059000616807F0CFFBB0BD002028722168012000
:1005A000F4F7CFFAB0BD00202168F4F7CAFAB0BD65
:1005B000047A0100346301003C0050BE000004488E
:1005C00080B5007A012802D1002002F0F0FE80BD43
:1005D0000000047A010080B5012807D0802809D1E5
:1005E0000748007A002804D0012000E0002002F033
:1005F000DEFE80BD0E212420F5F73C008CBE0000FD
:100600000BFA80BD047A0100F8B53A4E051CB07AA9
:10061000002869D1F9F7AEFB022865D13648006899
:10062000002861D03548716803F074FA01217068C0
:10063000FFF77AFC6C20F5F7B9FC041C3C00C8BE3F
:1006400000006C21F4F7E7FA30682C220460296876
:1006500081606968C160002111548162A968002924
:1006600002D0E968016105E006F05DFF69684018A5
:10067000316808617068FFF714FD692108553C0076
:1006800004BF00000020F9F709FB01273B1C061CF2
:10069000221C24320021F9F779FB1C480321008831
:1006A00089030843211C40310091488318481021D8
:1006B00060601848A060A76367630020F5F74CFBF3
:1006C0003C0040BF0000E06002890099CA830768CF
:1006D000311C381D2761FEF78EFE381C0A300F4989
:1006E000FEF789FEA4203880002004F0DEFB002203
:1006F0001F20696807F02DFBF8BDFFE7002029687F
:10070000F4F73C007CBF00002EFAF8E7147A0100F1
:10071000805A010034630100FA60010099EC000086
:1007200015ED000012610100064880B5817A0029AC
:1007300007D0006804222030017B1143017302F0CE
:100740006BFD80BD3C00B8BF0000147A010010B5FD
:10075000044CA07A012803D106F0F1FE21688861DB
:1007600010BD147A0100031C081C1F4970B50A68EB
:10077000012B1CD0802B05D0832B30D1887A002808
:1007800014D029E053693C00F4BF0000002B0ED0C8
:100790009469D5692E1B0C695D1B361BB610A41914
:1007A0000C61CC682D1BAD106419CC60936102F014
:1007B00081FD70BD022812D1906A0C1C0028F8D06F
:1007C00007F00EFAA07A01283C0030C00000F3D1F7
:1007D0002068816A0029EFD12030017B0822114373
:1007E000017370BD02F021FD70BD0E211F20F5F7D1
:1007F00028F970BD0000147A010002490C3103C9C8
:10080000401870470000147A01003C006CC00000E2
:10081000054880B5006804222030017B1143017334
:1008200007F0E4F980BD0000147A010070B5164CA1
:100830000E1CA17A00291CD02168086107F032FA49
:10084000002817D020680025056200223C00A8C0BF
:10085000000083211F2007F094FA6068FFF703FC73
:10086000216804222031087B2B1C90430873311C23
:1008700000221F2007F061FB70BD20680822203095
:10088000017B1143017302F0D6FC70BD00003C00F7
:10089000E4C00000147A010080B500F077FC00F09D
:1008A0006FFC00F029FF00F05DFA00F0C5F800F0E1
:1008B00085FF80BD80B5FAF785FA80BD0148C06824
:1008C00070470000287A01000349002800D0011C6D
:1008D0003C0020C100000248C160704700008175E3
:1008E0000000287A010001480249C86070478175FC
:1008F0000000287A01000149886170470000287AC9
:1009000001000149002088617047287A01000349ED
:1009100000283C005CC1000000D0011C0248C161FD
:100920007047000089750000287A010003490028FB
:1009300000D0011C02488162704700008D750000E4
:10094000287A01000349002800D0011C02480162F6
:10095000704700003C0098C1000091750000287AA3
:1009600001000349002800D0011C024801617047C2
:10097000000099750000287A0100014802490861C9
:10098000704781750000287A0100021C081C802A2B
:1009900080B502D100F03C00D4C1000007F880BD52
:1009A0001E212120F5F762F880BD0000B0B5104D82
:1009B000041CA86B0130A863696B091A281C006B22
:1009C0000C2903D90021FFF791FA03E0082901D18E
:1009D000FFF732FB201C00F03C0010C200004DF974
:1009E0006069400701D503F00CFC201CE96AF4F7AC
:1009F000DBF8B0BD0000287A01000349002800D0D0
:100A0000011C0248416270470000B5750000287A59
:100A1000010003490120096C00293C004CC2000080
:100A200000D1002070470000287A010010B5074C63
:100A3000E16B002901D1E06304E0814202D0002093
:100A4000C043F8E706F09CFD206410BD287A010041
:100A50000148006C70470000287A01003C0088C201
:100A60000000054980B5002048638863FF210931F3
:100A700015221020F6F7FBF980BD287A0100034902
:100A8000002800D0011C0248816070470000C17539
:100A90000000287A01000349002800D0011C3C0016
:100AA000C4C200000248C16270470000C575000062
:100AB000287A0100044B054900285A6800D0011C1F
:100AC000101C596070470000287A0100C9750000A9
:100AD0000349002800D0011C024841617047000012
:100AE0003C0000C30000CD750000287A01000F4BC8
:100AF00010B5D968002919D00E4C0021CA0012196E
:100B0000403AD26B824202DA01310329F6D3481C03
:100B10001A780006000E904208D018700806000EE1
:100B2000041C3C003CC30000F6F7BAFA201C03F09A
:100B30001BFD10BD186301003C42010010B5144CB0
:100B4000E168002922D02178124BCA00D218403A1D
:100B5000D36B834202DA481C20700BE0926B824216
:100B600014DDFF313C0078C300000806000E207041
:100B700003D119218620F4F78EFF2078FF3000067C
:100B8000000EF6F790FA2078FF300006000E03F012
:100B9000EEFC10BD0000186301003C420100094852
:100BA0000021018141813C00B4C300008181C181E9
:100BB000074A02800123DB0243808280C2804176A3
:100BC00031218176012101767047000030800700D5
:100BD000FFFF000080B50120F6F7F8F80120F6F7D6
:100BE000DBFC0120F6F75AFA3C00F0C300000120BC
:100BF00000F0F1FD0120F7F7C6FB80BD000010B545
:100C0000114C002907D1002802D10120E06006E044
:100C10000021E16003E0012907D1002801D0207004
:100C200003E018218620F4F73CFF3C002CC40000B0
:100C30002078FF300006000EF6F73EFA2078FF30ED
:100C40000006000E03F09CFC10BD000018630100BC
:100C5000054980B50968884205D0FEF7FFFB00F022
:100C600087FAFFF72BFC80BDA86901003C0068C42F
:100C7000000001494870704700002C6301000149E1
:100C8000C860704700004C7B0100034901200978CF
:100C9000002900D00020704700002C630100044AA6
:100CA000002802D0906901309061D06940183C0062
:100CB000A4C40000D0617047905C0100FEB5041C24
:100CC00000680568281CFEF727FF071C6069154EA1
:100CD000C007C00F21D001AA02A9281CFEF712FFED
:100CE0003878C0070CD46069800708D500AB187A43
:100CF0003C00E0C40000002801D0022802D1706A44
:100D000001307062FEBD00AB187A002801D00228C5
:100D1000F8D1706A01307062B06A0130B062F1E7F8
:100D2000F06A0130F062EDE70000905C01000249DA
:100D300048693C001CC50000013048617047000054
:100D4000905C01007047000070470000011C4031BA
:100D500010B50A8B1207920F012A33D04A781A492C
:100D6000041C6034002A0B6A22D1E279012A02D9DC
:100D7000CC6801343C0058C50000CC60022A02D97E
:100D80000C6901340C610C6801340C60446B002C5C
:100D900003D00469247CE40702D54C6801344C601C
:100DA000806B002802D0086B01300863002A0CD049
:100DB0009818013808E03C0094C50000012A01D0D1
:100DC000022A02D1886801308860E0791818086228
:100DD00010BD0000905C01007047000001490A202E
:100DE00008817047C47A0100F0B5324F041C78784E
:100DF00085B0C007C00F03903C00D0C50000B87894
:100E000002900120A0400490391C88702C48008872
:100E100006F00BFC0190FEF7AEFC0430294EA50055
:100E200071590979884206D0FEF7A5FC7159043042
:100E3000087101207870002078703C000CC600001A
:100E400021480121204E3038015571590320087086
:100E500006F0C6FB061CFEF791FC36180E3609E0BC
:100E6000301C06F0F5FA002804D023218620F4F780
:100E700033FE03E0F6F734FB0028F1D03C0048C60F
:100E80000000124813493C3800780872201CF4F71F
:100E9000A2FA0E4E715908710398002801D0012161
:100EA000797009480088019906F0BDFB0298B87076
:100EB000094949790498884203D0242186203C00BE
:100EC00084C60000F4F70EFE05B0F0BD0050070028
:100ED000D0790100107B010080800700508007005E
:100EE000B0B50D1C041C052801D3F4F729FE052D0F
:100EF00001D3F4F725FE0B4AA8001158A0001058A2
:100F00003C00C0C600000EC90EC0062106220648DD
:100F100069432A380918624310180622F3F70FFFB5
:100F200002483038415D0155B0BD107B0100B0B5BD
:100F3000041C0E480D1C80780121A140084003D0FC
:100F400001213C00FCC600008620F4F7D1FD0621FB
:100F50000622094869430918624310180622F3F76C
:100F6000F1FE201CF4F740FA034AA1002A3251583E
:100F70000871B0BD00500700E67A0100034980B552
:100F8000002048603C0038C7000007F032F980BDFF
:100F90000000D47A010010B5041C052801D3F4F731
:100FA000D8FD0749087A074A107001200872FEF739
:100FB000F4FB044A0430A1003C325158087110BDC2
:100FC0000000808007003C0074C70000D47A010054
:100FD000034980B50120486007F00EF980BD00008C
:100FE000D47A010010B5041C052801D3F4F7B4FD30
:100FF000201CF5F78FFE0021201CFBF731FD01219D
:10100000002800D0011C09043C00B0C70000090CF6
:10101000201C04F022FA10BD000006490120054BF7
:10102000886000203C33002182009A581170013002
:101030000528F9DB7047D47A01000F4938B5002044
:1010400088600E48011C20318A793C00ECC7000002
:1010500000AB1A70C9790A4C094D59700C343C35F3
:1010600000210322635C002B02D08B00EB581A7026
:1010700001310529F6DB00AB1988C18438BD0000B9
:10108000D47A010000100700FFB5144F3C0028C8B7
:101090000000041CBE790D1C81B00F2000F0B9F8CF
:1010A0002A1C104D0090211C281CF4F7DEFC211C8A
:1010B000A81D039AF4F7D9FC211C281C0C30049AB3
:1010C000F4F7D3FC211C281C12300A9AF4F73C00D8
:1010D00064C80000CDFC07F09BF8009800F076F89B
:1010E000BE7105B0F0BD000020100700E67A0100D7
:1010F00010B50020F6F726F80749887800090001A6
:1011000088700024201CF5F711FE01342406240EFB
:101110003C00A0C80000042CF7D310BD0000005014
:10112000070080B502F0E3FB034881780F221143EA
:10113000817080BD000000500700F8B50D1C041C34
:10114000052801D3F4F717FDA600002D114F07D194
:10115000B8593C00DCC80000816800290ED14078F5
:1011600000280BD002E0FF352D062D0E291C201C77
:10117000FBF788FC011C201C04F07EF906490120C5
:101180003039085504483C388068002802D1B959E4
:10119000032008703C0018C90000F8BD0000107B57
:1011A000010080B504F0CDF980BD10B5041C052800
:1011B00001D3F4F7E6FC201CF5F7C1FD0020054A39
:1011C000A10051588860044988780122A240104348
:1011D000887010BD00003C0054C90000107B010065
:1011E00000500700024A9178084390707047000051
:1011F00000500700F8B50C4FBE790F2000F018F82A
:10120000051C0024201CF4F70DF9084AA1005158D0
:10121000087101342406240E3C0090C90000042CFF
:10122000F3D3281CFFF7E1FFBE71F8BD00002010CA
:101230000700107B0100B0B508498D788A78054019
:1012400082438A7006F0F9F9041C0A34201C06F067
:1012500034F90028FAD0281CB0BD3C00CCC90000ED
:101260000050070001490A2008817047387B0100BF
:10127000F8B510480426041CE034051C383D00274E
:10128000201C1C30E460A06127610B48A682E0614D
:101290002762A7620620A084201CFEF73C0008CA33
:1012A000000087FC201C0C30F6F7B7F90549383CE4
:1012B000AC420880E7D1F8BD0000D4E4010012611F
:1012C0000100487B0100F7B5051C0C230F1C1249D7
:1012D00058434418208806F0EAF9A07801283C0019
:1012E00044CA00001AD16668022F05D15C20805BD9
:1012F00002990009884211D1281CFEF7FBFF301C1F
:10130000F9F7FAFD0420A070391C281CFBF7F4F84B
:10131000034AE8003C32115801311150FEBD000073
:101320003C0080CA0000607B01000120064A0021C9
:101330000C234B439B189B78002B00D000200131DD
:101340000429F5DB7047607B010070B5041CFFF7D2
:10135000EAFC002803D120210C20F4F7F6FB261C20
:1013600060363C00BCCA00000021F171E164606B92
:10137000251C4035002831D0FFF704F90122120363
:1013800000282069018801D0914300E011430180C9
:10139000206901220088D2022883201C583001884D
:1013A000914301803C00F8CA0000A36B5208002B57
:1013B00010D091430180288B0007800F012815D0A1
:1013C0002E20015D20690430F8F741FD616AFEF7C7
:1013D000A8F904E011430180201CFBF7CCFB6883D3
:1013E00004E0206941803C0034CB0000A88B2169D7
:1013F000C882E068F6F720F93080606D002804D0DC
:1014000000220321707AFEF70DFF201C00F0B6F9D0
:10141000707A06F045F870BDB0B5002406F022F9E8
:10142000094A00210C234B433C0070CB00009D185F
:101430006B685B6CAD78C31A012D02D1A34200DD4D
:101440001C1C01310529F0D3201CB0BD0000607BBD
:101450000100B0B5041C06F0A8FE0C20084960434A
:101460004518288806F035F968683C00ACCB0000C8
:10147000002806D02030007B012802D1201CFFF775
:10148000A3FAB0BD607B0100FFB585B00FAE60CEA2
:1014900038201E497043171C4418FFF77FF80122BB
:1014A0001203002803D02088904320803C00E8CB22
:1014B000000002E02188114321801198391CE0626C
:1014C0000598F8F7D0FC011C2B1C381C069AFEF777
:1014D00020F960800622201D0F49F3F772FC231CBF
:1014E0000898303318700E980C49587065633C00AA
:1014F00024CC0000002002900122049209480391AC
:101500005A780188019200911978243B301C626B53
:10151000FEF7A8FE09B0F0BDD4E40100126101009D
:101520005D4E0000487B0100FFB587B0109812AFF8
:101530003C0060CC00008C46A2CF4C23304C6B4367
:101540001C19161C159A2785271C303706970597F6
:1015500000233B73059F78731198271C60646160BA
:10156000226040373E70614661870798311CF8F76A
:1015700080FC3C009CCC00000599C8730A987870E8
:10158000301CFEF773F8002801D0012000E0002095
:10159000410002200140119A0120002A00D10020C0
:1015A00008433872201C2E300799FDF7CFFF281C06
:1015B00004F0AEF83C00D8CC0000FEF7FEFF4C2251
:1015C000124B6A43D218012109032A32002804D0A1
:1015D000101C12888A43028002E0108808431080A1
:1015E0000B490020039106990290002204920848BA
:1015F0000A7B4188231C3C0014CD0000019200911D
:1016000079780833281C6268FEF738FE0BB0F0BD0D
:1016100058E30100754F00003C7C0100B0B50C1C84
:10162000012827D0802830D1E06C002808D069201C
:10163000005D1849C00040183C0050CD0000043047
:10164000016801310160201CFFF7E9FB134D503D9B
:10165000E868002805D02E20005DFEF710F802F0A3
:1016600042FE201C6168F3F72FFB403460780028AD
:1016700002D106F012F8A860B0BD3C008CCD00008D
:101680002006000E8128FAD1220C2004000E02212F
:10169000FEF7E6FDB0BD0A210C20F4F77DFAB0BDDF
:1016A0009C7B0100F8B5184E184F051C3479B879A9
:1016B0000090201CF5F77CFF002806D03C00C8CD28
:1016C0000000124838384068854201D1002D03D10E
:1016D00010218620F4F763FA0D490020383948605C
:1016E0000421201CFFF759FC0421201CF5F7EBFE18
:1016F0000C21064A6143303A89180C7104203C00E1
:1017000004CE000030710098B8710F20FFF7A6FDDD
:10171000F8BD0000A47A010020100700F8B5041CF1
:101720000F20FFF7C1FDF5F73BFF0125002800D092
:101730000025164EB079164F00903879042801D153
:101740003C0040CE0000002C03D111218620F4F78C
:101750002CFA1048290638384460090E0C1C042065
:10176000FFF721FC0321201CFFF741FC211C042072
:10177000F5F7AFFE0C21074A69430420303A891877
:1017800008713C007CCE00003C710098B071201CB8
:10179000FFF750FD0420F8BD20100700A47A0100D7
:1017A0000C2302495843401880687047747A01003E
:1017B0006030C1798079814201D9012070470020D1
:1017C000704700003C00B8CE0000014880687047B8
:1017D00000004C7B010038B56921095C1823104AD0
:1017E000594389188A6801328A604B69D21ACB68DA
:1017F000934200D2CA6000220B4C0260221C2032AD
:10180000957900AB1D703C00F4CE0000D2795A707F
:101810000A68002A01D1486000E0106000AB08604F
:101820001888E08438BD0000C47B01000010070068
:1018300018230A495843411808690130086148686B
:10184000002809D0486901303C0030CF00004861D1
:10185000486802684A60002A00D10A607047002088
:101860007047C47B0100F8B5124E104D0F4C0A278B
:10187000211C0020E0602A31221C1832A160626124
:1018800027820C4AE061A26160623C006CCF0000DC
:1018900006202084081CFEF7D7F9201C0830F5F735
:1018A00001FF4C3CAC427080E5D1FF203070F8BDA8
:1018B00088E401000CE301003C7C0100126101009E
:1018C000F8B5041C0B480E1C171C44703C00A8CF34
:1018D000000005F000FF051C391C301CFDF7ABFFB4
:1018E0000C21054A28180A30614308325050034839
:1018F000891800688860F8BD00006C7A0100786E75
:10190000010070B50B4E051C7078FF280FD03C000D
:10191000E4CF00000C23084C58430834205805F04D
:101920001DFE002806D170780C23584300198168E9
:101930002943816070BD00006C7A010080B53021C0
:101940000148F3F743FA80BDECE5010010B505F05E
:101950003C0020D00000C5FE0A4944180CE0201CC1
:1019600005F0F7FD002807D0F5F751FE002803D059
:1019700013218620F4F731F9F5F749FE0028EED15E
:1019800010BDB0360000FFB58BB0199B0D1C041CB8
:101990001A203C005CD00000002B169900D11820C2
:1019A00001901498002827D0FF20199B0130002BAC
:1019B00001D1182300E01A230433824204D3D01A41
:1019C000400840000004000C0D906A480088C21ACC
:1019D0001204120C3C0098D000000492002908D098
:1019E0008979664A4900515A049A511A0A04120C1C
:1019F0000492049A824205D90020049002E06048D3
:101A000004900D9001980104090C0A910020F4F74C
:101A100084FA009000683C00D4D0000000260690B4
:101A20002060002005900E9800240005000C09900D
:101A30001A980D9F4007400F089007940395002DBA
:101A40000DD02889B84204D836183F1A07D0ED685F
:101A5000F5E73904090C281C3C0010D10000F4F70C
:101A600038FBEFE7002E02D10799002971D1271C1E
:101A70006C20F4F788FB0799041C002920D10794F7
:101A80000020A0611898271C606017982437A06078
:101A90000698206115980FC80FC73C004CD1000074
:101AA00014985C2160630998085319986921E063D0
:101AB0001B9808551C9860651998002823D0089831
:101AC000069908831FE06C22201C0799F3F71AFA85
:101AD0003C60019862213018C85315983C0088D1A9
:101AE00000004021807AC8550020B86306980A9902
:101AF000F4F71FFAF8600299F4F73BF9201C403024
:101B0000818B059A1207120F1143818303985E217E
:101B100002900198224A30180853126801213C00B3
:101B2000C4D10000081C002A00D01B980006049AAB
:101B3000000E964203D92C2211551B4904E0159939
:101B40002C22097A11551949085C662108551C9800
:101B5000002801D01F200855002D03D0E86803900D
:101B60003C0000D20000002000E009E0E860059899
:101B7000002601300004000C0D9F0590039D6DE7C9
:101B80000098E0600299F4F7FAF800202060012143
:101B9000A1636034608007980FB0F0BD000006615B
:101BA00001003C003CD200005C4301003809000009
:101BB000186701000E6101000A6101000148006818
:101BC00070470000C46A01000249091D03C940189A
:101BD00070470000C46901000148006970470000B7
:101BE000C46901003C0078D2000001484069704798
:101BF0000000C46901000148806970470000C469A1
:101C0000010070B50D4E0020351C4035F0630DE02D
:101C1000A068F4F77AF9B36D002B04D000220120FC
:101C2000616BF3F795F83C00B4D20000201CF4F788
:101C30009DFA281CFAF742FD041CECD170BD00008F
:101C4000C4690100F8B51A4F0026F86B00282CD0A3
:101C5000381C403000901DE01648B96B02F05CF86B
:101C60000022201C144903F03C00F0D200007BFF4E
:101C7000051C04D1386A0130386201360DE0A068D5
:101C8000F4F749F9BB6D002B04D00022281C616BCE
:101C9000F3F764F8201CF4F76CFA0098FAF711FDDA
:101CA000041CDCD10748B96B02F03C002CD30000C7
:101CB00025F80020F863301CF8BD0000C46901005D
:101CC0003463010011300000C460010001490120AB
:101CD000C8637047C469010080B50020054A00212F
:101CE0001C2343439B1801300428D9663C0068D369
:101CF0000000F8DBFCF7FDFC80BDC4690100014970
:101D0000C86470470000C4690100014988647047D5
:101D10000000C4690100B0B5041C0D1C211C028E1A
:101D2000806A4031F3F72FF8002816D102213C00D9
:101D3000A4D30000201CF4F76FFAE269C000101869
:101D4000828BAB889A4204D182692B689A4208D26E
:101D500001E09A4205D2002118300CCD0CC000E001
:101D60000121081CB0BD0000F8B5061C002744681E
:101D70003C00E0D300000FE00949486A01304862A6
:101D8000A069002802D0F4F700FAA761266225684E
:101D9000201CFFF752FB2C1C002CEDD1F8BDC469B0
:101DA00001000330074A8108136850681B688900E6
:101DB00009183C001CD400008B4201D3516000E0A4
:101DC00000209060704700008C6E010070B5124ECC
:101DD0008038C50070590C1C002804D101210D2049
:101DE000F3F72EFF0DE02069002805D1A81981889E
:101DF000E06801F03C0058D4000047FA20617159B6
:101E0000201CF2F7BBFF041C002C07D0E068002860
:101E100001D0F4F792F8201CF4F7BDF970BD5442DC
:101E2000010070B5041C0D1C0E490622F3F735F8AD
:101E30000026E66166623C0094D400000720302151
:101E40000855E663281CF8F76BF8A076201C1430C0
:101E50000622291CF3F724F80622291CA018F3F700
:101E60001FF8266170BD00001261010080B5FDF70A
:101E700085FE80BD014948603C00D0D40000704719
:101E80000000E4650100024980B54968F2F77CFF73
:101E900080BDE465010080B5F4F7E5F9074907481E
:101EA0000EC90EC018380068002802D002F0B7FA38
:101EB00080BD02F09EFA80BD00003C000CD5000001
:101EC000B058010090730100054980B58968002071
:101ED000002900D103200006000EFAF7E3FB80BDC5
:101EE000606C010080B5034806220349F2F7DEFF6B
:101EF00080BD000040800700126101003C0048D511
:101F00000000B0B5041C0C4D0B1C211C00200C3D26
:101F10000029094C05D02878211C1080021C181CAF
:101F200007E011880E2907D80A06120E191C201C7A
:101F30002A70F2F7BEFF0120B0BDB06901003C007D
:101F400084D5000010B500200A4A012111600A4C16
:101F50000AE0021C016A5032914205D061783C23AC
:101F6000594309190431016204F0BAFB0028F0D189
:101F700010BD0000DC62010068610100044880B50A
:101F80003C00C0D500000068002803D0011C1020D0
:101F900004F0C7FE80BD286101000322111F80B537
:101FA0000020FBF776F980BD000080B50BF0B9FA90
:101FB00080BDFFB583B0161C002101911F1C0821B4
:101FC00002AA3C00FCD50000FAF70EFF041C2AD13F
:101FD00002984168490001D4092424E0FAF752FF2D
:101FE0003860029841684902CD0F291CFAF744FF76
:101FF000011C306038680006000E00F01BF8002855
:1020000001D10A243C0038D600000FE03168029864
:102010002B1C01AAFAF7D7FF002806D00198002848
:1020200004D004990968814200D2032401980499DC
:10203000086007B0201CF0BD000070B5051C0E1C28
:10204000012400F084FF3C0074D60000002808D072
:10205000032D01D0042D04D10320C003864200D3F8
:102060000024201C70BD00007CB5151C061C0C1C37
:10207000291C6A4601ABFFF7A5FF002802D1002CFE
:1020800001D103207CBD17483C00B0D6000000AB56
:1020900006601879072821D202A31B5C5B009F44CD
:1020A00000001D040406101713000420EDE72A1C8D
:1020B000211C0120009BF2F781FE002812D106208E
:1020C000E3E72A68009905E000983C00ECD60000A0
:1020D0004278811C01E02A686946201CF2F7FEFE66
:1020E00003E004218720F3F7CFFD0020D0E70000B4
:1020F000F86B0100F7B586B00E1C082105AA0698FA
:10210000FAF77EFE041C45D1059841683C0028D7AB
:10211000000002904902C90F002504950391089F11
:10212000FAF7D5FE019002A903C9FAF7C6FE019994
:10213000052914D202A35B5C5B009F4400000E03E0
:10214000060C030087420ED807E087420BD83C00FC
:1021500064D700000125C01B049007E0874205D129
:10216000012503E005218720F3F794FD002D01D11F
:10217000032415E005984168002969DA3A4A06996E
:102180001160FAF791FE071C05980399FAF786FE8D
:102190003C00A0D70000051C011C381CFFF75FFFA6
:1021A000002801D10A245EE0072F57D202A3DB5D8D
:1021B0005B009F440000530404062E504800042492
:1021C00051E00498002801D1002714E0089908186C
:1021D00000043C00DCD70000000CF4F72BF8071CCF
:1021E000311C089AF2F786FE089804993818F2F71D
:1021F0002FFE089804993E1C40180890311C0020BE
:1022000008AAF2F7ECFD002800D10524002F2DD0FC
:10221000381CF3F73C0018D80000EDFF29E00399C3
:10222000002904D0059840688702BF0A00E0002713
:10223000311C281C089AF2F760FE0499002903D08B
:1022400008982818F2F707FE002F12D0F2F7CCFDFD
:102250000FE0311CA81C3C0054D80000089AF2F78B
:102260004FFE0898687007E0FFE7072404E00824A1
:1022700003218720F3F71AFD201C09B0F0BD0000F0
:10228000F86B01009EB51C1C00AB19720092002275
:1022900001946946FBF708FA3C0090D800009EBD07
:1022A00000008FB5029200220090019003916946D0
:1022B0000420FBF7FCF98FBD0000B0B50C1C012811
:1022C0000AD0032819D004282CD1606801F035FC0D
:1022D000011C83200CCC22E01C203C00CCD8000048
:1022E00014496043401814494518281CF8F746FC67
:1022F000A968002903D0221C082005F071FEB0BD9A
:10230000208CC82801D3042004E0652801D30220D2
:1023100000E001202084201C03F0DCFA3C0008D9F6
:1023200000002268E368011C8220FFF7B4FFB0BD03
:10233000A0210820F3F7C3FCB0BDDC71010064EEFE
:10234000FFFF0348044A81685161C068906170478B
:102350000000F4680100C07101000349044A3C0018
:1023600044D90000086B90608868D0607047000016
:10237000905C0100C071010000B5FFF7F1FFFFF7AD
:10238000E3FF00BDB0B50D1C002814D00B490C4C68
:1023900088686269C968801AA269891A401804D0DD
:1023A0003C0080D9000064235943F2F7C4FE206149
:1023B000FFF7CDFF206928600120B0BD0020B0BD2F
:1023C0000000F4680100C0710100B0B50D1C0028C8
:1023D00017D00C490D4C086BA2688968801AE26816
:1023E000891A3C00BCD90000401807D022889042CE
:1023F00004D964235943F2F7A1FE6060FFF7B6FFEA
:10240000606828600120B0BD0020B0BD905C010074
:10241000C07101007CB51068002802D000F024F8DB
:102420007CBD0F483C00F8D90000C0698468E068B2
:10243000256AA669F3F7E3FDE169F3F706FD201CC1
:10244000E2694030C18B12898918C1830749019420
:1024500000912869331C82880168E068C068F8F739
:102460001EFCE0E700003C0034DA0000846A010052
:10247000915E0000F0B58569066A041CC06885B0ED
:10248000C068002801D1F3F757FC0A49029504946B
:102490000391306982880168262001920091435D92
:1024A000E068E1692A1C0E323C0070DA0000C06866
:1024B000F8F737FD05B0F0BD0000E9D9000010B510
:1024C000141C0548FCF77BFBA068F3F79EFDE16850
:1024D000C160201CF5F7BBFA10BDA06A01007CB5F5
:1024E000041C6030027BA16900913C00ACDA000062
:1024F0000192221C211C3831A06848320D1C6369EE
:1025000003F07AFB08210020F3F788FDE0602669DC
:10251000B16B002901D0102300E018230549019474
:1025200000913168CA180823011C281C3C00E8DA15
:102530000000F8F720FD7CBD000081DA0000F0B556
:102540004668171C041C0121301C9BB0FAF70DFCD7
:102550000025002803D013490A7A012A01D1012558
:102560001CE088624E612089C861608900283C00B7
:1025700024DB000003D000200884488404E0E068E5
:102580000884208A4884608A8884086B002803D1E4
:1025900001A803F077FC04E001200861002002F0AC
:1025A00039FB3D711BB00120F0BD0000F46E01004D
:1025B0003C0060DB000010B5041CF7F7E8FB0028C6
:1025C00011D14B20005D01280DD1201C04F085FAAB
:1025D0000021201C04F0F3F8A0690021C207D20FEB
:1025E0000420F4F7D8F910BD000038B5041C04F03D
:1025F00036F93C009CDB0000002803D04030807A94
:10260000002825D10C2029210855211C0622A018BC
:10261000F2F7A0FC201C06220E49F2F79BFC0120D9
:10262000E06160620720302108550025E56306203F
:1026300000AB18803C00D8DB0000E068002801D027
:10264000F3F7DBFC02216846FDF773FBE060201C1A
:10265000FFF769FCE560201C38BD12610100FEB582
:10266000051C0E1C152000AB98801421171C00209F
:10267000F3F7E3FC02903C0014DC0000046806223F
:10268000311C601D2571F2F76BFC0622391C201CE1
:102690000B30F2F765FC01A8FFF752FCFEBD00000D
:1026A00080B50023FBF75CF880BD000070B5051C09
:1026B00008350F4E291C041C3C0050DC000006228B
:1026C000301CF2F750FCA088B082281C05F0A1FF56
:1026D00000280BD0E0883061281C04F0CCF8A188D9
:1026E000403041800020F4F7B8F902E00420F4F70C
:1026F000A0F9002070BD707C01003C008CDC000063
:1027000080B50020FBF7F8FB80BD000070B5041C0D
:102710000430051CFDF732F8002809D00020F7F737
:1027200037FC002804D00622011C281CF2F71EFCEE
:102730000A4E0622291C301CF2F718FC3C00C8DCAB
:1027400000006089F082281C05F069FF002803D092
:102750000220F4F788F902E00520F9F7F4FA0020E6
:1027600070BD707C010010B5041C007904281CD2D7
:102770006079012801D0032804D1002201213C0006
:1027800004DD0000A01DF9F769FC6079002804D180
:1027900022790021F9F762FC0AE0032808D100241D
:1027A000221C00210020F9F759FC0134042CF7DB2E
:1027B000012010BDF0B597B0171C051C0430041C97
:1027C0003C0040DD000015AA16A905F0E2FE002835
:1027D0002ED015984B21095C002923D0012902D065
:1027E00002291FD101E004F090F9AD7A1348169E3A
:1027F00005800622211C0830F2F7C1FB221C311C87
:1028000002A83C007CDD000000F074FB0A200AA94D
:10281000487200AB9D80022101A8FDF79FFA059048
:1028200002A8FFF795FBF3F7F7F90021159803F0DD
:10283000E1FF002000E00120387117B00120F0BD59
:10284000987C01003C00B8DD000080B50120FBF75A
:1028500062FB80BD0000B0B5041C807D151C0A1C05
:10286000C007C0170130211CF9F7FBFC002803D179
:10287000042028710120B0BD206AF7F776FE606A57
:10288000F7F77BFE206A3C00F4DD0000FEF788FAD3
:102890000020B0BD10B5141CC27981798088F7F78B
:1028A000A1FA2071012010BD80B50123FAF770FF55
:1028B00080BD0000F0B5041C081C00210F2891B059
:1028C00000D30221002941D13C0030DE0000C000CD
:1028D000244F1090C619B288216802A8F2F75BFB5A
:1028E0002189B088091A002907DD09042268090C2A
:1028F0001018F3F7C0FB051C00E00025B07980211B
:10290000884317497831095C00203C006CDE0000E8
:10291000F3F7B4FB071C00681349019010980B589B
:10292000019A291C02A8F2F7ACFA0090281CF3F7D0
:1029300073FB201CF3F782FB0098002808D0029854
:1029400001990860B079391CFAF720FF3C00A8DE35
:10295000000011B0F0BD381CF3F761FBF9E72D2042
:10296000F3F7F5F9201CF3F76CFBF2E700002444C1
:10297000010070B5051C2035061CA879042848D232
:10298000E979012913D1301C283003F092FF3C0073
:10299000E4DE000000283FD0011C8C310165A979DC
:1029A0004C22041C11548118416250340462E11E0F
:1029B00081620BE000292FD13C2218494243541870
:1029C000174A04341268002A00D14870002C23D022
:1029D0003C0020DF0000351C3035E879012801D0AB
:1029E000052801D10620E8712022311D2068F2F768
:1029F000DEFAB08CA080E879A071A8790025A063E8
:102A0000012060810020E0602E36E80000191830B7
:102A100008223C005CDF0000311CF2F7CBFA0135E4
:102A2000042DF5D3012070BD68610100DC62010056
:102A300010B5041CC07A012801D0032807D1201D3D
:102A400003F040FF002802D0A17A40304173E07AC1
:102A5000002801D03C0098DF0000032802D1A07AB2
:102A600002490870012010BD00006861010070B5C6
:102A70000E1C0321041C301CFCF7E1FB002801D0D4
:102A8000857800E000250B48321C00680368207C34
:102A90008007C00F211C3C00D4DF0000F7F762FE66
:102AA000002805D00121281CFDF7FEFB002000E0D6
:102AB000082003F0C5FF002070BD0000E4650100A0
:102AC00080B5426800880121490608432D2105F0A0
:102AD000D3FB80BD034901203C0010E00000497891
:102AE000022900D0002070470000846601008CB5E8
:102AF00001281FD100290DD001290BD0022901D0B6
:102B0000032916D10020F9F714FC932000AB18809C
:102B1000002008E0012900D000203C004CE000002B
:102B2000F9F70AFC832000AB1880022000F0CCF8F3
:102B300001906846FFF73AFA8CBD01210E20F3F7A9
:102B40001BF9F9E7FFB5171C1E1C1421002083B0E8
:102B5000F3F7ACFA051C0468122000AB3C0088E0D7
:102B6000000098800622601D0399F2F732FA0020D7
:102B7000207127730499201CE172311C06220D304C
:102B8000F2F727FA029501A8FFF713FA07B0F0BD94
:102B90000000F8B5061C0F1C0C210020F3F73C00C8
:102BA000C4E0000089FA0568041C281D0622311CB7
:102BB000F2F712FA6F81201CF8BD0000B0B5041CBA
:102BC0000D1C08210020F3F777FA01688C718D80C5
:102BD000B0BD0000F7B50E1C1021171C0020F3F744
:102BE0003C0000E100006BFA0468051C201D062271
:102BF0000099F2F7F4F96681A781281CFEBDF3B5B0
:102C00000C1C0821002085B0F3F759FA061C076850
:102C1000E068002802D00599012904D1059838718F
:102C200000203C003CE10000787156E0036801217F
:102C3000039320690290FCF717FB051C02983221D0
:102C4000FCF712FB0022D243011C281C04ABF7F74F
:102C5000B9F8002804D1301CF3F702FA00263CE052
:102C6000002D05D03C0078E100006878093807287D
:102C700001D8322028701C210020F3F726FA019099
:102C80000568011C301CF3F740F9E068F3F70BFA14
:102C9000A861E1680198F3F738F90020E060059831
:102CA0008021084338713C00B4E100000120211C60
:102CB00014317871281C0622F2F79AF9029A292019
:102CC0000092005D0121E26A082800D00021281C42
:102CD000039B02F09DFFA06B2861206C68617F3030
:102CE00001D10F206861301C3C00F0E1000007B00A
:102CF000F0BD10B5041C08210020F3F7ECF90168C1
:102D00000C7110BD00000148006870470000286188
:102D100001000149086070470000E4650100021CE1
:102D200001200006084380B52D213C002CE2000064
:102D300005F0C0FA80BD000080B5012807D0F12859
:102D400025D0F32827D1022002F0BCF980BD00294C
:102D50001AD0012903D0F229F8D188211CE01048AB
:102D60000178002905D140780128EFD13C0068E2C4
:102D7000000000F016FA80BD0B4814300089FCF703
:102D80005AFC011C01220F2005F09FF980BD04F0C0
:102D900052FA80BD0020FAF732FE80BD02210F20DA
:102DA000F3F705F880BD84660100014800783C0017
:102DB000A4E2000070470000746601000149002091
:102DC00048607047EC650100F8B50E1C134D011CFE
:102DD000141C6822281C1F1C0C30F2F771F90F49D3
:102DE0000020AC394860012129601921192C6E6737
:102DF0003C00E0E2000000D3211C2981094914397C
:102E000088738F74C878012808D001210F2005F03D
:102E10009CF91920FCF715FCFBF799F80120F8BD87
:102E200000009866010080B5012802D100F02FF85B
:102E300080BD3C001CE3000001211D20F2F7C0FF13
:102E400080BD00007047000001200749000580B5E3
:102E5000886000228021162005F04CF904F034FD32
:102E60000249086180BD000000100700246D0100C8
:102E7000064A80B53C0058E30000D16A814207D180
:102E8000107F2423044958434018C068F2F735F8EE
:102E900080BDD4790100944601001D481CB500781E
:102EA00000282DD01C480068002829D01A4A1A4B47
:102EB000043211681C693C0094E30000A14222D155
:102EC00051685B6999421FD1164949689368C91ACC
:102ED000814219D2D06814490130D0600968884213
:102EE0000CD90622FF216846F2F72EF9F3F7ACFC65
:102EF000011C0023002268463C00D0E3000002F0E1
:102F0000CEF901221D200A4905F0F7F81CBDF7F79C
:102F100088F904228118081CFCF727FBF6E71C75CA
:102F200001004475010028610100905C0100F05926
:102F30000100A086010080B501683C000CE400009F
:102F4000002915D10079022812D1081CF7F780F862
:102F500000280DD003F0F2FC0830418F002907D182
:102F60008069002804D08079062801D1FCF718FB7D
:102F700080BD000001490020886270473C0048E4A1
:102F8000000078690100B0B5054D041CA91DFFF7CC
:102F900014F80622291CA018F2F74BF8B0BD707C7B
:102FA0000100B0B5041C151CFFF707F80622291C08
:102FB000A018F2F73EF8B0BD000080B50A303C0022
:102FC00084E40000F7F7BCF90123002803D005488A
:102FD0000078012804D100220021002003F0C6FD62
:102FE00080BD0000A079010080B5002300220021EF
:102FF000002003F0BBFD80BDB0B5054DAC790A1CC7
:103000003C00C0E40000011C0123012003F0B1FDDD
:10301000AC71B0BD000020100700F8B5061C0C1CF8
:10302000880702D5F6F747FA10E060070ED5174F6C
:10303000A320C05D154D102800D3154D04F059FC98
:10304000B96F3C00FCE40000401A291A0120F6F791
:10305000C1FAE0071149C00F48600CD00D4C443C48
:10306000207803280FD1002E06D0F6F7F9F9011CBD
:103070000120F6F7AFFAF8BD09490120F6F7AAFAE0
:10308000012020703C0038E50000F7E70121301CEA
:10309000F6F789FAF2E7A60E0000A46C0100C40955
:1030A0000000B057010040420F0080B5062804DB45
:1030B0000521FF20F2F79FFE80BD034AC00011509A
:1030C0000121801801713C0074E5000080BD000002
:1030D0009C5A01000148806870470000D0600100E0
:1030E000B0B5084C251D281C216800F0F1FE002811
:1030F00003D101210448F2F7CFFA281C216800F01F
:10310000FBFEB0BDC06001003C00B0E500002C102B
:103110000700B0B5104D0C1CA868002802D104F0BF
:10312000F4FB2860201C04F038FB0121032003F08D
:10313000C4FE04F0F0FBA86800280BD104F0E5FB06
:103140002968001B401A696840183C00ECE5000043
:103150004108401828600120A860B0BDD06001007F
:10316000F8B51F4E0024B068002802D104F0D0FB4F
:10317000706005F061F804F08FFB051CF9F766FE3E
:103180003168184A41181268E80B002A3C0028E60A
:10319000000000D1A80A401885421FD9144F2D1AEB
:1031A000381C2030817900AB1970C079587005F057
:1031B0006EF8002803D102218F20F2F728FE291C87
:1031C0000C48F268F8F709FC002804D0011C3C0008
:1031D00064E60000281CFFF7A5FF012400AB188857
:1031E000F88405F047F8201CF8BD0000D06001000D
:1031F000F474010000100700891301000149012047
:10320000C8607047D0600100064880B5006801289A
:103210003C00A0E6000007D10448AC38016903482F
:1032200000F079FEF3F72BFA80BD98660100346355
:10323000010080B542788168007903F0DEFF002844
:1032400001D1F5F7B6F980BD00001FB504F069FBA8
:10325000F6F73C00DCE6000091FF164C022803D193
:10326000FFF7DCFD042802D3002020701FBDFBF710
:10327000F7FC0028FAD1606A0028F7D02078800790
:10328000F4D40921162004F093FF012020700B4C88
:10329000094902903C0018E700000194009104F0F5
:1032A00046FB001903906846FDF7B5FB0022162186
:1032B000842005F03EF8DCE70000606C010061ED61
:1032C000000040420F00234870B580789CB0012870
:1032D0003ED1204C09A83C0054E70000803C611C12
:1032E000FEF792FE042011AD6872A06F19A9189024
:1032F0007C20005D012608711D20005D002806D09D
:1033000010961296FCF7F6FA2872207A1190F3F7CD
:10331000CDFF6A21085340343C0090E700000022B2
:1033200001A906A8F6F7CDFF211C0020FBF7CBFB77
:1033300006A9FBF7C8FB01A9FBF7C5FB0A49096809
:10334000002907D0331C0A226946FBF7DAFB009AF2
:10335000072191700C9009A8FEF73C00CCE7000013
:103360007BFE1CB070BD000084660100E4620100B9
:10337000F8B5041CC068FF22016812020E1C087B0D
:10338000497B090211400843051C311C0622A01884
:10339000F1F77CFE0622B118201CF1F73C0008E88A
:1033A000000077FE280A290208430004032149028D
:1033B000000C884208D2E06801890E390181E0687A
:1033C00001680E310160F8BD0026201C103003F0AA
:1033D000E8FA218B002905D1E17D00290BD03C00C2
:1033E00044E800008069800708D4E068012601896C
:1033F00002390181E0680168023106E0E068018974
:1034000006390181E0680168063101601449002035
:103410000B1F42009A5AAA4202D11149063102E01A
:103420003C0080E8000001300228F5D3E068062265
:103430000068F1F734FE012ECBD1812000AB18805B
:10344000E17D208B49030843310308430004000C4D
:10345000010A000208435880E06819880068C180AA
:1034600059883C00BCE800000181B5E76A460100CC
:10347000B0B50D1C01890622083101810468044998
:10348000083C0460201CF1F70DFEE580B0BD000093
:103490006A460100F8B5002901D0002801D10020BA
:1034A000F8BD09043C00F8E80000090CF2F743FFFE
:1034B000061C051C002720E02C892968022C01D25B
:1034C000022001E048780230844202DD241A091803
:1034D000F4E7844210D0011B0A040104090C120C09
:1034E000281CF2F79EFE3C0034E90000002806D1BB
:1034F000E868F2F72DFEEF602889001B2881ED684F
:10350000002DDCD1301CD1E7F8B58568041C80693A
:103510002E1C00280DD07168F2F7F6FDA069F2F7B5
:1035200017FE06E00021C1603C0070E90000F16078
:10353000A08D36680138A085F0680028F5D1306884
:10354000A060A08D01380004000CA08502D0201CD2
:10355000F9F739F82A4F2A480068002803D00621D5
:103560006868FAF77CFD686800683C00ACE9000018
:10357000817800292BD1C178002930D1218E0139E1
:103580002186FBF715F8A16A081AA062E169884252
:1035900003D904210220F2F767FCB86800281ED086
:1035A0001A49208E49680C22521A90423C00E8E9E0
:1035B000000008D319239B01AF2292015943A06A4E
:1035C000511A88420ED200210C2003F0ACFC0020DE
:1035D000B86007E0012905D1C078172802D1A08E74
:1035E0000138A0862A1D06CAE0686369F1F73C002D
:1035F00024EA0000DCFCB54201D02D68B4E7A08DC0
:10360000002803D10548B96900F09EFCF8BD000010
:10361000FC5A0100CC5C010018570100C460010095
:103620008907074BCA0F80B5197C002906D0814352
:103630003C0060EA0000197403D10721152004F052
:10364000A2FE80BD00007869010080B5011C012048
:10365000FFF7E9FF80BD80B5011C0220FFF7E3FF03
:1036600080BDB0B51B4C6068FCF72FFF20680025BB
:1036700040683C009CEA0000002803D0FDF718FCDD
:10368000206845606068FCF7C5FE1448616800F07A
:1036900061FCA07A012805D0022803D020680068C8
:1036A00000F0DEF801211F2004F0B2FD00211F20F0
:1036B00004F0AEFD3C00D8EA000002211F2004F017
:1036C000AAFDA57221682C20405C8968F1F776FC80
:1036D0006068FCF7E4FE20680562B0BD0000147A63
:1036E00001003463010004490A68C868926A002A2C
:1036F00001D0096908183C0014EB00007047000075
:10370000147A0100B0B5134C051CA07A01380228C8
:1037100019D801211F2004F081FD2068FC23011C21
:103720002030027B1A400273002D0FD001231A4370
:103730000273A07A032807D13C0050EB000001205F
:1037400001F0E7FD002801D1FFF797FFB0BD4B6204
:10375000B0BD022111430173F6E7147A010010B5E0
:10376000041C0A30F6F743FE00280CD022880A49D0
:103770000B7A9004C00F002B06D13C008CEB0000AC
:103780001206920E202A00D10120C86010BD002828
:10379000FCD100222421802004F004FE10BD000092
:1037A000047A010080B5021C1F21802004F0FAFD7C
:1037B00080BD0000F8B51D4E041C30683C00C8EB0D
:1037C00000001D1C4768201CF1F70AFCFBF787FA74
:1037D000002804D0281CF2F72AFB002828D12088D2
:1037E000400525D430680068FEF759F9002803D158
:1037F000FDF789FAF1F7EDFB3068002540683C00E1
:1038000004EC0000002803D0FDF764FB306845603D
:1038100020880009000703D104F0C8F86188451822
:1038200030684561816A0131816220888004C10F5E
:103830000248F8F7CDFFF8BD147A0100B1EB0000A3
:103840003C0040EC0000B0B50E4C051C6068FCF775
:10385000F6FD0C48616800F092FB0021242004F082
:10386000ECFC0022D2438021242004F0B8FC00208C
:10387000E0602072206801682806000EF1F7B0FBB6
:10388000B0BD3C007CEC0000047A01003463010010
:1038900010B5041CC068F2F785FC201CF2F7B0FDDF
:1038A00010BD000070B51C4E051CB07A2C1C4034B5
:1038B000022826D1A08B3189884222D13068416A02
:1038C000002908D03C00B8EC00002030007BC00785
:1038D00004D5012001F02FFD002818D160780028C0
:1038E00009D1306802232030027B0D495208520072
:1038F0001A43027301E0FF21F53101221F2004F079
:103900006EFC0320B0723C00F4EC000002E0281CC6
:10391000FFF7C4FF6078002803D1291C012003F0C1
:1039200029FB70BD147A010050C30000B0B5041C1F
:103930006034E0790E4D00280AD10220A872286870
:103940004068002804D10B483C0030ED0000FDF732
:10395000D0FA2968486004F038F82968C861FFF790
:10396000E0FE29680969081A03F06FFF002801D0FA
:10397000E079A071B0BD147A0100C1EB0000F8B588
:10398000041C002604F021F8051C3C006CED00002E
:10399000224800270770A10704D0E107C90F016280
:1039A000C5610126416B002934D1002E32D0061C9E
:1039B000F9F744FF316B1A4B411AA20712D5DA68A6
:1039C000002A08DD91421A6802DA14093C00A8EDC9
:1039D0000000A21806E01409121B03E00A4302D1FA
:1039E0001A6852001A60B7630AE0B26B0132B26320
:1039F000022A1A6801DD940800E01409121B1A60FB
:103A0000D9603063F56218680849884201D93C00E2
:103A1000E4ED0000196003E0642801D2642018601E
:103A2000F5F7FCFDF8BD0000606C0100B057010027
:103A300020A10700FEB5041C0020504D0021686144
:103A40002069FBF7B3FC071C20690321FBF7AEFCE0
:103A50003C0020EE0000002803D0807829788842BE
:103A600063D1474D201C1430391C061C2A7802F003
:103A70005AFA002859D1E068056841480195583044
:103A80000290FBF76AFF3E4D193500280BD0281C29
:103A9000FBF73C005CEE000055FF00281ED1311CF6
:103AA000281CFBF765FF002842D017E0281CFBF715
:103AB00049FF002806D0391C0298FBF763FF002855
:103AC00036D00BE0391C0298FBF75CFF00282FD0A2
:103AD000311C281C3C0098EE0000FBF74CFF00282E
:103AE00029D0301CF6F7ADFC294A1832117C002988
:103AF00004D0516A002901D000281CD1906A002806
:103B00003BD01378019D01216D8901202B409B073B
:103B100011D0A36B1E4E3C00D4EE00001D1C7F355F
:103B20009836002D14D0558A002D08D15569AB4226
:103B30000FDA0020174D01236B610AE029E0F578C8
:103B4000022D06D1144F55693F68ED19AB4200DADA
:103B50000020236C1D1C7F353C0010EF000010D0AE
:103B6000558A002D03D19569AB420AD208E0F57859
:103B7000022D06D10B4E95693668AD19AB4200D2C5
:103B80000021084308D0106A002801D0F1F74BFA51
:103B90000021201C01F0B9F9FEBD3C004CEF0000F3
:103BA000EC650100C4670100CC6701003EB5056A01
:103BB000041CC068F2F734FBE169F2F757FA201CE5
:103BC0004030C18B0431C1832B6910499879062894
:103BD0000AD1988801910294009060693C0088EFB6
:103BE00000001B680168E0680322C0680AE0022840
:103BF0000BD11020009001910294E068A369C06885
:103C000000220021F7F70FFB3EBDF2F7A6F9FBE714
:103C10000000BDEF000080B5D1685069C9683C0064
:103C2000C4EF0000C160D168C860111C4031CB8B6B
:103C300000891818C8831068002802D0FFF7BCFF5D
:103C400080BD0348FBF7CCF8006AFEF7F5F980BDAC
:103C5000A06A0100F8B5061C0A2430070109A00774
:103C60003C0000F0000001430F1C0A4D2F6004F0DF
:103C7000FAFEAD682801000FB04205D0013CF4D235
:103C800001219B20F2F741F92802000A082E01D1F8
:103C900031050843F8BD600007000122D20580B558
:103CA00000213C003CF00000042004F0DDFC0F206B
:103CB000FFF7D6FF0F2109040840000C80BD00006B
:103CC00080B50548FDF74AF90448FDF77BF804483C
:103CD000FDF76CF880BD000089340100ED24000080
:103CE000111C00003C0078F0000080B50248F3F79A
:103CF0002AFC80BD0000D124000080B5F2F753F902
:103D000080BD80B50021002001F051FE032002F0AB
:103D100046FF80BD0000064880B5C169002906D174
:103D2000016A002903D13C00B4F00000816B034814
:103D300000F05EF980BD0000C46901003463010039
:103D400010B5044C206AFCF7B3FB0348216A00F06D
:103D50004FF910BD1C75010034630100B0B50D4C66
:103D6000207C002802D001213C00F0F00000FDF78B
