:100000000C9462000C948A000C948A000C948A0070
:100010000C948A000C948A000C948A000C948A0038
:100020000C948A000C948A000C948A000C948A0028
:100030000C948A000C948A000C948A000C948A0018
:100040000C9435010C948A000C944E020C948A0096
:100050000C948A000C948A000C948A000C948A00F8
:100060000C948A000C948A000000000024002700F1
:100070002A0000000000250028002B0000000000DE
:1000800023002600290004040404040404040202DA
:100090000202020203030303030301020408102007
:1000A0004080010204081020010204081020000012
:1000B0000007000201000003040600000000000029
:1000C0000000D30311241FBECFEFD4E0DEBFCDBFAD
:1000D00011E0A0E0B1E0E6E6FBE002C005900D9281
:1000E000A032B107D9F711E0A0E2B1E001C01D9242
:1000F000A23CB107E1F710E0C4ECD0E004C02297C5
:10010000FE010E94AD05C23CD107C9F70E942E0135
:100110000C94B1050C940000CF92DF92EF92FF9205
:100120000F931F93CF93DF9381E080931001C1E180
:10013000D1E0499150E060E070E08FEA91E020E08A
:1001400030E00E94130581E0C531D80791F76BE4D8
:1001500070E080E090E00E947D019FEFC92ED12CDD
:1001600085EFE82E8FEFF82E3DC08FEA91E00E94D8
:1001700084038823B9F18FEA91E00E9498038FEA03
:1001800091E00E949803EC018FEA91E00E949803AD
:100190008C018FEA91E00E949803CF3FD10529F4AA
:1001A000F0922101E09220010DC0CC9DC001CD9DB7
:1001B000900DDC9D900D1124800F911F90932101D3
:1001C000809320018FEA91E060E071E00E94440496
:1001D00060912001709121018FEA91E00E940B054E
:1001E0001092100180911001882309F0BECF62E3C4
:1001F00070E080E090E00E947D01DF91CF911F913F
:100200000F91FF90EF90DF90CF9008958FEA91E0EB
:1002100040E855E260E070E00E948B0280910E01A0
:1002200061E00E94E10180910A0161E00E94E10128
:1002300080910A0161E00E94010280910C0161E05D
:100240000E94E10180910C0161E00E94010268ECD2
:1002500070E080E090E00E947D0108950E94A70177
:100260000E9406010E948C00FDCF1F920F920FB6D4
:100270000F9211242F933F938F939F93AF93BF932C
:100280008091260190912701A0912801B091290128
:1002900030912A010196A11DB11D232F2D5F2D370D
:1002A00020F02D570196A11DB11D20932A018093A6
:1002B000260190932701A0932801B09329018091F2
:1002C000220190912301A0912401B0912501019672
:1002D000A11DB11D8093220190932301A0932401BD
:1002E000B0932501BF91AF919F918F913F912F9135
:1002F0000F900FBE0F901F901895EF92FF920F93E3
:100300001F937B018C018FB7F89440912601509187
:10031000270160912801709129018FBF2FB7F894B0
:100320008091260190912701A0912801B091290187
:100330002FBF841B950BA60BB70BE816F9060A070F
:100340001B0760F71F910F91FF90EF90089578942D
:1003500084B5826084BD84B5816084BD85B58260CA
:1003600085BD85B5816085BDEEE6F0E08081816068
:100370008083E1E8F0E08081826080838081816019
:100380008083E0E8F0E0808181608083E1EBF0E051
:10039000808184608083E0EBF0E0808181608083F5
:1003A000EAE7F0E0808184608083808182608083DE
:1003B0008081816080838081806880831092C10009
:1003C0000895282F30E0C90186569F4FFC01949173
:1003D0002A573F4FF9018491882391F0E82FF0E0EC
:1003E000EE0FFF1FE859FF4FA591B491662329F442
:1003F0008C91909589238C9308958C91892B8C9363
:100400000895482F50E0CA0182559F4FFC01249166
:10041000CA0186569F4FFC0194914A575F4FFA01DB
:1004200034913323D1F1222331F1233021F480910F
:1004300080008F7705C0243031F4809180008F7D5B
:100440008093800018C0213019F484B58F7704C0E0
:10045000223021F484B58F7D84BD0DC0263021F477
:100460008091B0008F7705C0273029F48091B000CB
:100470008F7D8093B000E32FF0E0EE0FFF1FEE586A
:10048000FF4FA591B491662329F48C91909589230F
:100490008C9308958C91892B8C9308951F920F92C1
:1004A0000FB60F9211242F933F934F935F936F9347
:1004B0007F938F939F93AF93BF93EF93FF9340915D
:1004C000C600E091AB01F091AC01CF01019660E86C
:1004D00070E00E9447059C018091AD019091AE01B2
:1004E0002817390739F0E55DFE4F40833093AC01A2
:1004F0002093AB01FF91EF91BF91AF919F918F91AD
:100500007F916F915F914F913F912F910F900FBE0F
:100510000F901F9018955F926F927F928F929F928B
:10052000AF92BF92CF92DF92EF92FF920F931F9301
:10053000CF93DF93EC013A014B01413482E4580739
:100540008FE0680780E078070CF07FC060E874E80F
:100550008EE190E0A40193010E947C05215030407F
:1005600040405040CA01B90122E030E040E050E094
:100570000E947C0559016A01A601950120953095DC
:100580004095509594E0220F331F441F551F9A95B4
:10059000D1F760E074E284EF90E00E947C05CA012C
:1005A000B9012FEF30E040E050E00E942805A4019F
:1005B00093010E947C05C90181509F4F18161906AE
:1005C0001CF4522E5A9403C055245394521A60E0DE
:1005D00079E08DE390E0A40193010E947C05215015
:1005E000304040405040CA01B90122E030E040E0D4
:1005F00050E00E947C05209530954095509583E011
:10060000220F331F441F551F8A95D1F760E074E213
:1006100084EF90E00E947C05CA01B9012FEF30E021
:1006200040E050E00E942805A40193010E947C054F
:10063000C90181509F4F181619061CF4822F815052
:1006400002C081E0821B851500F5E885F98581E00F
:1006500090E00A8802C0880F991F0A94E2F780830D
:1006600060E079E08DE390E0A40193010E947C05B5
:100670002150304040405040CA01B90122E030E0F2
:1006800040E050E00E947C0504C0E885F9851082B6
:100690009501EC81FD813083EE81FF812083EA8525
:1006A000FB85208141E050E0CA010E8402C0880F22
:1006B000991F0A94E2F7282B2083EA85FB85208185
:1006C000CA010F8402C0880F991F0A94E2F7282BF1
:1006D0002083EA85FB858081088802C0440F551F6E
:1006E0000A94E2F7842B8083DF91CF911F910F91C1
:1006F000FF90EF90DF90CF90BF90AF909F908F9042
:100700007F906F905F900895DC011296ED91FC91BF
:100710001397E058FF4F8191919180589F4F20810E
:100720003181821B930B60E870E00E9447050895B9
:10073000CF93DF93DC011296ED91FC911397EF01BB
:10074000CE57DF4F48815981E058FF4F808191811A
:10075000E058F0408417950719F42FEF3FEF0CC0D5
:10076000E40FF51F2081CA01019660E870E00E9445
:1007700047059983888330E0C901DF91CF910895BF
:10078000FC01A085B18521898C9190E0022E02C0E8
:10079000959587950A94E2F780FFF6CF0484F58556
:1007A000E02D6083089589E191E09093B0018093FA
:1007B000AF018BE291E09093B2018093B10185EC9F
:1007C00090E09093B4018093B30184EC90E0909317
:1007D000B6018093B50180EC90E09093B8018093CE
:1007E000B70181EC90E09093BA018093B90186EC57
:1007F00090E09093BC018093BB0184E08093BD01A5
:1008000083E08093BE0187E08093BF0185E0809301
:10081000C00181E08093C10108950F931F93CF938E
:10082000DF938C01EB0109C02196D801ED91FC9179
:100830000190F081E02DC801099568816623A1F738
:10084000DF91CF911F910F910895EF92FF920F9337
:100850001F93CF93DF938C017B01EA010CC0D7017A
:100860006D917D01D801ED91FC910190F081E02D19
:10087000C80109952197209791F7DF91CF911F919A
:100880000F91FF90EF900895DC01ED91FC910280B3
:10089000F381E02D099508952F923F924F925F9238
:1008A0006F927F928F929F92AF92BF92CF92DF9280
:1008B000EF92FF920F931F93DF93CF93CDB7DEB7E5
:1008C000A0970FB6F894DEBF0FBECDBF1C016A0122
:1008D0007B01411551056105710549F4DC01ED917C
:1008E000FC910190F081E02D60E3099554C08824CB
:1008F00099245401422E55246624772401E010E007
:100900000C0F1D1F080D191DC701B601A30192018F
:100910000E945A05F80160830894811C911CA11C57
:10092000B11CC701B601A30192010E945A05C90179
:10093000DA016C017D01C114D104E104F104F1F686
:1009400081E0E82EF12CEC0EFD1EE80CF91C3E01B6
:100950000894611C711CD501C4010197A109B1095A
:100960006C01C818D90814C0F601EE0DFF1D608196
:100970006A3010F4605D01C0695CD101ED91FC91B9
:100980000190F081E02DC10109950894E108F1087A
:100990006E147F0449F7A0960FB6F894DEBF0FBE21
:1009A000CDBFCF91DF911F910F91FF90EF90DF901E
:1009B000CF90BF90AF909F908F907F906F905F90FF
:1009C0004F903F902F900895EF92FF920F931F93B7
:1009D000CF93DF93EC017A018B0177FF0FC0E881A1
:1009E000F9810190F081E02D6DE209951095009557
:1009F000F094E094E11CF11C011D111DCE01B80121
:100A0000A7012AE00E944C04DF91CF911F910F9122
:100A1000FF90EF900895AB01662757FD6095762F04
:100A20000E94E4040895DC012115310541F4ED91A3
:100A3000FC910190F081E02D642F099508952A30F2
:100A4000310519F40E94E40408950E944C040895AD
:100A5000629FD001739FF001829FE00DF11D649FA2
:100A6000E00DF11D929FF00D839FF00D749FF00D2E
:100A7000659FF00D9927729FB00DE11DF91F639FCF
:100A8000B00DE11DF91FBD01CF011124089597FBA1
:100A9000092E07260AD077FD04D049D006D00020C1
:100AA0001AF4709561957F4F0895F6F790958195AA
:100AB0009F4F0895A1E21A2EAA1BBB1BFD010DC07A
:100AC000AA1FBB1FEE1FFF1FA217B307E407F507FE
:100AD00020F0A21BB30BE40BF50B661F771F881FDA
:100AE000991F1A9469F760957095809590959B0170
:100AF000AC01BD01CF01089597FB092E05260ED04C
:100B000057FD04D0D7DF0AD0001C38F4509540952B
:100B1000309521953F4F4F4F5F4F0895F6F79095D1
:100B20008095709561957F4F8F4F9F4F0895AA1BB9
:100B3000BB1B51E107C0AA1FBB1FA617B70710F0C8
:100B4000A61BB70B881F991F5A95A9F780959095FA
:100B5000BC01CD010895EE0FFF1F0590F491E02D2B
:060B60000994F894FFCF98
:100B660044697374616E63653D000B000C000D00F3
:100B7600012200002200000000C0030D042504002D
:00000001FF
