:100000000C94AB000C94D3000C94D3000C944905D1
:100010000C9417050C94E8040C94D3000C94D300B2
:100020000C94D3000C94D3000C94D3000C94DE01F8
:100030000C94D3000C94D3000C94D3000C94D300F4
:100040000C9472070C94D3000C94E8080C94D30021
:100050000C94D3000C94D3000C94D3000C94D300D4
:100060000C94D3000C94D30000C2010000000000E7
:100070000000080000E100000200180019001C0048
:100080000096000008002D0026003000127A0000C3
:10009000170038003E003E00807000001B0040004A
:1000A00042004200004B00002E0066006C006C0015
:1000B000403800004400920098009800802500001D
:1000C0006900DC00E200E200C0120000E000CA01AA
:1000D000D001D00160090000CE01A603AC03AC033F
:1000E000B00400009E0346074C074C072C0100009B
:1000F0007E0E061D0C1D0C1D0000000024002700B4
:100100002A0000000000250028002B00000000004D
:100110002300260029000404040404040404020249
:100120000202020203030303030301020408102076
:100130004080010204081020010204081020000081
:100140000007000201000003040600000000000098
:100150000000F706310A11241FBECFEFD4E0DEBF46
:10016000CDBF11E0A0E0B1E0E6E7F8E102C0059004
:100170000D92A836B107D9F712E0A8E6B1E001C0A8
:100180001D92A339B107E1F711E0C6E5D1E004C043
:100190002297FE010E94350CC235D107C9F70E9493
:1001A0006B070C94390C0C940000CF93DF93BC01C7
:1001B0008230910510F462E070E0A0919102B0915C
:1001C0009202ED01E0E0F0E040E050E021C08881E3
:1001D00099818617970769F48A819B81309719F076
:1001E0009383828304C09093920280939102FE01D4
:1001F00034C06817790738F44115510519F0841790
:10020000950708F4AC01FE018A819B819C01E901FC
:100210002097E9F641155105A9F1CA01861B970BF4
:10022000049708F4BA01E0E0F0E02AC08D919C91B7
:10023000119784179507F9F46417750781F41296DE
:100240008D919C911397309719F09383828304C00A
:100250009093920280939102FD0132964CC0CA01A4
:10026000861B970BFD01E80FF91F619371930297AD
:100270008D939C9340C0FD01828193819C01D901A3
:100280001097A1F680918F0290919002892B41F4F2
:1002900080915001909151019093900280938F0230
:1002A00040915201509153014115510541F44DB710
:1002B0005EB780914E0190914F01481B590B2091E0
:1002C0008F0230919002CA01821B930B8617970709
:1002D00080F0AB014E5F5F4F8417950750F0420FDF
:1002E000531F5093900240938F02F90161937193D1
:1002F00002C0E0E0F0E0CF01DF91CF910895CF930D
:10030000DF93009709F450C0EC0122971B821A82F8
:10031000A0919102B0919202109709F140E050E053
:10032000AC17BD0708F1BB83AA83FE01219131916F
:10033000E20FF31FAE17BF0779F48D919C911197CF
:10034000280F391F2E5F3F4F3983288312968D91D6
:100350009C9113979B838A834115510571F4D09327
:100360009202C093910220C012968D919C91139796
:10037000AD01009711F0DC01D3CFFA01D383C28322
:1003800021913191E20FF31FCE17DF0769F48881C5
:100390009981280F391F2E5F3F4FFA013183208347
:1003A0008A819B8193838283DF91CF910895DC01C1
:1003B00001C06D9341505040E0F708951F920F9295
:1003C0000FB60F9211242F933F934F935F936F9328
:1003D0007F938F939F93AF93BF93EF93FF938091FE
:1003E0008D0187FF05C010928500109284002BC0FC
:1003F00020918D01332727FD30958091680190E091
:100400002817390704F580918D01992787FD90956C
:10041000FC01EE0FFF1FE80FF91FE759FE4F808127
:1004200086FF11C080918D01992787FD9095FC0171
:10043000EE0FFF1FE80FF91FE759FE4F80818F7302
:1004400060E00E944C0880918D018F5F80938D0148
:1004500020918D01332727FD30958091680190E030
:10046000281739070CF04EC080918D018C300CF0AC
:1004700049C0209184003091850080918D01992799
:1004800087FD9095FC01EE0FFF1FE80FF91FE7595C
:10049000FE4F81819281280F391F3093890020936C
:1004A000880080918D01992787FD9095FC01EE0FC2
:1004B000FF1FE80FF91FE759FE4F808186FF2AC012
:1004C00080918D01992787FD9095FC01EE0FFF1F0C
:1004D000E80FF91FE759FE4F80818F7361E00E949A
:1004E0004C0818C080E49CE905C08091840090917C
:1004F0008500049690938900809388008FEF809305
:100500008D0108C0809184009091850084549C499D
:1005100048F3EBCFFF91EF91BF91AF919F918F91F6
:100520007F916F915F914F913F912F910F900FBEEF
:100530000F901F901895CF92DF92EF92FF920F933A
:100540001F93CF93DF93EC017A018B011B861A86F0
:10055000198618861F821E821D821C8220E030E0D0
:100560006901CC0CDD1CC20ED31EB601660F771FCD
:10057000660F771FAB0148595F4FFA01859195913E
:10058000A591B4918E159F05A007B107E9F4FB0171
:10059000E459FF4F859194919D838C83FB01E2592F
:1005A000FF4F859194919F838E83FB01E059FF4F0C
:1005B0008591949199878887FB01EE58FF4F85912B
:1005C00094919B878A8706C02F5F3F4F2C3031055F
:1005D00009F0C6CF88859985892B09F44CC03A81EA
:1005E000383090F480916800846080936800209196
:1005F0006D0081E090E002C0880F991F3A95E2F704
:10060000282B20936D002FC03E30B0F480916800FD
:1006100081608093680040916B00232F30E0285068
:10062000304081E090E002C0880F991F2A95E2F7E0
:10063000482B40936B0017C03631A8F480916800B6
:1006400082608093680040916C00232F30E02E5030
:10065000304081E090E002C0880F991F2A95E2F7B0
:10066000482B40936C008A859B8520E001972FEFF3
:100670008F3F9207D9F780918E0190918F018C174F
:100680009D0771F01C869FB7F8941092D00180915D
:10069000D0018093D101D0938F01C0938E019FBF71
:1006A000DF91CF911F910F91FF90EF90DF90CF904E
:1006B0000895FC0180918E0190918F018E179F0704
:1006C00079F014869FB7F8941092D0018091D001F0
:1006D0008093D101F0938F01E0938E019FBF06C0FC
:1006E0009091D1018091D001981719F42FEF3FEF2D
:1006F0000FC0E091D101F0E0E057FE4F20818091E2
:10070000D10190E001968F7390708093D10130E019
:10071000C9010895FC0180918E0190918F018E177F
:100720009F0781F014869FB7F8941092D0018091B2
:10073000D0018093D101F0938F01E0938E019FBF90
:1007400080E008958091D0012091D10190E0805CFB
:100750009F4F821B910960E470E00E94CF0B0895C7
:10076000EF92FF920F931F93F82EE92E0E94D5006F
:10077000182F092F60E070E04F2D5E2D0E94D701E9
:10078000812F902F1F910F91FF90EF900895BF92AE
:10079000CF92DF92EF92FF920F931F93CF93DF934D
:1007A000EC01E62E8A859B85892B09F452C0809145
:1007B0008E0190918F018C179D0771F01C869FB759
:1007C000F8941092D0018091D0018093D101D09300
:1007D0008F01C0938E019FBFBFB6F8948B8160E0FC
:1007E0000E944C088A859B8520E001972FEF8F3F60
:1007F0009207D9F7FF24F39400E010E0CE2CDD241B
:100800008F2D90E08C219D21892B19F08B8161E047
:1008100002C08B8160E00E944C088A859B85EE2493
:100820002E2D01972FEF8F3F9207D9F7FF0C0F5F07
:100830001F4F0830110521F78B8161E00E944C08A1
:10084000BFBE8A859B852E2D01972FEF8F3F920784
:10085000D9F7DF91CF911F910F91FF90EF90DF902B
:10086000CF90BF9008950F931F938C01862FF801AE
:10087000628360E00E942C08F801828161E00E949E
:100880004C081F910F9108950F931F938C01862F91
:10089000F801638361E00E942C08F801838161E024
:1008A0000E944C081F910F910895FF920F931F9380
:1008B0008C01F62E88E591E0F80191838083158202
:1008C0001482178216821186108613861286148669
:1008D000C801642F0E944404C8016F2D0E94330494
:1008E0001F910F91FF900895CF92DF92EF92FF92A8
:1008F0000F931F93CF93DF938C01FC0182810E94A1
:100900009908892B09F05BC0F8018481958120E06A
:1009100001972FEF8F3F9207D9F7FF24C0E0D0E077
:10092000EE2421E0C22ED12CF801868197812E2D54
:1009300001972FEF8F3F9207D9F782810E94990884
:10094000892B49F0C6010C2E02C0880F991F0A940A
:10095000E2F7F82A09C0C6010C2E02C0880F991FC1
:100960000A94E2F78095F8222196C830D105E1F685
:10097000F8018085918520E001972FEF8F3F920746
:10098000D9F78091D0012091D10190E001968F7329
:10099000907030E08217930779F0E091D001F0E099
:1009A000E057FE4FF0828091D00190E001968F7366
:1009B00090708093D00103C081E0F8018487DF91BB
:1009C000CF911F910F91FF90EF90DF90CF900895FE
:1009D0001F920F920FB60F9211242F933F934F93B4
:1009E0005F936F937F938F939F93AF93BF93EF9397
:1009F000FF93E0918E01F0918F01309739F0828161
:100A000090E008971CF4CF010E947404FF91EF91CD
:100A1000BF91AF919F918F917F916F915F914F9116
:100A20003F912F910F900FBE0F901F9018951F921E
:100A30000F920FB60F9211242F933F934F935F9312
:100A40006F937F938F939F93AF93BF93EF93FF9396
:100A5000E0918E01F0918F01309751F0828190E00A
:100A60008E3091052CF046971CF4CF010E9474043F
:100A7000FF91EF91BF91AF919F918F917F916F9176
:100A80005F914F913F912F910F900FBE0F901F904C
:100A900018951F920F920FB60F9211242F933F9328
:100AA0004F935F936F937F938F939F93AF93BF9376
:100AB000EF93FF93E0918E01F0918F01309751F009
:100AC000828190E0883091052CF00E971CF4CF01C4
:100AD0000E947404FF91EF91BF91AF919F918F910C
:100AE0007F916F915F914F913F912F910F900FBE2A
:100AF0000F901F90189508958F929F92AF92BF927A
:100B0000CF92DF92EF92FF920F931F937C01962E6C
:100B1000842E58016901FC01118A128A82E28683BF
:100B200017821086818781E18287138614868587E4
:100B300087E18687108A84EB8787148A138A168A4E
:100B4000158A108E178A128E118E8DE090E00E9409
:100B5000B003182F092F692D482D0E945504F70165
:100B600014830583812F902FB601A5010E949B025B
:100B70001F910F91FF90EF90DF90CF90BF90AF90BB
:100B80009F908F900895EF92FF920F931F93CF93B2
:100B9000DF937C018B01C0E0D0E0F801EC0FFD1F7A
:100BA000408150E060E070E0F7018481958120E0B1
:100BB00030E00E949B0B2196C430D10571F7DF9184
:100BC000CF911F910F91FF90EF900895CF93DF93F6
:100BD000EC018A89882319F48989882351F00E94BD
:100BE000BA0780E028813981621B730B6536710575
:100BF00008F081E0DF91CF9108950F931F93CF9379
:100C0000DF93EC018B010E94E6058823F1F00E943E
:100C1000BA07688379838A839B830130110561F069
:100C20000230110591F4BE01665F7F4FCE010E9434
:100C3000C30581E08A8B0AC0BE016A5F7F4FCE0187
:100C40000E94C30581E0898B01C080E0DF91CF91D4
:100C50001F910F9108950F931F938C01FC018481C4
:100C600095810E945903F801948B838B848195812F
:100C70000E945903F801968B858B848195810E948F
:100C80005903F801908F878B848195810E945903C5
:100C9000F801928F818F1F910F910895FC0184813B
:100CA00095810E948A0390E0843008F091E0892FBA
:100CB00008950F931F93CF93DF93EC018B010E9454
:100CC0004E06882319F424E030E05AC0CE010E9479
:100CD000E605882319F025E030E052C0CE010E94DD
:100CE0002B068B899C898131910501F1829709F04E
:100CF00040C0198A4D895E892F89388DC9018423A6
:100D000095238F3F9105D1F18FEF90E0BC01469F75
:100D1000C001479F900D569F900D1124820F931F85
:100D2000F8019183808321E030E02AC01A8A4D893E
:100D30005E892F89388DC901842395238F3F9105C2
:100D4000E9F02115310521F4F801118210820AC061
:100D50004555524051F488279927821B930BF8017F
:100D60009183808322E030E00BC0F801318320833F
:100D7000F9CF1A8A198AF8011182108223E030E033
:100D8000C901DF91CF911F910F9108950F931F9388
:100D9000CF93DF93EC018A010E94FD05882319F4AB
:100DA00024E030E016C0CE010E94E6058823B9F4A5
:100DB000CE010E944E06882391F46AE070E080E044
:100DC00090E00E94C807EFCFCE01B8010E945906FB
:100DD0009C01C901DF91CF911F910F910895CE0120
:100DE0000E94E605882381F325E030E0F2CF82ED12
:100DF00091E00E947B05089582ED91E061E070E052
:100E00004DEE51E00E94C60683309105A1F084307A
:100E1000910534F48130910549F00297E1F406C060
:100E20008430910569F00597B1F40FC02091ED0170
:100E30003091EE0112C08CE792E060E071E009C0F1
:100E40008CE792E066E071E004C08CE792E060E13C
:100E500071E00E94C10A2FEF3FEFC9010895CF93BF
:100E6000DF93C0E0D0E00E94FC06BC018CE792E07A
:100E70000E948B0B64E170E080E090E00E94C80764
:100E8000219681E0CE30D80771F7DF91CF91089598
:100E9000EF92FF920F931F938CE7E82E82E0F82EDB
:100EA000C70140E855E260E070E00E94250982ED4C
:100EB00091E066E047E000E815E220E030E00E94C3
:100EC0007C05C70168E171E00E94C10A1F910F9182
:100ED000FF90EF9008950E94F2070E9448070E9439
:100EE0002F07FDCF1F920F920FB60F9211242F9351
:100EF0003F938F939F93AF93BF938091F301909112
:100F0000F401A091F501B091F6013091F70101963D
:100F1000A11DB11D232F2D5F2D3720F02D570196D8
:100F2000A11DB11D2093F7018093F3019093F4016B
:100F3000A093F501B093F6018091EF019091F0013B
:100F4000A091F101B091F2010196A11DB11D809314
:100F5000EF019093F001A093F101B093F201BF91E2
:100F6000AF919F918F913F912F910F900FBE0F9056
:100F70001F9018958FB7F8942091F3013091F401E8
:100F80004091F5015091F6018FBFB901CA01089552
:100F9000EF92FF920F931F937B018C018FB7F89410
:100FA0004091F3015091F4016091F5017091F601C7
:100FB0008FBF2FB7F8948091F3019091F401A09125
:100FC000F501B091F6012FBF841B950BA60BB70B53
:100FD000E816F9060A071B0760F71F910F91FF90AB
:100FE000EF900895789484B5826084BD84B5816063
:100FF00084BD85B5826085BD85B5816085BDEEE621
:10100000F0E0808181608083E1E8F0E080818260AF
:101010008083808181608083E0E8F0E0808181606E
:101020008083E1EBF0E0808184608083E0EBF0E09E
:10103000808181608083EAE7F0E080818460808342
:1010400080818260808380818160808380818068EC
:1010500080831092C1000895282F30E0C901865D79
:101060009E4FFC0194912A5E3E4FF90184918823A2
:1010700091F0E82FF0E0EE0FFF1FE850FF4FA59131
:10108000B491662329F48C91909589238C930895CB
:101090008C91892B8C930895482F50E0CA01825C73
:1010A0009E4FFC012491CA01865D9E4FFC019491E4
:1010B0004A5E5E4FFA0134913323D1F1222331F19C
:1010C000233021F4809180008F7705C0243031F4E3
:1010D000809180008F7D8093800018C0213019F4AA
:1010E00084B58F7704C0223021F484B58F7D84BD10
:1010F0000DC0263021F48091B0008F7705C02730D5
:1011000029F48091B0008F7D8093B000E32FF0E050
:10111000EE0FFF1FEE5FFE4FA591B491662329F4F9
:101120008C91909589238C9308958C91892B8C9325
:101130000895682F70E0CB01825C9E4FFC012491E2
:10114000CB01865D9E4FFC0144916A5E7E4FFB01A0
:101150009491992319F420E030E038C0222331F132
:10116000233021F4809180008F7705C0243031F442
:10117000809180008F7D8093800018C0213019F409
:1011800084B58F7704C0223021F484B58F7D84BD6F
:101190000DC0263021F48091B0008F7705C0273034
:1011A00029F48091B0008F7D8093B000892F90E06A
:1011B000880F991F845F9E4FFC01A591B4918C917B
:1011C00020E030E0842311F021E030E0C9010895EF
:1011D0001F920F920FB60F9211242F933F934F93AC
:1011E0005F936F937F938F939F93AF93BF93EF938F
:1011F000FF934091C600E0917802F0917902CF010F
:10120000019660E870E00E94CF0B9C0180917A0209
:1012100090917B022817390739F0E850FE4F408340
:101220003093790220937802FF91EF91BF91AF91B3
:101230009F918F917F916F915F914F913F912F91EE
:101240000F900FBE0F901F9018955F926F927F9234
:101250008F929F92AF92BF92CF92DF92EF92FF92C6
:101260000F931F93CF93DF93EC013A014B0141346D
:1012700082E458078FE0680780E078070CF07FC0B1
:1012800060E874E88EE190E0A40193010E94040CF0
:101290002150304040405040CA01B90122E030E0C6
:1012A00040E050E00E94040C59016A01A60195013A
:1012B000209530954095509594E0220F331F441FA0
:1012C000551F9A95D1F760E074E284EF90E00E9498
:1012D000040CCA01B9012FEF30E040E050E00E9459
:1012E000B00BA40193010E94040CC90181509F4FCF
:1012F000181619061CF4522E5A9403C05524539400
:10130000521A60E079E08DE390E0A40193010E941D
:10131000040C2150304040405040CA01B90122E045
:1013200030E040E050E00E94040C2095309540955C
:10133000509583E0220F331F441F551F8A95D1F724
:1013400060E074E284EF90E00E94040CCA01B901ED
:101350002FEF30E040E050E00E94B00BA401930179
:101360000E94040CC90181509F4F181619061CF4E5
:10137000822F815002C081E0821B851500F5E8852F
:10138000F98581E090E00A8802C0880F991F0A94CD
:10139000E2F7808360E079E08DE390E0A4019301BF
:1013A0000E94040C2150304040405040CA01B90115
:1013B00022E030E040E050E00E94040C04C0E885E8
:1013C000F98510829501EC81FD813083EE81FF81EA
:1013D0002083EA85FB85208141E050E0CA010E842C
:1013E00002C0880F991F0A94E2F7282B2083EA8510
:1013F000FB852081CA010F8402C0880F991F0A94BF
:10140000E2F7282B2083EA85FB858081088802C0CB
:10141000440F551F0A94E2F7842B8083DF91CF910C
:101420001F910F91FF90EF90DF90CF90BF90AF9002
:101430009F908F907F906F905F900895FC01A085A2
:10144000B18521898C9190E0022E02C095958795F7
:101450000A94E2F780FFF6CF0484F585E02D6083DF
:10146000089582E691E090937D0280937C0288EF5C
:1014700091E090937F0280937E0285EC90E09093C0
:1014800081028093800284EC90E0909383028093A9
:10149000820280EC90E0909385028093840281EC3C
:1014A00090E0909387028093860286EC90E0909380
:1014B00089028093880284E080938A0283E080938B
:1014C0008B0287E080938C0285E080938D0281E01F
:1014D00080938E0208950F931F93CF93DF938C0117
:1014E000EB0109C02196D801ED91FC910190F081AA
:1014F000E02DC801099568816623A1F7DF91CF919E
:101500001F910F910895EF92FF920F931F93CF9326
:10151000DF938C017B01EA010CC0D7016D917D0145
:10152000D801ED91FC910190F081E02DC801099561
:101530002197209791F7DF91CF911F910F91FF9005
:10154000EF900895DC01ED91FC910280F381E02D94
:10155000099508950F931F938C01DC01ED91FC9187
:101560000190F081E02D6DE00995D801ED91FC919D
:101570000190F081E02DC8016AE009951F910F915B
:1015800008950F931F938C010E94A20AC8010E9424
:10159000AA0A1F910F9108952F923F924F925F9246
:1015A0006F927F928F929F92AF92BF92CF92DF9273
:1015B000EF92FF920F931F93DF93CF93CDB7DEB7D8
:1015C000A0970FB6F894DEBF0FBECDBF1C016A0115
:1015D0007B01411551056105710549F4DC01ED916F
:1015E000FC910190F081E02D60E3099554C08824BE
:1015F00099245401422E55246624772401E010E0FA
:101600000C0F1D1F080D191DC701B601A301920182
:101610000E94E20BF80160830894811C911CA11CBC
:10162000B11CC701B601A30192010E94E20BC901DE
:10163000DA016C017D01C114D104E104F104F1F679
:1016400081E0E82EF12CEC0EFD1EE80CF91C3E01A9
:101650000894611C711CD501C4010197A109B1094D
:101660006C01C818D90814C0F601EE0DFF1D608189
:101670006A3010F4605D01C0695CD101ED91FC91AC
:101680000190F081E02DC10109950894E108F1086D
:101690006E147F0449F7A0960FB6F894DEBF0FBE14
:1016A000CDBFCF91DF911F910F91FF90EF90DF9011
:1016B000CF90BF90AF909F908F907F906F905F90F2
:1016C0004F903F902F900895EF92FF920F931F93AA
:1016D000CF93DF93EC017A018B0177FF0FC0E88194
:1016E000F9810190F081E02D6DE20995109500954A
:1016F000F094E094E11CF11C011D111DCE01B80114
:10170000A7012AE00E94CC0ADF91CF911F910F918F
:10171000FF90EF9008950F931F938C01AB01662704
:1017200057FD6095762F0E94640BC8010E94AA0A9B
:101730001F910F910895DC012115310541F4ED91C0
:10174000FC910190F081E02D642F099508952A30D5
:10175000310519F40E94640B08950E94CC0A089583
:10176000629FD001739FF001829FE00DF11D649F85
:10177000E00DF11D929FF00D839FF00D749FF00D11
:10178000659FF00D9927729FB00DE11DF91F639FB2
:10179000B00DE11DF91FBD01CF011124089597FB84
:1017A000092E07260AD077FD04D049D006D00020A4
:1017B0001AF4709561957F4F0895F6F7909581958D
:1017C0009F4F0895A1E21A2EAA1BBB1BFD010DC05D
:1017D000AA1FBB1FEE1FFF1FA217B307E407F507E1
:1017E00020F0A21BB30BE40BF50B661F771F881FBD
:1017F000991F1A9469F760957095809590959B0153
:10180000AC01BD01CF01089597FB092E05260ED02E
:1018100057FD04D0D7DF0AD0001C38F4509540950E
:10182000309521953F4F4F4F5F4F0895F6F79095B4
:101830008095709561957F4F8F4F9F4F0895AA1B9C
:10184000BB1B51E107C0AA1FBB1FA617B70710F0AB
:10185000A61BB70B881F991F5A95A9F780959095DD
:10186000BC01CD010895EE0FFF1F0590F491E02D0E
:061870000994F894FFCF7B
:101876004572726F72004E6F742052656164790012
:1018860054696D656F75740055524D3337204C6938
:101896006272617279206279204D696C65732042AB
:1018A6007572746F6E202D2044697374616E636562
:1018B6002E2056657273696F6E20312E300020001F
:1018C6009302000000000000C7036B0A830A0000B1
:0818D60000001E0A6B0A830AE0
:00000001FF
