:103800000C94341C0C944F1C0C944F1C0C944F1CA7
:103810000C944F1C0C944F1C0C944F1C0C944F1C7C
:103820000C944F1C0C944F1C0C944F1C0C944F1C6C
:103830000C944F1C0C944F1C0C944F1C0C944F1C5C
:103840000C944F1C0C944F1C0C944F1C0C944F1C4C
:103850000C944F1C0C944F1C0C944F1C0C944F1C3C
:103860000C944F1C0C944F1C11241FBECFEFD4E0BE
:10387000DEBFCDBF11E0A0E0B1E0E8E1FFE302C0B0
:1038800005900D92A230B107D9F712E0A2E0B1E0A5
:1038900001C01D92AD30B107E1F70C94311D0C94BD
:1038A000001CCF93DF93CDB7DEB724970FB6F89403
:1038B000DEBF0FBECDBF382F882309F433E010924E
:1038C0000A02332309F44BC020E02D9A19821A8290
:1038D0001B821C8289819A81AB81BC8180549F416B
:1038E000A040B040A0F489819A81AB81BC8101964F
:1038F000A11DB11D89839A83AB83BC8389819A8181
:10390000AB81BC8180549F41A040B04060F32D98B2
:1039100019821A821B821C8289819A81AB81BC81A7
:1039200080549F41A040B040A0F489819A81AB812E
:10393000BC810196A11DB11D89839A83AB83BC8391
:1039400089819A81AB81BC8180549F41A040B04065
:1039500060F32F5F231708F4B8CF20930A02249650
:103960000FB6F894DEBF0FBECDBFDF91CF910895A3
:10397000EF92FF920F931F93EE24FF248701809113
:10398000C00087FD17C00894E11CF11C011D111D2A
:1039900081E0E81689E0F8068DE3080780E0180763
:1039A00070F3E0910201F091030109958091C0004C
:1039B00087FFE9CF8091C600992787FD90951F91D9
:1039C0000F91FF90EF900895982F8091C00085FF90
:1039D000FCCF9093C60008950E94B81C803271F00D
:1039E000809104018F5F80930401853009F0089570
:1039F000E0910201F09103010995089584E10E948C
:103A0000E41C80E10E94E41C08951F93182F0E947B
:103A1000B81C803269F0809104018F5F80930401AB
:103A2000853079F4E0910201F0910301099509C014
:103A300084E10E94E41C812F0E94E41C80E10E942A
:103A4000E41C1F910895282F882351F090E0809165
:103A5000C00087FFFCCF8091C6009F5F2917B9F790
:103A60000895CFEFD4E0DEBFCDBF000089E18093A1
:103A7000C4001092C50088E18093C10086E0809365
:103A8000C2005098589A259A83E00E94511C0E94C7
:103A9000B81C8033B1F18133B9F1803409F454C0DA
:103AA000813409F45AC0823409F469C0853409F4B8
:103AB0006CC0803531F1813521F1823511F18535C8
:103AC00009F4B2C0863509F4BAC0843609F463C07B
:103AD000843709F4BBC0853709F40EC1863709F471
:103AE0004AC0809104018F5F80930401853079F68C
:103AF000E0910201F091030109950E94B81C803306
:103B000051F60E94EC1CC3CF0E94B81C803249F7CA
:103B100084E10E94E41C81E40E94E41C86E50E948A
:103B2000E41C82E50E94E41C80E20E94E41C89E41B
:103B30000E94E41C83E50E94E41C80E50E94E41CD2
:103B400080E10E94E41CA3CF0E94B81C8638C8F212
:103B50000E94B81C0E94EC1C9ACF0E94B81C8038AE
:103B600009F4F7C0813809F4F8C0823809F4F9C0C3
:103B7000883909F4BDC080E00E94051D88CF84E12A
:103B80000E94231D0E94EC1C82CF85E00E94231D11
:103B90000E94EC1C7CCF0E94B81C809309020E94FA
:103BA000B81C8093080280910C028E7F80930C02D7
:103BB0000E94B81C853409F4C6C080910802909117
:103BC0000902892B09F0ADC00E94B81C803209F0AF
:103BD00088CF80910C0280FFC8C08091080290912C
:103BE00009020097D1F02091060130910701E8E029
:103BF000F1E0AC014E0F5F1FF999FECF32BD21BD40
:103C0000819180BDFA9AF99A2F5F3F4F4E175F0757
:103C100099F7309307012093060184E10E94E41C88
:103C200080E10E94E41C33CF0E94B81C80930601FF
:103C30000E94B81C809307010E94EC1C28CF84E0EE
:103C40000E94231D80E00E94051D21CF0E94B81C08
:103C5000809309020E94B81C809308020E94B81C3D
:103C6000853409F4F4C080910C028E7F80930C029D
:103C70008091060190910701880F991F9093070189
:103C8000809306010E94B81C803209F000CF84E1C5
:103C90000E94E41C2091080230910902211531058F
:103CA00019F1C0E0D0E0E0910601F09107018091A8
:103CB0000C0280FFC4C0F999FECFF2BDE1BDF89AB5
:103CC00080B50E94E41CE0910601F0910701319655
:103CD000F0930701E0930601209108023091090258
:103CE0002196C217D30718F380E10E94E41CCFCEBF
:103CF00083E00E94051DCBCE0E94B81C803209F0E3
:103D0000F0CE84E10E94E41C8EE10E94E41C84E970
:103D10000E94E41C86E00E94E41C80E10E94E41CF6
:103D2000B6CEC0E0D0E008E011E00E94B81CF80177
:103D300081938F0121968091080290910902C81702
:103D4000D90798F341CF80910C02816080930C02D7
:103D500034CF82E00E94051D9ACE81E00E94051DAD
:103D600096CE80E10E94051D92CE8091070187FDCD
:103D700080C010920B028091060190910701880F7C
:103D8000991F90930701809306018091080280FF9C
:103D900009C080910802909109020196909309024E
:103DA00080930802F894F999FECF1127E09106015B
:103DB000F0910701C8E0D1E08091080290910902DA
:103DC000103091F40091570001700130D9F303E0F5
:103DD00000935700E8950091570001700130D9F326
:103DE00001E100935700E895099019900091570060
:103DF00001700130D9F301E000935700E895139565
:103E0000103498F011270091570001700130D9F358
:103E100005E000935700E8950091570001700130CC
:103E2000D9F301E100935700E8953296029709F023
:103E3000C7CF103011F00296E5CF1124EECE81FFEE
:103E40000CC03196F0930701E093060149CF8091B1
:103E50000C02816080930C0215CF84910E94E41CB7
:103E60002091080230910902E0910601F0910701CA
:103E7000E8CF81E080930B027ECF0F931F930E94C7
:103E8000B81C182F0E94E41C0E94B81C082F0E9426
:103E9000E41C11362CF0175501363CF0075508C0CC
:103EA0001033D4F310530136CCF700330CF0005329
:103EB0001295107F100F812F992787FD90951F91E4
:103EC0000F9108951F93282F992787FD9095807F44
:103ED00090709595879595958795959587959595E6
:103EE00087958A304CF0982F995A822F8F708A309C
:103EF0004CF0182F195A08C0982F905D822F8F70A0
:103F00008A30BCF7182F105D892F0E94E41C812F86
:083F10000E94E41C1F910895BA
:023F1800800027
:0400000300003800C1
:00000001FF
