:101C000012C02CC02BC02AC029C028C027C026C0A3
:101C100025C024C023C022C021C020C01FC01EC0B8
:101C20001DC01CC01BC011241FBECFE5D4E0DEBF09
:101C3000CDBF10E0A0E6B0E0E6EAFFE102C005900B
:101C40000D92A236B107D9F711E0A2E6B0E001C0CB
:101C50001D92AA36B107E1F72BD0A3C1D1CF5D9B6E
:101C6000FECF8CB908955F9BFECF8CB108950F9382
:101C70001F93082F10E002C0F6DF1F5F1017E0F37C
:101C80001F910F9108951F93182FEDDF803231F4CB
:101C900084E1E5DF812FE3DF80E1E1DF1F9108953B
:101CA000E2DF803221F484E1DADF80E1D8DF0895D9
:101CB0000F931F93CF93DF93000010BC83E389B988
:101CC00088E18AB986E880BDBD9A1092680120E05B
:101CD00030E240E050E007C088B3832788BBCA01E8
:101CE0000197F1F72F5F2031B8F320936801BBDF34
:101CF000803381F1813399F4B6DF8032C1F784E11A
:101D0000AEDF81E4ACDF86E5AADF82E5A8DF80E212
:101D1000A6DF89E4A4DF83E5A2DF80E523C1803468
:101D200029F4A1DF8638B0F09EDF14C0813471F44D
:101D30009ADF803811F482E01DC1813811F481E00E
:101D400019C1823809F015C182E114C1823421F42D
:101D500084E18DDFA5DFCBCF853411F485E0F9CFA9
:101D60008035C1F38135B1F38235A1F3853539F47E
:101D70007ADF8093640077DF80936500EBCF863550
:101D800019F484E074DFF5C0843609F090C06BDF8D
:101D90008093670168DF80936601809169018E7F7F
:101DA0008093690160DF853429F480916901816045
:101DB0008093690100E010E007C055DFF801EA599F
:101DC000FF4F80830F5F1F4F8091660190916701E5
:101DD0000817190790F347DF803209F088CF809108
:101DE000690180FF1FC000E010E014C0F801EA594B
:101DF000FF4F80916400909165006081C5D0809113
:101E00006400909165000196909365008093640052
:101E10000F5F1F4F809166019091670108171907A6
:101E200028F343C0F894E199FECF1127E0916400B4
:101E3000F0916500EE0FFF1FC6E6D0E080916601CD
:101E40009091670180FF01C00196103051F422D0BB
:101E500003E000935700E8951DD001E1009357007F
:101E6000E8950990199016D001E000935700E89585
:101E70001395103258F011270DD005E0009357004C
:101E8000E89508D001E100935700E8953296029753
:101E900039F0DBCF0091570001700130D9F308957C
:101EA000103011F00296E7CF112484E15BC0843733
:101EB00009F04BC0D8DE80936701D5DE80936601C0
:101EC000D2DE90916901853421F49160909369018B
:101ED0000DC09E7F90936901809164009091650090
:101EE000880F991F9093650080936400BCDE803258
:101EF00009F0FDCE84E1B3DE00E010E01EC0809169
:101F0000690180FF06C0809164009091650034D023
:101F100008C081FD07C0E0916400F0916500E49184
:101F20008E2F9DDE809164009091650001969093C4
:101F30006500809364000F5F1F4F80916601909150
:101F4000670108171907D8F20EC0853779F48BDEC0
:101F5000803209F0CCCE84E182DE8EE180DE83E93E
:101F60007EDE87E07CDE80E17ADEC1CE863709F056
:101F7000BECE80E088DEBBCEE199FECF9FBB8EBB9C
:101F8000E09A99278DB30895262FE199FECF9FBB44
:101F90008EBB2DBB0FB6F894E29AE19A0FBE019664
:061FA0000895F894FFCF44
:021FA6008000B9
:0400000300001C00DD
:00000001FF
