:1000000090C00000A9C00000A7C00000A5C000006B
:10001000A3C00000A1C000009FC000009DC0000060
:100020009BC0000099C0000097C0000048C40000B9
:100030000CC4000091C000008FC000008DC0000003
:100040008BC0000089C0000087C0000085C0000090
:1000500083C0000081C000007FC0000002C100001A
:100060007BC0000079C0000077C0000075C00000B0
:1000700073C0000071C000006FC000006DC00000C0
:100080006BC0000069C0000067C0000065C00000D0
:1000900063C0000061C000001201100102000008EE
:1000A0004123430001000102DC0109023E0002017C
:1000B00000C0320904000001020201000524000111
:1000C0001004240206052406000107058203080027
:1000D000FF09040100020A000000070504024000B5
:1000E00001070583024000010403090432034100B3
:1000F00072006400750069006E006F002000280027
:100100007700770077002E006100720064007500B0
:1001100069006E006F002E0063006300290000007C
:10012000000011241FBECFEFD2E0DEBFCDBF11E033
:10013000A0E0B1E0ECEAFFE002C005900D92A6312C
:10014000B107D9F712E0A6E1B1E001C01D92AF32CC
:10015000B107E1F7F1D028C753CF9C01DC01AE57BE
:10016000BF4FED91FC91119741911196FC93EE9345
:1001700080589F4FE817F90711F42D933C939FB7D0
:10018000F894F901EC57FF4F8081815080839FBF25
:10019000842F0895DF92EF92FF920F931F93FC013B
:1001A0008489813019F0823021F405C040E3D42ED7
:1001B00004C0DD2402C030E2D32E8389823011F4E2
:1001C00088E0D82A8589873031F0883031F0863050
:1001D00031F482E003C084E001C086E0D82A1092A6
:1001E000C9001092C8001092CA00E784F088018903
:1001F000128980E0E81681EEF80680E0080780E0CA
:10020000180719F420E130E00FC0C801B701969536
:1002100087957795679560587B47814E9F4FA801DA
:100220009701A0D6215030403093CD002093CC00D0
:10023000D092CA0080E0E81681EEF80680E0080758
:1002400080E0180711F082E001C080E08093C800D0
:1002500088E98093C9001F910F91FF90EF90DF9084
:1002600008951F920F920FB60F9211242F938F9320
:100270009F93EF93FF939091CE008EB38430F1F46F
:10028000E0919901F0919A019083E0919901F091A8
:100290009A01CF01019690939A018093990189590F
:1002A000914021F489E191E0928381839FB7F89492
:1002B00080919D018F5F80939D019FBFFF91EF9182
:1002C0009F918F912F910F900FBE0F901F901895B7
:1002D000FC01858580FF02C05F9808955F9A0895AC
:1002E00080E091E0D5C580E091E088C584B7877F44
:1002F00084BF28E10FB6F89420936000109260004C
:100300000FBE87E690E09093CD008093CC0086E00E
:100310008093CA001092C8002093C900539A5A9A39
:100320008AB180638AB98BB180638BB983D284E050
:1003300085BD5F9A579A08950F931F93CF93DF93CC
:10034000D5DF2FB7F8948EE991E090931F02809348
:100350001E0290932102809320022FBF2FB7F894A2
:1003600089E191E090939A018093990190939C0187
:1003700080939B012FBF7894CEE9D1E003E08FB743
:10038000F894909122028FBF903809F180E091E0BB
:10039000ABD497FD1CC0E0911E02F0911F02808338
:1003A000E0911E02F0911F02CF01019690931F026F
:1003B00080931E028E51924011F4D283C1839FB765
:1003C000F894809122028F5F809322029FBF8FB7A3
:1003D000F89410919D018FBFA89902C0113678F151
:1003E000A89A80919D01882361F05D980093160181
:1003F00008C089E191E0B1DE682F80E091E0DAD4B5
:1004000011501123B1F780911601882351F080918A
:10041000160181508093160180911601882309F4FA
:100420005D9A80911701882351F0809117018150C6
:100430008093170180911701882309F45C9A8FB784
:10044000F894909122028FBF992369F08EE991E090
:1004500084DE982F8091C80085FFFCCF9093CE005A
:100460005C980093170180E091E095D42AD487CF5F
:10047000DA01923049F0933061F09130F9F4E8E913
:10048000F0E022E130E01EC0EAEAF0E02EE330E0E6
:1004900019C0813049F0813018F0823079F408C0F9
:1004A000E8EEF0E0849107C0ECEEF0E0849103C048
:1004B000E0E2F1E08491282F30E004C0E0E0F0E0D9
:1004C00020E030E0ED93FC93C901089528E030E08E
:1004D00040E003C04F5F220F331F28173907D0F3C6
:1004E000842F8295807F08958093E9008091EB00AE
:1004F00081608093EB001092ED006093EC004093DC
:10050000ED008091EE00881F8827881F08951092C3
:10051000F40090E09093E9001092F0001092E8004F
:100520001092ED008091EB008E7F8093EB009F5F37
:10053000953081F708958091270288238CF403C0B9
:100540008EB38823B1F08091E80082FFF9CF8091CB
:10055000E8008B778093E80008958EB3882349F0F4
:100560008091E80080FFF9CF8091E8008E7780933A
:10057000E800089594E68091EC0080FF05C080912A
:10058000E80080FF05C023C08091E80082FD1FC005
:100590008EB3882311F482E008958EB3853011F470
:1005A00083E008958091EB0085FF02C081E008950B
:1005B0008091E10082FFDFCF8091E1008B7F80930B
:1005C000E100992311F484E008959150D4CF80E0A4
:1005D00008959C0140912D0250912E024617570715
:1005E00018F4F90120E038C06115710511F0AB0174
:1005F000F8CF8091E8008E778093E80040E050E0EB
:10060000F0CF8091E80083FF02C081E008958091DF
:10061000E80082FD2DC08EB3882381F18EB3853032
:1006200079F18091E80080FF17C09091F20006C038
:1006300081918093F100415050409F5F41155105D9
:1006400011F09830A8F320E0983009F421E080916F
:10065000E8008E778093E8004115510591F622233A
:1006600081F606C08EB3882349F08EB3853041F001
:100670008091E80082FFF6CF80E0089582E008953F
:1006800083E008959C0140912D0250912E0246175F
:10069000570710F490E03BC06115710511F0AB01F4
:1006A000F9CF8091E8008E778093E80040E050E039
:1006B000F1CF8091E80083FF02C081E0089580912E
:1006C000E80082FD30C08EB3882399F18EB3853067
:1006D00091F18091E80080FF1AC08091F20009C07A
:1006E000F9012F5F3F4FE491E093F10041505040FA
:1006F0008F5F4115510511F0883090F390E08830FC
:1007000009F491E08091E8008E778093E80041152C
:10071000510579F6992369F606C08EB3882349F00E
:100720008EB3853041F08091E80082FFF6CF80E003
:10073000089582E0089583E008959C016115710594
:1007400029F48091E8008B778093E800F90120C0BC
:100750008091E80083FF02C081E008958EB3882372
:1007600039F18EB3853031F18091E80082FFF0CF0E
:1007700006C08091F10081936150704021F080911A
:10078000F2008823B1F78091E8008B778093E8002E
:1007900061157105E9F606C08EB3882349F08EB362
:1007A000853041F08091E80080FFF6CF80E0089529
:1007B00082E0089583E0089542D044D01EBA10929A
:1007C0002502109224021092230284E089BD89B58B
:1007D000826089BD09B400FEFDCF8091D800982FBA
:1007E0009F779093D80080688093D80080916300B1
:1007F0008E7F809363008091D8008F7D8093D80096
:100800008091E0008E7F8093E0008091E1008E7FF8
:100810008093E1008091E20081608093E20080910A
:10082000E100877F8093E1008091E20088608093FF
:10083000E2000895C1DF81E08093260208951092BE
:10084000E20008951092E10008951F920F920FB6F2
:100850000F9211241F932F933F934F935F936F93A6
:100860007F938F939F93AF93BF93EF93FF93E9EEA3
:10087000F0E0108117701082E0EFF0E08081877F58
:1008800080837894C3D0F894A9EEB0E01C92E0EF96
:10089000F0E08081886080831C93FF91EF91BF918D
:1008A000AF919F918F917F916F915F914F913F9108
:1008B0002F911F910F900FBE0F901F9018951F92B0
:1008C0000F920FB60F9211242F933F934F935F9384
:1008D0006F937F938F939F93AF93BF93EF93FF9308
:1008E0008091E10080FF1BC08091E20080FF17C073
:1008F0008091E1008E7F8093E1008091E2008E7F05
:100900008093E2008091E20080618093E200809118
:10091000D80080628093D80019BC1EBAD1D18091D2
:10092000E10084FF29C08091E20084FF25C084E0BB
:1009300089BD89B5826089BD09B400FEFDCF809173
:10094000D8008F7D8093D8008091E1008F7E8093C6
:10095000E1008091E2008F7E8093E2008091E200CE
:1009600081608093E20080912502882311F481E068
:1009700001C084E08EBBA4D18091E10083FF27C039
:100980008091E20083FF23C08091E100877F809304
:10099000E10082E08EBB109225028091E1008E7F03
:1009A0008093E1008091E2008E7F8093E20080914D
:1009B000E20080618093E200AADD80E060E042E036
:1009C00093DD8091F00088608093F00079D1809170
:1009D000E10082FF0AC08091E20082FF06C08091A0
:1009E000E1008B7F8093E1006BD1FF91EF91BF918C
:1009F000AF919F918F917F916F915F914F913F91B7
:100A00002F910F900FBE0F901F9018951F93DF939B
:100A1000CF93CDB7DEB7AC970FB6F894DEBF0FBE5D
:100A2000CDBFE7E2F2E08091F100819322E0EF3266
:100A3000F207C9F78091270230912802353009F476
:100A400087C0363040F43130C9F1313070F0333086
:100A500009F01DC133C0383009F4EFC0393009F452
:100A6000FEC0363009F013C192C0803821F08238C0
:100A700009F00DC108C090912302809124028823BF
:100A800099F0926011C080912B0287708093E900E9
:100A90008091EB0090E025E0969587952A95E1F707
:100AA000982F91701092E9008091E800877F8093E1
:100AB000E8009093F1001092F100CAC0882319F069
:100AC000823009F0E4C090E08F719070009721F0BF
:100AD000029709F0DDC00CC080912902813009F035
:100AE000D7C010922402333069F5809324022AC0C3
:100AF00080912902882331F520912B02277009F477
:100B0000C7C02093E9008091EB0080FFC1C0333063
:100B100021F48091EB00806213C08091EB00806132
:100B20008093EB0081E090E002C0880F991F2A9526
:100B3000E2F78093EA001092EA008091EB0088606F
:100B40008093EB001092E9008091E800877F83C0DA
:100B5000882309F09CC0109129028091E800877FCA
:100B60008093E800E8DC04C08EB3882309F490C0C9
:100B70008091E80080FFF8CF812F8F7711F492E009
:100B800001C093E09EBB80688093E30081C08058E1
:100B9000823008F07CC08091290290912A0223E0E3
:100BA0008C3D920799F55FB7F894DE0115964EE0FB
:100BB00020E030E061E2E42FF0E0609357008491A0
:100BC00020FF03C082958F704F5F982F9F70892FF1
:100BD000805D8A3308F0895F8C9311961C9211977F
:100BE0002F5F3F4F12962431310529F75FBF8AE20C
:100BF0008B8383E08C838091E800877F8093E8007B
:100C0000CE0103966AE270E0E4DC11C060912B0231
:100C1000AE014F5F5F4F2CDCBC010097C9F18091A2
:100C2000E800877F8093E80089819A812BDD80919D
:100C3000E8008B778093E8002BC0803841F58091E5
:100C4000E800877F8093E800809125028093F1007F
:100C50008091E8008E778093E8006DDC19C08823CE
:100C6000B1F490912902923098F48091E800877F46
:100C70008093E800909325025EDC80912502882312
:100C800011F483E001C084E08EBB2DDB01C028DBC2
:100C90008091E80083FF0AC08091EB00806280931E
:100CA000EB008091E800877F8093E800AC960FB658
:100CB000F894DEBF0FBECDBFCF91DF911F91089595
:100CC00008951F938EB3882361F01091E90010926C
:100CD000E9008091E80083FF01C098DE177010934F
:100CE000E9001F9108950895FC018EB3843021F529
:100CF00087859089A189B2890097A105B105E1F0A6
:100D000085818093E9008091E80082FF15C0809181
:100D1000F200882319F42FEF3FEF04C08091F10017
:100D2000282F30E08091F200882341F48091E80080
:100D30008B778093E80002C02FEF3FEFC901089541
:100D4000FC018EB3843011F587859089A189B28921
:100D50000097A105B105D1F081818093E9008091D0
:100D6000F2008823A9F09091E8008091E8008E7746
:100D70008093E80095FD0CC0FDDB982F882349F493
:100D80008091E8008E778093E80003C092E001C074
:100D900090E0892F0895FC018EB3843051F487854B
:100DA0009089A189B2890097A105B10511F0CF0101
:100DB000C7CF08951F93FC01162F8EB38430D9F44A
:100DC00087859089A189B2890097A105B10599F01D
:100DD00081818093E9008091E80085FD08C08091C1
:100DE000E8008E778093E800C5DB882329F4109310
:100DF000F10080E001C082E01F9108950F931F93DE
:100E0000CF93DF93EC010D96FC0189E0DF011D9289
:100E10008A95E9F72A813B8109818C81882311F425
:100E200010E001C014E0C90151DB182B1260802FC3
:100E300061E8412F59DB882329F12E813F810D8103
:100E40008885882311F410E001C014E0C9013EDB5D
:100E5000182B1260802F60E8412F46DB882391F029
:100E60002A853B8509858C85882311F410E001C013
:100E700014E0C9012BDB182B1260802F61EC412F8D
:100E800033DB01C080E0DF91CF911F910F91089576
:100E9000CF93DF93EC018091E80083FF60C08881ED
:100EA00090E020912B0230912C022817390709F08D
:100EB00056C080912802813261F0823220F4803263
:100EC00009F04DC019C0823269F1833209F047C080
:100ED00038C080912702813A09F041C08091E80032
:100EE000877F8093E800CE010F9667E070E071DBAA
:100EF0008091E8008B7713C080912702813279F5C9
:100F00008091E800877F8093E800CE010F9667E02C
:100F100070E013DCCE013ED98091E8008E7780939B
:100F2000E8001DC0809127028132C9F48091E80059
:100F3000877F8093E800809129028D87CE01C8D9F0
:100F40000DC080912702813251F48091E800877FA3
:100F50008093E800CE0160912902C5DEECDADF91D2
:100F6000CF910895A1E21A2EAA1BBB1BFD010DC053
:100F7000AA1FBB1FEE1FFF1FA217B307E407F50749
:100F800020F0A21BB30BE40BF50B661F771F881F25
:100F9000991F1A9469F760957095809590959B01BB
:0C0FA000AC01BD01CF010895F894FFCF13
:100FAC0000034000000440000002080000000000A4
:060FBC000000000000002F
:00000001FF
