:103800000C94341C0C944F1C0C944F1C0C944F1CA7
:103810000C944F1C0C944F1C0C944F1C0C944F1C7C
:103820000C944F1C0C944F1C0C944F1C0C944F1C6C
:103830000C944F1C0C944F1C0C944F1C0C944F1C5C
:103840000C944F1C0C944F1C0C944F1C0C944F1C4C
:103850000C944F1C0C944F1C0C944F1C0C944F1C3C
:103860000C944F1C0C944F1C11241FBECFEFD4E0BE
:10387000DEBFCDBF11E0A0E0B1E0E0E6FFE302C0B3
:1038800005900D92A230B107D9F712E0A2E0B1E0A5
:1038900001C01D92AC30B107E1F70C94D61C0C941A
:1038A000001C882309F483E01092090290E0981725
:1038B000F0F4692F2D9A2FEF37E448EE51E02253B0
:1038C00030404040504057FFFACF2D982FEF33ED56
:1038D00040E350E0225330404040504057FFFACF81
:1038E000962F9F5F692F981728F3909309020895E8
:1038F000982F8091C00085FFFCCF9093C60008955B
:10390000EF92FF920F931F93EE24FF248701809183
:10391000C00087FD17C00894E11CF11C011D111D9A
:1039200081E0E81682E1F8068AE7080780E01807D8
:1039300070F3E0910201F091030109958091C000BC
:1039400087FFE9CF8091C600992787FD90951F9149
:103950000F91FF90EF9008950E94801C803209F033
:10396000089584E10E94781C80E10E94781C0895EB
:10397000CF93C82F0E94801C803249F484E10E94BA
:10398000781C8C2F0E94781C80E10E94781CCF91BB
:103990000895282F90E007C08091C0008823E4F7A5
:1039A0008091C6009F5F9217B8F30895CFEFD4E0DF
:1039B000DEBFCDBF000056985E9A1092C50088E029
:1039C0008093C40088E18093C10086E08093C200A8
:1039D000259A579A5F9A109209022FE080E090E0B2
:1039E0000197F1F7215027FFF9CF20E12093090239
:1039F0005F9883E00E94511C83E50E94781C85E457
:103A00000E94781C84E50E94781C80E20E94781C49
:103A100082E40E94781C84E50E94781C80E20E9467
:103A2000781C80E50E94781C81E40E94781C87E461
:103A30000E94781C85E40E94781C8DE40E94781C0A
:103A40008FE40E94781C84E40E94781C85E40E9424
:103A5000781C80E20E94781C83E30E94781C80E23C
:103A60000E94781C82E30E94781C80E30E94781CEC
:103A700080E30E94781C80E30E94781C80E20E9410
:103A8000781C81E30E94781C8DE00E94781C83E5FD
:103A90000E94781C85E40E94781C84E50E94781CB2
:103AA00080E20E94781C82E40E94781C84E50E94D7
:103AB000781C80E20E94781C82E50E94781C8FE4CA
:103AC0000E94781C8CE40E94781C85E40E94781C7B
:103AD00080E20E94781C80E30E94781C80E20E94B1
:103AE000781C86E60E94781C80E20E94781C87E39E
:103AF0000E94781C84E60E94781C80E30E94781C57
:103B000080E30E94781C8DE00E94781C0E94801C3B
:103B1000803361F1813369F1803409F449C0813423
:103B200009F44FC0823409F45DC0853409F460C0E3
:103B30008035E1F08135D1F08235C1F0853509F469
:103B40005BC0863509F463C0843609F465C08437E8
:103B500009F4B9C0853709F414C18637B9F680E095
:103B60000E94B81C0E94801C8033A1F60E94AC1CED
:103B7000CDCF0E94801CC82F803241F684E10E9484
:103B8000781C81E40E94781C86E50E94781C82E5FE
:103B90000E94781C8C2F0E94781C89E40E94781C5B
:103BA00083E50E94781C80E50E94781C80E1ACCF00
:103BB0000E94801C8638D0F20E94801C0E94AC1C9F
:103BC000A5CF0E94801C803809F4EDC0813809F42B
:103BD000EEC0823809F4EFC0883909F683E00E940C
:103BE000B81CC0CF84E10E94C91C0E94AC1C8ECFBF
:103BF00085E00E94C91CF9CF0E94801C80930501BA
:103C00000E94801C809306010E94AC1C7FCF84E040
:103C10000E94C91C80E0A4CF0E94801C80930802EF
:103C20000E94801C8093070280910B028E7F8093FC
:103C30000B020E94801C853409F4C1C000E010E032
:103C400080910702909108021816190670F4C7E0D7
:103C5000D1E00E94801C89930F5F1F4F8091070263
:103C60009091080208171907A0F30E94801C803267
:103C700009F04CCF80910B0280FFADC000E010E056
:103C8000209107023091080212161306C0F4E09149
:103C90000501F0910601A7E0B1E0F999FECFF2BD70
:103CA000E1BD8D9180BDFA9AF99A31960F5F1F4F51
:103CB0000217130790F3F0930601E093050184E1E6
:103CC0000E94781C73CF0E94801C809308020E947F
:103CD000801C809307020E94801C853409F475C003
:103CE00080910B028E7F80930B0280910501909151
:103CF0000601880F991F90930601809305010E9489
:103D0000801C803209F002CF84E10E94781C00E020
:103D100010E020910702309108021216130608F0F5
:103D200045CFE0910501F091060180910B0280FFE3
:103D30001FC0F999FECFF2BDE1BDF89A80B50E948F
:103D4000781CE0910501F09106013196F09306018F
:103D5000E093050120910702309108020F5F1F4F89
:103D60000217130708F022CF80910B0280FDE1CFEC
:103D7000869580FF9BC03196F0930601E093050184
:103D8000EDCF0E94801C803209F0C0CE84E10E94F9
:103D9000781C8EE10E94781C84E90E94781C86E0E1
:103DA0000E94781C03CF82E00E94B81CDBCE81E029
:103DB0000E94B81CD7CE8FE00E94B81CD3CE809151
:103DC0000B02816080930B0239CF80910B028160DE
:103DD00080930B0294CF8091060187FD73C01092EF
:103DE0000A028091050190910601880F991F909316
:103DF0000601809305018091070280FF09C0809130
:103E0000070290910802019690930802809307029E
:103E1000F894F999FECF1127E0910501F091060180
:103E2000C7E0D1E08091070290910802103091F430
:103E30000091570001700130D9F303E0009357005F
:103E4000E8950091570001700130D9F301E100932A
:103E50005700E895099019900091570001700130C2
:103E6000D9F301E000935700E8951395103498F0CA
:103E700011270091570001700130D9F305E000933C
:103E80005700E8950091570001700130D9F301E126
:103E900000935700E8953296029709F0C7CF10308B
:103EA00011F00296E5CF112484E10ACF84910E949B
:103EB000781C2091070230910802E0910501F091F1
:103EC000060159CF81E080930A028BCF1F93CF93D5
:103ED0000E94801CC82F0E94781C0E94801C182FF2
:103EE0000E94781CC1362CF0C75511363CF017558E
:103EF00008C0C033D4F3C0531136CCF710330CF0E4
:103F00001053C295C07FC10F8C2F992787FD9095C4
:103F1000CF911F910895CF93282F992787FD9095D2
:103F2000807F9070959587959595879595958795C0
:103F3000959587958A303CF0895AC22FCF70CA3048
:103F40003CF0C95A06C0805DC22FCF70CA30CCF792
:103F5000C05D0E94781C8C2F0E94781CCF91089520
:023F60008000DF
:0400000300003800C1
:00000001FF
