:103800000C94341C0C94511C0C94511C0C94511CA1
:103810000C94511C0C94511C0C94511C0C94511C74
:103820000C94511C0C94511C0C94511C0C94511C64
:103830000C94511C0C94511C0C94511C0C94511C54
:103840000C94511C0C94511C0C94511C0C94511C44
:103850000C94511C0C94511C0C94511C0C94511C34
:103860000C94511C0C94511C11241FBECFEFD4E0BA
:10387000DEBFCDBF11E0A0E0B1E0EEEAFFE302C0A1
:1038800005900D92A230B107D9F712E0A2E0B1E0A5
:1038900001C01D92AD30B107E1F70E94331D0C94B9
:1038A000D51F0C94001C982F9595959595959595F9
:1038B000905D8F708A307CF0282F295A8091C0004B
:1038C00085FFFCCF9093C6008091C00085FFFCCFA0
:1038D0002093C6000895282F205DF0CF982F809167
:1038E000C00085FFFCCF9093C6000895EF92FF9231
:1038F0000F931F93EE24FF2487018091C00087FD62
:1039000017C00894E11CF11C011D111D81E2E8168D
:1039100081EAF80687E0080780E0180770F3E09175
:103920000401F091050109958091C00087FFE9CF5E
:103930008091C6001F910F91FF90EF9008950E9413
:10394000761C982F8091C00085FFFCCF9093C60015
:1039500091362CF490330CF09053892F089597559D
:10396000892F08951F930E949F1C182F0E949F1C4F
:103970001295107F810F1F9108951F93182F882390
:1039800021F00E94761C1150E1F71F9108951F93BA
:10399000182F0E94761C803249F0809103018F5FBE
:1039A000809303018530C1F01F9108958091C0007C
:1039B00085FFFCCF84E18093C6008091C00085FF25
:1039C000FCCF1093C6008091C00085FFFCCF80E142
:1039D0008093C6001F910895E0910401F0910501C4
:1039E00009951F9108950E94761C803241F08091C4
:1039F00003018F5F80930301853081F008958091EA
:103A0000C00085FFFCCF84E18093C6008091C00098
:103A100085FFFCCF80E18093C6000895E09104010A
:103A2000F09105010995089510920A028823D1F0BA
:103A300090E048EC50E02D9A28EE33E0FA013197FF
:103A4000F1F721503040D1F72D9828EE33E0FA01FC
:103A50003197F1F721503040D1F79F5F981758F315
:103A600080930A0208953F924F925F926F927F92E5
:103A70008F929F92AF92BF92CF92DF92EF92FF927E
:103A80000F931F93CF93DF9394B714BE8091600080
:103A90008861809360001092600091FF0CC289E100
:103AA0008093C4001092C50088E18093C10086E035
:103AB0008093C2005098589A259A81E00E94141D64
:103AC00044E1F42E3EE1E32E24E9D22E96E0C92E05
:103AD00080E1B82EAA24A39401E4902E16E5812E4D
:103AE000B2E57B2EA0E26A2EF9E45F2EE3E54E2ECE
:103AF00070E5372E0E94761C8033B9F18133C1F115
:103B0000803409F470C0813409F477C0823409F438
:103B100086C0853409F489C0803539F1823529F1B0
:103B2000813509F4AFC1853509F485C0863509F4BE
:103B30008DC0843609F435C1843709F4C1C0853796
:103B400009F490C0863709F466C0809103018F5F45
:103B500080930301853071F6E0910401F091050135
:103B600009950E94761C803349F60E94F31CC2CF4F
:103B70000E94761C803249F78091C00085FFFCCFFF
:103B8000F092C6008091C00085FFFCCF9092C600E5
:103B90008091C00085FFFCCF8092C6008091C0005C
:103BA00085FFFCCF7092C6008091C00085FFFCCFDE
:103BB0006092C6008091C00085FFFCCF5092C60085
:103BC0008091C00085FFFCCF4092C6008091C0006C
:103BD00085FFFCCF3092C6008091C00085FFFCCFEE
:103BE000B092C60087CF0E94761C863808F4BDCFFD
:103BF0000E94761C0E94F31C7DCF0E94761C8038A8
:103C000009F45AC0813809F453C0823809F440C11C
:103C1000883909F449C080E00E94C71C6BCF84E159
:103C20000E94BD1C0E94F31C65CF85E00E94BD1C54
:103C30000E94F31C5FCF0E94761C809306010E94B5
:103C4000761C809307010E94F31C54CF0E94761CBF
:103C5000803309F421C183E00E94BD1C80E00E94F2
:103C6000C71C48CF0E94761C803209F06ECF80912D
:103C7000C00085FFFCCFF092C6008091C00085FF98
:103C8000FCCFE092C6008091C00085FFFCCFD092AF
:103C9000C6008091C00085FFFCCFC092C600809115
:103CA000C00085FFFCCF9CCF83E00E94C71C22CFC1
:103CB00081E00E94C71C1ECF82E00E94C71C1ACF61
:103CC0000E94761C809309020E94761C8093080251
:103CD0008091060190910701880F991F9093070129
:103CE000809306010E94761C853409F4C5C080913A
:103CF0000C028E7F80930C020E94761C803209F0A9
:103D0000F9CE8091C00085FFFCCFF092C600609193
:103D10000802709109026115710591F140E050E0CF
:103D200080910C02A82FA170B82FB27010C0BB23D5
:103D300061F1E0910601F09107013196F0930701DE
:103D4000E09306014F5F5F4F46175707C8F4AA2359
:103D500071F3F999FECF209106013091070132BD30
:103D600021BDF89A90B58091C00085FFFCCF90935B
:103D7000C6002F5F3F4F3093070120930601E2CF2B
:103D80008091C00085FFFCCF2BCFE0910601F09120
:103D9000070194918091C00085FFFCCF9093C600ED
:103DA000CCCF0E94761C809309020E94761C8093DF
:103DB000080280910C028E7F80930C020E94761C78
:103DC000853429F480910C02816080930C028091EB
:103DD000080290910902892B89F000E010E00E940E
:103DE000761CF801E85FFE4F80830F5F1F4F8091C4
:103DF0000802909109020817190788F30E94761C9F
:103E0000803209F0A2CE80910C0280FF62C0409106
:103E1000060150910701440F551F5093070140932D
:103E20000601609108027091090261157105C9F0DF
:103E3000E8E0F1E09A01DB01AE0FBF1FF999FECF78
:103E400032BD21BD819180BDFA9AF99A2F5F3F4F13
:103E5000EA17FB0799F7460F571F50930701409346
:103E600006018091C00085FFFCCFF092C6008091D2
:103E7000C00085FFFCCFB4CE80910C02816080939E
:103E80000C023ACF0E94F31C88E080936000FFCFC1
:103E900080E10E94C71C2ECE0E94761C0E94761CD8
:103EA000182F0E94761C112381F0113051F086E00A
:103EB0000E94C71C1FCEE0910401F09105010995F5
:103EC000EECD84E90E94C71C15CE8EE10E94C71C6E
:103ED00011CE809107018823880F880B8A21809357
:103EE0000B028091060190910701880F991F909312
:103EF0000701809306018091080280FF09C080912C
:103F00000802909109020196909309028093080299
:103F1000F894F999FECF1127E0910601F09107017D
:103F2000C8E0D1E08091080290910902103091F42C
:103F30000091570001700130D9F303E0009357005E
:103F4000E8950091570001700130D9F301E1009329
:103F50005700E895099019900091570001700130C1
:103F6000D9F301E000935700E8951395103498F0C9
:103F700011270091570001700130D9F305E000933B
:103F80005700E8950091570001700130D9F301E125
:103F900000935700E8953296029709F0C7CF10308A
:0E3FA00011F00296E5CF11245CCFF894FFCF0C
:023FAE00800091
:0400000300003800C1
:00000001FF
