:103800000C94341C0C94511C0C94511C0C94511CA1
:103810000C94511C0C94511C0C94511C0C94511C74
:103820000C94511C0C94511C0C94511C0C94511C64
:103830000C94511C0C94511C0C94511C0C94511C54
:103840000C94511C0C94511C0C94511C0C94511C44
:103850000C94511C0C94511C0C94511C0C94511C34
:103860000C94511C0C94511C11241FBECFEFD4E0BA
:10387000DEBFCDBF11E0A0E0B1E0E4EAFEE302C0AC
:1038800005900D92A230B107D9F712E0A2E0B1E0A5
:1038900001C01D92AD30B107E1F70E94ED1C0C9400
:1038A000511F0C94001C482F10920A0280E08417CC
:1038B000E0F4582F2D9A28EE33E080E991E001974B
:1038C000F1F721503040C9F72D9828EE33E080E918
:1038D00091E00197F1F721503040C9F7852F8F5FB4
:1038E000582F841738F380930A020895EF92FF92BD
:1038F0000F931F93EE24FF2487018091C00087FD62
:1039000017C00894E11CF11C011D111D81E0E8168F
:1039100082E1F8068AE7080780E0180770F3E09173
:103920000201F091030109958091C00087FFE9CF62
:103930008091C600992787FD90951F910F91FF9068
:10394000EF900895982F8091C00085FFFCCF909351
:10395000C60008950E94761C803271F080910401A7
:103960008F5F80930401853009F00895E091020192
:10397000F09103010995089584E10E94A21C80E161
:103980000E94A21C0895CF93C82F0E94761C8032FB
:1039900041F0809104018F5F80930401853081F4B0
:1039A0000AC084E10E94A21C8C2F0E94A21C80E10C
:1039B0000E94A21C05C0E0910201F091030109954B
:1039C000CF910895CF93C82FC150CF3F21F00E94CF
:1039D000761CC150E0F7CF910895CFEFD4E0DEBF61
:1039E000CDBF000083E38093C4001092C50088E13E
:1039F0008093C10086E08093C2005098589A259A1F
:103A000083E00E94531C0E94761C8033B1F1813305
:103A1000B9F1803409F455C0813409F45BC08234B3
:103A200009F46DC0853409F470C0803531F18235F8
:103A300021F1813511F1853509F46BC0863509F422
:103A400073C0843609F47AC0843709F4CEC0853750
:103A500009F429C1863709F44AC0809104018F5FB7
:103A600080930401853079F6E0910201F091030121
:103A700009950E94761C803351F60E94AA1CC3CF80
:103A80000E94761CC82F803241F784E10E94A21C5C
:103A900081E40E94A21C86E50E94A21C82E50E948D
:103AA000A21C8C2F0E94A21C89E40E94A21C83E508
:103AB0000E94A21C80E50E94A21C80E10E94A21C20
:103AC000A2CF0E94761C8638C0F20E94761C0E940B
:103AD000AA1C99CF0E94761C803809F486C18138CF
:103AE00009F487C1823809F488C1883921F080E05F
:103AF0000E94C31C88CF83E00E94C31C84CF84E152
:103B00000E94E21C0E94AA1C7ECF85E00E94E21C5B
:103B1000F9CF0E94761C809306010E94761C809348
:103B200007010E94AA1C6FCF0E94761C803309F403
:103B3000CAC083E00E94E21C80E0DACF0E94761CBB
:103B4000809309020E94761C8093080280910C02E7
:103B50008E7F80930C020E94761C853409F4C4C0C9
:103B600000E010E0809108029091090218161906F1
:103B700070F4C8E0D1E00E94761C89930F5F1F4F5C
:103B8000809108029091090208171907A0F30E947A
:103B9000761C803209F061CF80910C0280FFAEC0AC
:103BA000E0910601F0910701EE0FFF1F00E010E029
:103BB00020910802309109021216130680F4A8E041
:103BC000B1E0F999FECFF2BDE1BD8D9180BDFA9AC9
:103BD000F99A31960F5F1F4F0217130790F3F09376
:103BE0000701E093060184E166CF0E94761C809372
:103BF00009020E94761C8093080280910601909130
:103C00000701880F991F90930701809306010E9476
:103C1000761C853409F46EC080910C028E7F8093EF
:103C20000C020E94761C803209F0EDCE84E10E94E5
:103C3000A21C00E010E02091080230910902121647
:103C4000130608F03ACFE0910601F0910701809148
:103C50000C0280FF1FC0F999FECFF2BDE1BDF89ABA
:103C600080B50E94A21CE0910601F09107013196F7
:103C7000F0930701E09306012091080230910902B8
:103C80000F5F1F4F0217130708F017CF80910C0228
:103C900080FDE1CF869580FFB4C03196F093070197
:103CA000E0930601EDCF0E94761C803209F0D5CE5C
:103CB00084E10E94A21C8EE10E94A21C84E90E9461
:103CC000A21C86E0F8CE0E94761C0E94761CC82FAB
:103CD0000E94761CCC2309F47CC0C13009F47DC05D
:103CE00086E00E94C31C8FCE80910C02816080937D
:103CF0000C0236CF80910C02816091CF8091070138
:103D000087FD6FC010920B02809106019091070110
:103D1000880F991F909307018093060180910802F4
:103D200080FF09C08091080290910902019690934A
:103D3000090280930802F894F999FECF1127E091C7
:103D40000601F0910701C8E0D1E08091080290914E
:103D50000902103091F40091570001700130D9F33D
:103D600003E000935700E89500915700017001307F
:103D7000D9F301E100935700E8950990199000915B
:103D8000570001700130D9F301E000935700E89526
:103D90001395103498F011270091570001700130ED
:103DA000D9F305E000935700E895009157000170A2
:103DB0000130D9F301E100935700E895329602975C
:103DC00009F0C7CF103011F00296E5CF112484E13D
:103DD00072CE8EE10E94C31C16CE84E90E94C31CE1
:103DE00012CE81E080930B028FCF82E00E94C31C31
:103DF0000ACE81E00E94C31C06CE80E10E94C31C53
:103E000002CE84910E94A21C2091080230910902E6
:103E1000E0910601F091070140CFCF930E94761CFC
:103E2000C82F0E94A21CC13614F0C75503C0C0336E
:103E30000CF0C0538C2F992787FD9095CF91089552
:103E40000F931F930E940D1F082F112707FD109538
:103E500002951295107F1027007F10270E940D1FDA
:103E6000800F992787FD90951F910F910895CF930B
:103E7000C82F85958595859585958A3034F0895A22
:103E8000CF70CA3034F0C95A05C0805DCF70CA30D7
:103E9000D4F7C05D0E94A21C8C2F0E94A21CCF915F
:043EA0000895FFCFB3
:023EA40080009C
:0400000300003800C1
:00000001FF
